:1000000072C1000098C1000096C100000C942A162D
:100010000C942A160C942A168EC100008CC1000084
:100020008AC1000088C1000086C1000084C10000B0
:1000300082C1000080C100007EC100007CC10000C0
:100040000C94A61778C100000C9427190C94591928
:1000500072C1000070C100006EC100006CC10000E0
:100060006AC1000068C1000053544154453A20431E
:100070004F4E4E454354204F4B0041542B43495063
:1000800053544154555300434C4F5345204F4B005C
:1000900041542B434950434C4F5345004552524F16
:1000A00052004F4B0053454E44204F4B0041542BC0
:1000B00043495053454E440041542B434950534506
:1000C0004E440D0A0D0A3E20434F4E4E45435420E8
:1000D0004F4B0041542B43495053544152543D22FD
:1000E000544350222C223137382E36322E362E34BD
:1000F00034222C373737370041542B4349504D5564
:10010000583D30002B4349504D55583A2031002B73
:100110004349504D55583A20300041542B434950E3
:100120004D55583F0041542B4349494352004154D7
:100130002B435354543D22696E7465726E65742E60
:10014000766F6461666F6E652E7074222C22222C8D
:1001500022220053485554204F4B0041542B434911
:1001600050534855540041542B434950534552561F
:1001700045523D30002B4349505345525645523A63
:1001800020300041542B4349505345525645523F6D
:100190000041542B434744434F4E543D312C224998
:1001A00050222C22696E7465726E65742E766F64AF
:1001B00061666F6E652E7074220041542B43495066
:1001C0004D4F44453D30002B4349504D4F44453A37
:1001D0002031002B4349504D4F44453A20300041D7
:1001E000542B4349504D4F44453F0041542B434904
:1001F0004653520041542B43474154543D30004133
:10020000542B43474154543D31002B4347415454F0
:100210003A2031002B43474154543A203000415496
:100220002B43474154543F0041542B4349555243BB
:100230003D30002B43495552433A2030002B43496F
:100240005552433A20310041542B43495552433FC4
:100250000041542B4350494E3D30303438002B433D
:1002600050494E3A2053494D2050494E002B43509F
:10027000494E3A2052454144590041542B4350497C
:100280004E3F00415400000000080002010000033E
:100290000407000000000000000001020408102014
:1002A0004080010204081020010204081020040408
:1002B000040404040404020202020202030303030E
:1002C00003030000000023002600290000000000B6
:1002D000250028002B0000000000240027002A0031
:1002E000C6048719C90411241FBECFEFD8E0DEBFB2
:1002F000CDBF12E0A0E0B1E0E2EFFBE302C0059069
:100300000D92AA39B107D9F725E0AAE9B2E001C0F8
:100310001D92A635B207E1F711E0C2E7D1E004C0B3
:100320002197FE010E948D1CC037D107C9F70E949A
:10033000E51A0C94ED1D64CE0895CF92DF92EF92F2
:10034000FF920F931F93CF93DF9300D000D000D084
:10035000CDB7DEB780EA92E00E94A60F0097C1F009
:100360002AE0289F8001299F100D11240F5F1F4F45
:10037000C80126960FB6F894DEBF0FBECDBFDF9141
:10038000CF911F910F91FF90EF90DF90CF90089544
:1003900085E090E00E9425199A838983CE01019619
:1003A0000E94E213009701F12AE0289F8001299F13
:1003B000100D11240E5F1F4F89819A81009711F053
:1003C0000E9426198B819C81009711F00E942619AA
:1003D00080EA92E00E94510BA80163E071E08AE09C
:1003E00091E00E940F15C4CF69817A819E012B5F35
:1003F0003F4F45E050E080EA92E00E94881300976A
:1004000049F02AE0289F8001299F100D11240D5FDB
:100410001F4FD2CF8D819E810E9425199C838B8393
:10042000BE016D5F7F4F80EA92E0B3D68C01892BCD
:1004300051F02AE0209FC001219F900D11248C01D2
:100440000C5F1F4FB9CF8D819E816C0123E0D69444
:10045000C7942A95E1F7887FC11420E1D20610F0F5
:100460008FEF9FEF0E9425197C016D817E81AC0189
:100470008B819C810E94FA13B601C7018ED29CCF5A
:10048000CF93DF93EC0163E171E085EB94E00E9490
:10049000F019CA30D1052CF460E385EB94E00E949A
:1004A000F7194AE050E0BE0185EB94E0DF91CF916F
:1004B0000C94A71A8ED44AE050E0BC0185EB94E07E
:1004C0000E94A71A8CD4DCDF90D4DADF60E772E0F8
:1004D00085EB94E00E94F0198ED44AE050E0BC0114
:1004E00085EB94E00E94A71A60E772E085EB94E048
:1004F0000E94F01986D44AE050E0BC0185EB94E0FC
:100500000E94A71A60E772E085EB94E00E94F01960
:100510007ED44AE050E0BC0185EB94E00E94A71A2B
:1005200085EB94E00C94FE190F931F93CF93DF9308
:10053000CDB7DEB72A970FB6F894DEBF0FBECDBF9A
:1005400080EA92E00E94A60F0097A1F02AE0289F7F
:100550008001299F100D11240F5F1F4FC8012A969B
:100560000FB6F894DEBF0FBECDBFDF91CF911F91C4
:100570000F91089585E090E00E9425199E838D8358
:10058000CE0105960E94B613009719F12AE0289F24
:100590008001299F100D11240E5F1F4F8D819E81B8
:1005A000009711F00E9426198F819885009711F00D
:1005B0000E94261980EA92E00E94510B0115110554
:1005C00069F2A8016BEC70E08AE091E00E940F15DF
:1005D000C5CF6D817E819E01275F3F4F45E050E092
:1005E00080EA92E00E948813009749F02AE0289F51
:1005F0008001299F100D11240D5F1F4FCFCF8985DA
:100600009A850E94251998878F83BE01695F7F4F65
:1006100080EA92E0BED5009749F02AE0289F800149
:10062000299F100D11240C5F1F4FB8CF69857A8563
:10063000AE014F5F5F4F8F8198850E94CD138C0173
:10064000892B51F02AE0209FC001219F900D112499
:100650008C010B5F1F4FA2CF69817A818B819C81B6
:10066000605F714F8F4F9F4FF0D281E080939E0269
:100670001FD360939A0270939B0280939C02909385
:100680009D0218DF8BCF0F931F93CF93DF93CDB7CE
:10069000DEB7CD5AD1400FB6F894DEBF0FBECDBF46
:1006A00026E040E855E260E070E085EB94E00E94CF
:1006B000C11BCE0101960AD4FE013196A0EAB2E038
:1006C00081918D9383E0A032B807D1F7DE01AF5757
:1006D000BF4FE0E2F3E08D91819383E0E03AF807C9
:1006E000D1F7DE01AF5FBE4FE0EAF3E08D91819379
:1006F00084E0E032F807D1F7CF57DE4F8881998147
:10070000C158D1409093210480932004CD57DE4FEF
:1007100088819981C358D140909323048093220407
:10072000CB57DE4F88819981C558D14090932504DD
:1007300080932404C957DE4F88819981C758D140DE
:100740009093270480932604C757DE4F88819981B0
:10075000C958D1409093290480932804C557DE4F8F
:1007600088819981CB58D14090932B0480932A049F
:10077000C357DE4F88819981CD58D14090932D0485
:1007800080932C04CF56DE4F88819981C159D14086
:100790009093310480933004CD56DE4F8881998147
:1007A000AA81BB81C359D140809332049093330412
:1007B000A0933404B0933504C956DE4F88819981E3
:1007C000AA81BB81C759D1408093360490933704E6
:1007D000A0933804B0933904C556DE4F8881CB59B5
:1007E000D14080933A04C456DE4F8881CC59D14021
:1007F00080933B04C356DE4F88819981CD59D14007
:1008000090933D0480933C04C156DE4F8881CF59BC
:10081000D14080933E04C056DE4F88819981C05AF2
:10082000D1409093400480933F04CE55DE4F8881A1
:100830009981C25AD1409093420480934104CC558F
:10084000DE4F8881C45AD14080934304CB55DE4F9C
:1008500088819981C55AD14090934504809344047E
:10086000C955DE4F88819981C75AD140909347047A
:1008700080934604C755DE4F88819981C95AD1407B
:100880009093490480934804C555DE4F888199812F
:10089000CB5AD14090934B0480934A04C355DE4F0A
:1008A0009881CD5AD14080914C0490FB80F991FB06
:1008B00081F980934C04CE0181579E4F0E94A2166D
:1008C00065E171E085EB94E00E94011A80EA92E014
:1008D0000E94A20C009771F0AC0164E270E08AE023
:1008E00091E00E940F1560E177E280E090E00E94C5
:1008F0002118ECCF10E001E080EA92E00E94F80DB0
:10090000AC016EE270E0892BC1F480919E028111EE
:100910002EC00ADE009759F1AC0166E370E08AE070
:1009200091E00E940F1511E080EA92E00E94290FE9
:10093000009739F0AC016BE570E08AE091E00E942D
:100940000F1568EE73E080E090E00E94211880911E
:100950009F02882389F2C355DE4F0FB6F894DEBF9D
:100960000FBECDBFDF91CF911F910F91089511114F
:10097000DBCFE3DC009739F0AC016FE370E08AE095
:1009800091E00E940F1500939F02CECF80EA92E083
:100990009DC28EE294E00C94A216EF92FF920F9308
:1009A0001F93CF93DF938C017B0165E271E085EBB0
:1009B00094E00E94011AE80110E000E00E151F0506
:1009C000B1F1688179814AE050E085EB94E00E94C2
:1009D000CF1A60E772E085EB94E00E94F0196A811B
:1009E0007B814AE050E085EB94E00E94CF1A60E7FB
:1009F00072E085EB94E00E94F0196C817D814AE001
:100A000050E085EB94E00E94CF1A60E772E085EB3E
:100A100094E00E94F0196E817F814AE050E085EBFE
:100A200094E00E94D41A0F5F1F4F2896C7CFDF9122
:100A3000CF911F910F91FF90EF9008956F927F9249
:100A40008F929F92AF92BF92CF92DF92EF92FF92DE
:100A50000F931F93CF93DF936B017C01EA018CE32B
:100A6000882E912CA12CB12CC701A50194010E94C4
:100A7000341C6883CA01B901A50194010E94341C89
:100A80006983C701B60120E13EE040E050E00E94EA
:100A9000341CCA01B90128E130E040E050E00E9476
:100AA000341C6A83C701B60120E831E541E050E01B
:100AB0000E94341C69017A01CA01B9016C5F7F4F41
:100AC0008F4F9F4F27E030E040E050E00E94341C01
:100AD0006F5F6B83812C912C540140E094E6692E6A
:100AE000712C00E911E0242F30E02E54384FF90129
:100AF000E370FF273097F9F4C901B3010E94211C6C
:100B0000892B31F4C901B8010E94211C892B99F469
:100B10008EE691E0A0E0B0E0880E991EAA1EBB1EF2
:100B2000D501C401AA27BB27C816D906EA06FB06C9
:100B300038F04F5FD8CF8DE691E0A0E0B0E0ECCF89
:100B40004E83C90164E670E00E94211C8C01C9013A
:100B500060E971E00E94211C309729F4011511050C
:100B6000E1F40097D1F04DE651E060E070E0841AC6
:100B7000950AA60AB70AC818D908EA08FB08A7E325
:100B8000B1E020E0213071F4309791F501151105A5
:100B900011F4009769F54DE106C04EE651E060E0C2
:100BA00070E0E5CF4C9150E070E060E031E0320F52
:100BB000C416D506E606F70640F0C41AD50AE60ABA
:100BC000F70A1196232F3C30E9F62F5F2D83C3944B
:100BD000CC82DF91CF911F910F91FF90EF90DF902A
:100BE000CF90BF90AF909F908F907F906F9008951F
:100BF0004CE1D9CFCF92DF92EF92FF926B017C0153
:100C000080915D0490915E04A0915F04B0916004B6
:100C10008C159D05AE05BF0561F041E654E0C701A6
:100C20000DDFC0925D04D0925E04E0925F04F0920A
:100C30006004FF90EF90DF90CF900895DBDF80910C
:100C4000670490E08E54984F08950F931F9360931C
:100C5000590470935A0480935B0490935C04009150
:100C60000601109107012091080130910901DC0172
:100C7000CB01800F911FA21FB31F8093510490934B
:100C80005204A0935304B093540482E090E09093F4
:100C9000500480934F040E94F017609355047093A2
:100CA000560480935704909358041F910F91089510
:100CB000CF92DF92EF92FF920F931F930E94F01753
:100CC000C0905504D0905604E0905704F09058041A
:100CD0008B019C010C191D092E093F0980915904B3
:100CE00090915A04A0915B04B0915C04083E1340BB
:100CF00021053105D0F00196A11DB11D8093590445
:100D000090935A04A0935B04B0935C04B701A601CE
:100D100048515C4F6F4F7F4F40935504509356049A
:100D20006093570470935804C9CF40915104509177
:100D30005204609153047091540484179507A607D8
:100D4000B70768F0E0914D04F0914E04309739F008
:100D50000995611571058105910581F076DF609136
:100D6000590470915A0480915B0490915C041F9126
:100D70000F91FF90EF90DF90CF90089580915904EC
:100D800090915A04A0915B04B0915C0440910601DB
:100D9000509107016091080170910901840F951F1E
:100DA000A61FB71F8093510490935204A09353043D
:100DB000B093540481E090E020914F0430915004AE
:100DC000232B11F490E080E09093500480934F0423
:100DD000C6CF6EDF0FDF8091630490E0089568DF77
:100DE00009DF8091620490E0089562DF03DF809163
:100DF000610490E008955CDFFDDE8091650490E081
:100E0000089556DFF7DE8091660490E0089550DF84
:100E100015CF8A579E4FFC01718360836230710544
:100E2000C1F038F46115710559F06130710571F048
:100E300008956330710581F06430710581F0089583
:100E400063E471E085EB94E00C94011A6FE571E0C6
:100E5000F9CF6AE771E0F6CF66E971E0F3CF61EBB5
:100E600071E0F0CFFC01E058FE4F1182108220E8C3
:100E7000FC0111922A95E9F788579E4FFC011182D7
:100E800010820895FC01EE57FE4F11821082E2504D
:100E9000F14020E8DF011D922A95E9F786579E4F21
:100EA000FC01118210820895FC01EC57FE4F118263
:100EB0001082E458F10920E8DF011D922A95E9F734
:100EC00084579E4FFC01118210820895CF93DF93C7
:100ED000EC0120E048E067E082579E4F0E94F61642
:100EE000FE01EA57FE4F11821082CE01BBDFCE0118
:100EF000C9DFCE01D9DF63E471E085EB94E0DF91D7
:100F0000CF910C94011AEF92FF920F931F93CF93FE
:100F1000DF93EC018901DC01A657BE4F8D919C91B6
:100F20001197892B09F08CC0FE01E857FE4F808194
:100F30009181019709F084C07B01BE0190E080E0BF
:100F4000FB012191BF0148175907D1F0F7013191F9
:100F50007F01321799F0CE0185DF42E050E06DEF5E
:100F600072E08DEC91E00E940F1582E090E0DF913D
:100F7000CF911F910F91FF90EF9008950196E0CFD0
:100F80002D3061F4FE01E40FF51F81818A3031F4C8
:100F900082818D3019F483818A3069F0CE0162DF5D
:100FA00043E050E066E073E08DEC91E00E940F15A5
:100FB00083E090E0DCCF4C5F5F4FFE01E40FF51F54
:100FC000BF019F012C1B3D0B81918D3019F0808159
:100FD0008A30B9F7FE01E058FE4F80819181029777
:100FE0008217930769F0CE013DDF44E050E065E1F0
:100FF00073E08DEC91E00E940F1584E090E0B7CF94
:10100000C901841B950BAC017E019EE7E91A9EEF96
:10101000F90AF7015183408381E090E08D939C931E
:10102000CE0180589F4F0E94DB1DCE011BDFF701D0
:1010300080819181F8019183808390E080E097CF57
:1010400041E050E065EF72E08DEC91E00E940F15F9
:1010500081E090E08CCFEF92FF920F931F93CF939C
:10106000DF93EC018B01DC01A657BE4F8D919C9163
:101070001197892B09F059C0FE01E857FE4F808176
:101080009181019709F051C0FE01CF018C1B9D0B8E
:1010900021912D30D1F720812A30B9F70296FE0137
:1010A000E80FF91FBF01AF014C1B5D0B21912D30E3
:1010B00019F020812A30B9F7FE01E058FE4F208157
:1010C0003181225031092417350789F043E050E07F
:1010D0006BE373E08DEC91E00E940F1583E090E0EC
:1010E000DF91CF911F910F91FF90EF900895481BD2
:1010F000590B7E018EE7E81A8EEFF80AF70151834B
:10110000408381E090E08D939C93CE0180589F4F67
:101110000E94DB1DCE01A6DEF70180819181F801DE
:101120009183808390E080E0DBCF41E050E069E292
:1011300073E08DEC91E00E940F1581E090E0D0CF3C
:10114000CF93DF93EC01FB01DC01A657BE4F8D91DD
:101150009C91019769F041E050E06BE773E08DEC02
:1011600091E00E940F1581E090E0DF91CF9108950A
:10117000DE01AE57BE4F4D915C91BE0160587F4F6E
:10118000808191810E94DB1DCE017CDE90E080E0B9
:10119000ECCFAF92BF92CF92DF92EF92FF920F937C
:1011A0001F93CF93DF93EC015B01FC01E457FE4FEB
:1011B000808191810197A9F041E050E06AEA73E0F3
:1011C0008DEC91E00E940F1581E090E0DF91CF91CE
:1011D0001F910F91FF90EF90DF90CF90BF90AF9055
:1011E00008957E01F3946E01ECE7CE1AEEEFDE0A6D
:1011F000F60100811181970144E052E06FEA73E04B
:101200008DEC91E00E94C214F60140815181B7013A
:10121000F501808191810E94C41DCE0145DE90E0E0
:1012200080E0D4CFEF92FF920F931F93CF93DF9381
:10123000FB0101900020E9F7EB019F0121503109EA
:1012400079018C0102571E4FCE15DF0529F06991F7
:10125000C8010E946115F8CF6DE0C8010E946115B8
:101260006AE0C801DF91CF911F910F91FF90EF903D
:101270000C9461154F925F926F927F928F929F9222
:10128000AF92BF92CF92DF92EF92FF920F931F9394
:10129000CF93DF93EC01CB016A01FE01E857FE4FCB
:1012A00020813181232B09F0AEC021E030E0318371
:1012B00020836AE070E00E94211C2B01770F6608F2
:1012C00077088AE0882E912CF12CE12C8E010257B0
:1012D0001E4F5E0180E8A81A8EEFB80AEC14FD04D8
:1012E00074F4C8010E94D615892B09F03DC0C301D2
:1012F000B2010E942118E1E08E1A910879F75E018F
:10130000F0E8AF1AFEEFBF0AD5010D911C919E01C6
:1013100042E152E06FE372E08DEC91E00E946414D0
:10132000F501808191818038910509F04AC0CE0194
:1013300099DD42E050E066E472E08DEC91E00E94BD
:101340000F1582E090E0DF91CF911F910F91FF90F8
:10135000EF90DF90CF90BF90AF909F908F907F9055
:101360006F905F904F900895C8010E94D615892B09
:1013700009F4C1CFD5018D919C918038910508F079
:10138000BACFEC14FD040CF0B6CFC8010E94401592
:10139000D501ED91FC9111979F012F5F3F4F2D9348
:1013A0003C93EC0FFD1F808322303105E8F28A3038
:1013B000D9F6319780818D30B9F6BFEFEB1AFB0A71
:1013C000D3CF892B69F4CE014DDD43E050E06DE4CD
:1013D00072E08DEC91E00E940F1583E090E0B3CFB6
:1013E00090E080E0CE14DF0409F4ADCFCE013ADD09
:1013F00044E050E064E572E08DEC91E00E940F154E
:1014000084E090E0A0CF81E090E09DCFCF92DF928A
:10141000EF92FF920F931F93CF93DF9300D000D0F2
:10142000CDB7DEB78C016B017A0142E050E0B90123
:1014300021DF0097E9F02AE0289F8001299F100D05
:1014400011240F5F1F4FA80162EF71E08DEC91E056
:101450000E940F15C8010F900F900F900F90DF9111
:10146000CF911F910F91FF90EF90DF90CF90089553
:10147000BE016D5F7F4FC801EEDD009761F02AE08D
:10148000289F8001299F100D11240E5F1F4FA80176
:101490006BEF71E0DBCF8B819C810E9425199A83D1
:1014A0008983BE016F5F7F4FC8014ADE0097B9F0A4
:1014B0002AE0289F8001299F100D11240D5F1F4FE6
:1014C000A80161E172E08DEC91E00E940F15898125
:1014D0009A81009709F4BECF0E942619BBCFC7019D
:1014E0000E9425197C01B6010E94BD1D4B815C81C3
:1014F000B70189819A810E94CD1D8C01892B51F001
:1015000044E050E069E172E08DEC91E00E940F153B
:1015100004E010E0E114F104D1F2C7010E942619A1
:10152000D6CF2F923F924F925F926F927F928F927F
:101530009F92AF92BF92CF92DF92EF92FF920F9362
:101540001F93CF93DF9300D000D0CDB7DEB76C01EF
:101550001B015A0149012701CA010E9425197C017A
:10156000C8010E9425193C01B101C7010E94BD1D9F
:10157000B401C3010E94BD1D860102571E4FC80160
:101580000E94D615892B21F0C8010E944015F7CF83
:10159000850197014EE152E062E871E08DEC91E047
:1015A0000E946414B701C6013DDE43E050E0B20181
:1015B000C60160DE009709F068C09E012F5F3F4FB3
:1015C000A501B701C6019FDC009709F055C08981CC
:1015D0009A810E9425199C838B83BE016D5F7F4F8A
:1015E000C601AEDD009799F02AE0289F8001299F6F
:1015F000100D11240E5F1F4F0115110589F0A80170
:1016000066EA71E08DEC91E00E940F150BC04981F4
:101610005A81B3018B819C810E94CD1D892BF1F5EC
:1016200010E000E0E114F10419F0C7010E9426194E
:101630006114710419F0C3010E9426198B819C81E9
:10164000009711F00E942619C8010F900F900F907B
:101650000F90DF91CF911F910F91FF90EF90DF904E
:10166000CF90BF90AF909F908F907F906F905F9042
:101670004F903F902F9008952AE0289F8001299F46
:10168000100D11240D5F1F4FB7CF2AE0289F800156
:10169000299F100D11240C5F1F4FAECF01E010E009
:1016A000AECFCF92DF92EF92FF920F931F93CF9323
:1016B000DF936C01FC01EA57FE4F80819181049712
:1016C000A1F041E050E06AE071E08DEC91E00E9411
:1016D0000F15C1E0D0E0CE01DF91CF911F910F91A6
:1016E000FF90EF90DF90CF90089598E8E92E93E176
:1016F000F92E02E010E022EA30E04CE050E06AE728
:1017000070E0C6010EDFEC01892B81F02AE02C9FEE
:10171000C0012D9F900D1124EC012296AE0162E1D3
:1017200071E08DEC91E00E940F15D5CF20E137E2FA
:1017300041E150E068E670E0C60168DE892BD9F42B
:1017400088E8E82E83E1F82E08E010E027E830E092
:101750004BE050E060E970E0C601E3DE009759F02D
:101760002AE0289FE001299FD00D11242396AE0185
:101770006CE171E0D6CF63E070E0C6014ADBABCF2D
:101780002F923F924F925F926F927F928F929F9291
:10179000AF92BF92CF92DF92EF92FF920F931F937F
:1017A000CF93DF93CDB7DEB72A970FB6F894DEBF9D
:1017B0000FBECDBF4C017E836D833A0138872F83E6
:1017C000280187011601BA86A986CA010E94251937
:1017D0007C01C2010E9425195C01C6010E942519E5
:1017E0006C016D817E81C7010E94BD1D6F8178856E
:1017F000C5010E94BD1DB801C6010E94BD1D840126
:1018000002571E4FC8010E94D615892B21F0C8012E
:101810000E944015F7CF830197014EE152E06FEB34
:1018200071E08DEC91E00E946414B701C401FADC10
:1018300043E050E069857A85C4011CDD892B59F0AD
:1018400092E0892E912CA40160EE71E08DEC91E084
:101850000E940F1525C09E012F5F3F4FA301B701C6
:10186000C40151DB009709F063C089819A810E940D
:1018700025199C838B83BE016D5F7F4FC40160DCA3
:10188000009709F43FC02AE0289F4001299F900C4F
:10189000112483E0880E911C82E0881691049CF646
:1018A000E114F10419F0C7010E942619A114B10432
:1018B00019F0C5010E942619C114D10419F0C601FE
:1018C0000E9426198B819C81009711F00E94261995
:1018D000C4012A960FB6F894DEBF0FBECDBFDF91CC
:1018E000CF911F910F91FF90EF90DF90CF90BF901D
:1018F000AF909F908F907F906F905F904F903F90B0
:101900002F9008950B811C81A201B801C5010E948E
:10191000CD1D4C01892B21F2A101B801C6010E9405
:10192000CD1D892B09F08CCF88248394912CB8CFBE
:101930002AE0289F4001299F900C112484E0880E02
:10194000911CAACF6F927F928F929F92AF92BF927B
:10195000CF92DF92EF92FF920F931F93CF93DF937B
:10196000CDB7DEB76F970FB6F894DEBF0FBECDBF11
:101970004C015C018AE7A81A8EEFB80AF5011182C2
:10198000108263E471E085EB94E00E94011A20E08C
:1019900048E067E0CE0101960E94F6166401F2E786
:1019A000CF1AFEEFDF0A8B819C81F601938382833D
:1019B0008D819E81AF81B88584839583A683B7830B
:1019C00089859A85AB85BC8580879187A287B387F7
:1019D0008D8584878E8585878F859889978786876B
:1019E0008989808B8A899B89928B818B8C899D893F
:1019F000948B838B8E89858B8F89988D978B868B23
:101A0000898D9A8D918F808F8B8D9C8D938F828FF6
:101A10008D8D9E8D958F848F9F8D868D90FB80F907
:101A200091FB81F9868FCE0101960E94A21640E6B5
:101A300059E060E070E0C6010E941F17A8E8EA2E96
:101A4000A3E1FA2E02E010E022EA30E042E050E0AA
:101A500063E872E0C40165DD892B21F461E070E088
:101A6000C401D7D9F8E36F2EF2E07F2EF501808113
:101A70009181019711F1F30141915191619171911E
:101A80003F01C6010E941F17E8E8EE2EE3E1FE2E9B
:101A900002E010E022EA30E042E050E063E872E069
:101AA000C4013FDD892B21F461E070E0C401B1D9AC
:101AB000F8E56F16F2E07F06C9F6F50180819181A5
:101AC00021E030E0019711F558E8A52E53E1B52E3D
:101AD0006EE0C62ED12C7EE5E72E72E0F72E0CE0EC
:101AE00010E02DE632E048E050E06AE772E0C40121
:101AF00047DE0097D1F181309105F1F04AE0489F2F
:101B00009001499F300D11242E5F3F4FC9016F9600
:101B10000FB6F894DEBF0FBECDBFDF91CF911F91FE
:101B20000F91FF90EF90DF90CF90BF90AF909F907C
:101B30008F907F906F90089548E8E42E43E1F42E53
:101B400002E010E022EA30E04CE050E061E572E0B3
:101B5000C401E7DC009749F04AE0489F9001499FA3
:101B6000300D11242D5F3F4FD1CF98E8A92E93E17E
:101B7000B92E29E0C22ED12C33E3E32E32E0F32E2E
:101B800009E010E02DE332E049E050E067E472E064
:101B9000C401F6DD009761F08130910511F14AE052
:101BA000489F9001499F300D11242C5F3F4FAECFCD
:101BB00088E8E82E83E1F82E02E010E022EA30E027
:101BC0004AE050E068E272E0C401ABDC009749F003
:101BD0004AE0489F9001499F300D11242B5F3F4FF1
:101BE00095CF62E070E0C40114D930E020E08ECFE0
:101BF0008F929F92AF92BF92CF92DF92EF92FF921D
:101C00000F931F93CF93DF934C01FC01EA57FE4FD4
:101C100080819181C1E0D0E0029709F5A8E8AA2E61
:101C2000A3E1BA2EB9E0CB2ED12CCAE0EC2EC2E053
:101C3000FC2E09E010E024E132E049E050E06EE1E2
:101C400072E0C4019DDD0097C1F08130910569F11A
:101C50002AE0289FE001299FD00D11242296CE0171
:101C6000DF91CF911F910F91FF90EF90DF90CF9078
:101C7000BF90AF909F908F900895F0E1EF2EF7E224
:101C8000FF2E02E010E022EA30E04AE050E06FEF81
:101C900071E0C40146DC009741F02AE0289FE00192
:101CA000299FD00D11242396DACF68E8A62E63E190
:101CB000B62E7BE0C72ED12CE7ECEE2EE1E0FE2E17
:101CC0000BE010E023ED31E04BE050E06FED71E010
:101CD000C40156DD009719F18130910541F02AE0E9
:101CE000289FE001299FD00D11242496B8CF58E8F1
:101CF000E52E53E1F52E02E010E022EA30E04CE060
:101D000050E06AEB71E0C4010CDC009741F02AE07E
:101D1000289FE001299FD00D11242596A0CF48E8E7
:101D2000E42E43E1F42E02E010E022EA30E048E243
:101D300050E061E971E0C401F4DBEC01892B49F06A
:101D40002AE02C9FC0012D9F900D1124EC012696B6
:101D500086CF38E8E32E33E1F32E05E010E02CE9DE
:101D600030E048E050E06BEE71E0C401DADB009750
:101D700061F08130910509F460C02AE0289FE001FC
:101D8000299FD00D112427966ACF28E8E22E23E15F
:101D9000F22E0DE010E025E731E04DE050E063E881
:101DA00071E0C401BEDB0097F1F08130910541F094
:101DB0002AE0289FE001299FD00D112428964FCFBB
:101DC00098E8E92E93E1F92E02E010E022EA30E0F3
:101DD0004EE050E066E671E0C401A3DBC9E0D0E06C
:101DE000892B09F43CCF88E8E82E83E1F82E02E045
:101DF00010E022EA30E044E250E06EE271E0C4011B
:101E000090DBCAE0D0E0892B09F029CF22EA30E04C
:101E100048E050E065E271E0C40183DBEC01892B0E
:101E200091F405E010E02CE930E048E050E06BEE82
:101E300071E0C40176DB019749F463E070E0C4010E
:101E40000E9409070CCFCBE0D0E009CFCCE0D0E076
:101E500006CF8F929F92AF92BF92CF92DF92EF9276
:101E6000FF920F931F93CF93DF934C01FC01EA572E
:101E7000FE4F80819181C1E0D0E00397C9F440E139
:101E8000E42E47E2F42E07E010E023E531E04AE0DB
:101E900050E06BE571E0C40144DBEC01892BB1F04B
:101EA0002AE02C9FC0012D9F900D1124EC01229659
:101EB000CE01DF91CF911F910F91FF90EF90DF90B6
:101EC000CF90BF90AF909F908F90089598E8A92EE3
:101ED00093E1B92E29E0C22ED12C3AE0E32E32E074
:101EE000F32E09E010E024E132E049E050E06EE139
:101EF00072E0C40145DC009719F18130910541F091
:101F00002AE0289FE001299FD00D11242396D0CFED
:101F100080E1E82E87E2F82E02E010E022EA30E0CD
:101F20004AE050E064EF71E0C401FBDA009741F051
:101F30002AE0289FE001299FD00D11242496B8CFD4
:101F400062E070E0C4010E940907B2CF8F929F92B5
:101F5000AF92BF92CF92DF92EF92FF920F931F93B7
:101F6000CF93DF934C01FC01EA57FE4F80819181B2
:101F7000C1E0D0E00397B9F450E1E52E57E2F52E29
:101F800007E010E023E531E04AE050E06BE571E066
:101F9000C401C7DA0097A9F02AE0289FE001299F31
:101FA000D00D11242296CE01DF91CF911F910F9178
:101FB000FF90EF90DF90CF90BF90AF909F908F9069
:101FC000089528E8A22E23E1B22E3AE0C32ED12CA8
:101FD00044E0E42E41E0F42E0AE010E02FE031E08E
:101FE0004AE050E06AE171E0C401CADB009719F1F0
:101FF0008130910541F02AE0289FE001299FD00D12
:1020000011242396D0CF98E8E92E93E1F92E02E02F
:1020100010E022EA30E04BE050E068EF70E0C401ED
:1020200080DA009741F02AE0289FE001299FD00D37
:1020300011242496B8CF88E8E82E83E1F82E02E038
:1020400010E022EA30E044E250E063ED70E0C401C9
:1020500068DA009741F02AE0289FE001299FD00D1F
:1020600011242596A0CF20E137E24AE050E068EC49
:1020700070E0C401CBD9EC01892B49F02AE02C9FF8
:10208000C0012D9F900D1124EC0126968CCF64E0A9
:1020900070E0C4010E94090786CF6F927F928F92F1
:1020A0009F92AF92BF92CF92DF92EF92FF920F93E7
:1020B0001F93CF93DF93EC01CB013A01FE01E85768
:1020C000FE4F20813181232BC1F041E050E060E6DA
:1020D00072E08DEC91E0A3D481E090E0DF91CF91AC
:1020E0001F910F91FF90EF90DF90CF90BF90AF9036
:1020F0009F908F907F906F900895DE01AA57BE4FFA
:102100002D913C912430310551F042E050E066E6DB
:1021100072E08DEC91E083D482E090E0DFCF21E0AB
:1021200030E0318320836AE070E00E94211C4B0183
:10213000770FAA08BB088AE0E82EF12C8E01005820
:102140001E4F6E0182E7C81A8EEFD80AF80180810F
:102150009181029758F4C60129D5892BC9F4C5018C
:10216000B4016FD7F1E0EF1AF10881F7F80180812F
:1021700091810297E1F043E050E068E772E08DEC76
:1021800091E04DD4CE010E94320783E090E0A6CFCB
:10219000C60176D4F80120813181A9014F5F5F4FDC
:1021A000518340832C0F3D1FF9018083DBCF888151
:1021B0009981982789279827F30191838083CE01FD
:1021C0000E94320790E080E089CF2F923F924F9299
:1021D0005F926F927F928F929F92AF92BF92CF92B7
:1021E000DF92EF92FF920F931F93CF93DF9300D074
:1021F00000D01F92CDB7DEB77C018B0188579E4F70
:102200009D838C83FC0180819181892B19F141E0B0
:1022100050E06EE872E08DEC91E001D4CC24C394E0
:10222000D12CC6010F900F900F900F900F90DF915F
:10223000CF911F910F91FF90EF90DF90CF90BF90C3
:10224000AF909F908F907F906F905F904F903F9056
:102250002F900895F701EA57FE4F808191810497EE
:1022600059F042E050E064E972E08DEC91E0D7D3A0
:1022700052E0C52ED12CD5CFAE014F5F5F4FC701C5
:102280000CDF6C01892B89F02AE02C9DC0012D9D6B
:10229000900D11246C01F3E0CF0ED11CA6016CE966
:1022A00072E08DEC91E0BBD3BCCF81E090E0EC819B
:1022B000FD8191838083C8016AE070E00E94211C47
:1022C0002B01770F660877084AE0A42EB12C1B82F9
:1022D000212C870102571E4F4701F0E88F1AFEEFAD
:1022E0009F0AC80163D4892B79F5C301B201A9D62D
:1022F000312C21E0A21AB10811F0332091F35701DB
:1023000040E8A41A4EEFB40AF5010081118197014B
:1023100049E252E062EC72E08DEC91E033D3F501DA
:10232000808191818038910509F05FC0C7010E94CA
:10233000320745E050E069EC72E08DEC91E06FD33C
:1023400025E0C22ED12C6DCF222009F1C80198D3EF
:102350008F3F910509F447C044E050E06BEA72E01A
:102360008DEC91E05CD3F701E058FE4F00811181C4
:10237000970146E852E06CEA72E08DEC91E002D3FE
:10238000C7010E94320734E0C32ED12C4ACFC801C6
:102390000DD44B81242F30E049815A81892BD9F00B
:1023A000F4018081918180389105A8F424173507C4
:1023B00090F4C80165D3F40120813181A9014F5FF8
:1023C0005F4F518340832E0D3F1DF9018083FB81B8
:1023D000FF5FFB83DCCF81E04217530709F080E009
:1023E000312C282E86CF322C84CF892B71F4C70153
:1023F0000E94320746E050E060ED72E08DEC91E023
:102400000ED396E0C92ED12C0CCF31100EC0C701CF
:102410000E94320747E050E067ED72E08DEC91E0FA
:10242000FED287E0C82ED12CFCCE81E090E0EC817A
:10243000FD8191838083F5CEAF92BF92CF92DF92E0
:10244000EF92FF920F931F93CF93DF93EC015B0109
:102450007C0184E7E81A8EEFF80AF7018081918108
:102460000197A9F441E050E06BE571E08DEC91E05B
:10247000D6D201E010E0C801DF91CF911F910F91FA
:10248000FF90EF90DF90CF90BF90AF90089560E104
:1024900077E2CE019ADE8C01892B81F02AE0209F21
:1024A000C001219F900D11248C010E5F1F4FA801C8
:1024B00063E671E08DEC91E0B2D2DDCF81E090E097
:1024C000F701918380836E01F0E8CF1AFEEFDF0AF7
:1024D000F60140815181BE01CE0193950E94C41D39
:1024E0007E01FCE7EF1AFEEFFF0AF6018081918181
:1024F000F70191838083CE010E943207F70180812A
:102500009181F50191838083B6CFCF92DF92EF92D4
:10251000FF920F931F93CF93DF93EC01FC01E857D9
:10252000FE4F80819181892B99F041E050E061E577
:1025300073E08DEC91E073D201E010E0C801DF910F
:10254000CF911F910F91FF90EF90DF90CF90089562
:102550000AE010E07E0182E7E81A8EEFF80A6E01C9
:10256000E0E8CE1AEEEFDE0AC70120D3892B09F08E
:102570003AC064EF71E080E090E063D5015011094A
:1025800099F7FE01E058FE4F008111819E0149E25A
:1025900052E062E673E08DEC91E0F4D180E190E0EE
:1025A00054D67C0168EB70E00E94BD1D40E150E014
:1025B000B701CE010E94CD1D8C01E114F10411F090
:1025C000C70144D6CE010E9432070115110509F456
:1025D000B5CF42E050E060E773E08DEC91E01FD2B0
:1025E00002E010E0ABCFC701E1D2892B09F4C6CFDE
:1025F000F60180819181409708F0C0CFC70140D299
:10260000F60120813181A9014F5F5F4F51834083E3
:102610002C0F3D1FF9018083E6CF8F929F92AF92DE
:10262000BF92CF92DF92EF92FF920F931F93CF93BF
:10263000DF937C014B015A01FC01EA57FE4F808178
:1026400091810497B9F041E050E06CE271E08DECCB
:1026500091E0E5D1C1E0D0E0CE01DF91CF911F91B3
:102660000F91FF90EF90DF90CF90BF90AF909F9031
:102670008F9008958AE090E0E8D56C016DEA70E0F3
:102680000E94BD1DB601C7010E941209C7013DDFAE
:10269000892B09F03AC08501940143E352E06CE3D1
:1026A00071E08DEC91E06ED1E401A80CB91C8701BA
:1026B00002571E4FAC16BD0621F06991C80101D228
:1026C000F9CF6AE1C801FDD120E137E247E050E0EF
:1026D00065EA70E0C7010E94060AEC01892B71F0DF
:1026E0002AE02C9FC0012D9F900D1124EC01239610
:1026F000AE0160E571E08DEC91E091D1C114D1049F
:1027000009F4AACFC601A2D5A7CFC2E0D0E0F0CF8E
:102710000F931F93CF93DF93EC0189017EDF009726
:1027200099F02AE0289FE001299FD00D11242196DD
:10273000AE0167E973E08DEC91E071D1CE01DF91DC
:10274000CF911F910F910895B801CE0175DEEC0174
:10275000892BA1F32AE02C9FC0012D9F900D1124FD
:10276000EC012296AE016FE973E0E5CFFC01A08198
:10277000B18184E991E88D939C93A081B18181E03E
:1027800012968C93A081B18113968C930190F08165
:10279000E02D148290E080E008956430710579F4B2
:1027A000FC0160817181828193810E94721CFA0117
:1027B000608371838283938390E080E0089581E059
:1027C00090E00895FC01A081B18184E991E88D93A6
:1027D0009C93A081B18181E012968C93A081B181FC
:1027E00082E013968C930190F081E02D148290E0AA
:1027F00080E00895AF92BF92CF92DF92EF92FF9266
:102800000F931F93CF93DF93CDB7DEB728970FB603
:10281000F894DEBF0FBECDBF5B0123E0B694A79452
:102820002A95E1F77C018A01D12CC12CAC14BD049E
:10283000A9F0B701CE01019622D088E0FE013196C1
:10284000D80101900D928A95E1F78FEFC81AD80A46
:1028500088E0E80EF11C085F1F4FE8CF28960FB6FE
:10286000F894DEBF0FBECDBFDF91CF911F910F91C6
:10287000FF90EF90DF90CF90BF90AF900895FC0154
:10288000DB0112964D915C911397542745275427ED
:1028900014962D913C9115973227232732271696AF
:1028A0008D919C9117979827892798276D917C91F6
:1028B0007627672776277183608353834283358326
:1028C0002483978386830895CF92DF92EF92FF92BD
:1028D0000F931F93CF93DF936B01EA017901BC0142
:1028E00085EB94E07DD563E171E085EB94E078D5EC
:1028F0004AE050E0B60185EB94E02FD6BE0185EBAF
:1029000094E06ED568E572E085EB94E069D5E70167
:102910000E0D1F1DC017D10741F1D880ED2C0D2CD5
:10292000000CFF08C7010E94B61D892BC9F480E383
:10293000E81AF1088AE0E816F10490F06DE572E01B
:1029400085EB94E04DD54AE050E0688185EB94E05A
:1029500020D66DE572E085EB94E042D52196DACF82
:102960006D2D85EB94E043D5F9CF6FE572E085EBF3
:1029700094E0DF91CF911F910F91FF90EF90DF9046
:10298000CF903FC5CF92DF92EF92FF920F931F93AC
:10299000CF93DF936B017A01D22FC32FBC0185EB5C
:1029A00094E01ED563E171E085EB94E019D54AE02F
:1029B00050E0B60185EB94E0D0D5B70185EB94E00B
:1029C0000FD568E572E085EB94E00AD5ED2EFC2E7C
:1029D000D0E0C0E0680181E0C81AD108C017D10773
:1029E00089F0F70161917F014AE050E085EB94E0C6
:1029F000D0D5CC15DD0520F460E285EB94E0F7D46A
:102A00002196ECCF6FE572E085EB94E0DF91CF91FA
:102A10001F910F91FF90EF90DF90CF90F2C4EF9253
:102A2000FF920F931F93CF93DF937C018B01EA01F9
:102A300061E672E085EB94E0D3D4B70185EB94E0D6
:102A4000CFD463E171E085EB94E0CAD44AE050E072
:102A5000B80185EB94E07BD56BE672E085EB94E002
:102A6000BFD44AE050E0BE0185EB94E0DF91CF9106
:102A70001F910F91FF90EF9070C590E080E0089556
:102A80002091AA043091AB0428173907B9F490912A
:102A9000680480916904981789F0E0916804F0E077
:102AA000E659FB4F80812091680430E02F5F3F4F53
:102AB0002F7333272093680490E008958FEF9FEFE2
:102AC0000895EF92FF920F931F93CF93DF93DC0152
:102AD0005C96ED90FC905D97E114F10479F481E04F
:102AE00090E013969C938E93129790E080E0DF9194
:102AF000CF911F910F91FF90EF9008955196ED9116
:102B0000FC91529750968C915097982F90950FB7B3
:102B10005E962C915E97122F127021FD6095F894AD
:102B20002081112319F1282B2083E7012197F1F748
:102B300028E0462F50E0308160FF1AC0382B3083E8
:102B4000E7012197F1F7BA0175956795215089F74B
:102B5000112381F08081892380830FBF5C968D9142
:102B60009C910197F1F781E090E0C1CF2923DCCF60
:102B70003923E5CF9081892BEFCF08952091AA04C6
:102B80003091AB042817390771F490916804809153
:102B90006904981741F0E0916804F0E0E659FB4FB2
:102BA000808190E008958FEF9FEF08952091AA040F
:102BB0003091AB042817390761F4809169042091A2
:102BC000680490E0805C9F4F821B910960E470E094
:102BD00038C690E080E00895E091AA04F091AB043B
:102BE000E817F90769F4A389B4899C9185898095D0
:102BF00089238C931092AB041092AA0481E008956B
:102C000080E00895CF93DF93EC018A8D9B8D892B13
:102C1000F9F08091AA049091AB048C179D07C1F044
:102C2000009709F0D9DF8E8D8E7F8E8F1092690408
:102C300010926804D093AB04C093AA04EB89FC897A
:102C400080819D89892B808381E0DF91CF910895D8
:102C500080E0FBCF1F920F920FB60F9211242F939B
:102C60003F934F935F936F937F938F939F93AF9314
:102C7000BF93EF93FF93E091AA04F091AB043097D8
:102C800049F0A685B7858585968D91FF14C09C91E6
:102C90008923A1F4FF91EF91BF91AF919F918F9103
:102CA0007F916F915F914F913F912F910F900FBE48
:102CB0000F901F9018959C91892361F7A389B4897F
:102CC0009C918589809589238C9386899789019722
:102CD000F1F7608D718DA685B785558538E020E0C8
:102CE000CB010197F1F7822F90E095958795282FDA
:102CF0004C91452309F02068315091F7868D81FD74
:102D000020958091690490E001968F739927309106
:102D10006804381799F0A0916904B0E0A659BB4F38
:102D20002C9380936904828D938D0197F1F7A38989
:102D3000B4898C919589892B8C93ACCF868D8160D9
:102D4000868FF1CF26E732E0FC013183208344CF28
:102D50001F93CF93DF93EC01162F6E8D66956170F4
:102D600081E06827812F43D261E0812F04D2812F37
:102D700090E0FC01E656FD4FE491E88BFC01E25542
:102D8000FD4FE491F0E0EE0FFF1FE453FD4F8591FE
:102D900094919A8B898BDF91CF911F9108951F9306
:102DA000CF93DF93EC01162F60E0812FE4D18E8D5D
:102DB00081FD03C061E0812F1AD21C87812F90E032
:102DC000FC01E656FD4FE491ED87FC01E255FD4F15
:102DD000E491F0E0EE0FFF1FEE53FD4F85919491CB
:102DE0009F878E87DF91CF911F9108951F93CF9377
:102DF000DF93EC01162F1B821A8288EE93E0A0E08D
:102E0000B0E08C839D83AE83BF8386E792E0998395
:102E100088831F8A1E8A198E188E1B8E1A8E1D8E0D
:102E20001C8E8E8D8E7F20FB81F98E8F642FCE01BC
:102E30008FDF612FCE01DF91CF911F91B0CFCF9364
:102E4000DF93EC019A01AB011B8E1A8E198E188E3E
:102E50001F8A1E8A60E079E08DE390E027D5F901B2
:102E6000C90103972430310510F481E090E09D8F73
:102E70008C8F6C85663108F052C0C9019695879594
:102E80008431910508F44FC043979F8B8E8BC90105
:102E90000597369710F481E090E0998F888FC901EB
:102EA000880F991F280F391F369527953695279536
:102EB0002D303105D8F12C5031093B8F2A8F90915C
:102EC000680084E0683048F021E06E3008F420E0CB
:102ED00081E001C0880F2A95EAF7892B809368006A
:102EE0009C852DE630E0983050F02BE630E09E30A7
:102EF00030F02CE630E0963110F030E020E03C8BF2
:102F00002B8B292F30E09830A0F481E001C0880F8E
:102F10009A95EAF78D8B8C8D9D8D0197F1F7CE01F7
:102F2000DF91CF916FCE81E090E0AFCF21E030E034
:102F3000C4CF9E3040F42850310981E001C0880F91
:102F40002A95EAF7E7CF2E503109F7CF1F920F925B
:102F50000FB60F9211242F933F938F939F93AF93AC
:102F6000BF938091AD049091AE04A091AF04B09155
:102F7000B0043091AC0423E0230F2D3758F50196AF
:102F8000A11DB11D2093AC048093AD049093AE04B9
:102F9000A093AF04B093B0048091B1049091B204B7
:102FA000A091B304B091B4040196A11DB11D80930A
:102FB000B1049093B204A093B304B093B404BF914E
:102FC000AF919F918F913F912F910F900FBE0F90D6
:102FD0001F90189526E8230F0296A11DB11DD2CF90
:102FE0002FB7F8946091AD047091AE048091AF0456
:102FF0009091B0042FBF08953FB7F8948091B10429
:103000009091B204A091B304B091B40426B5A89BEA
:1030100005C02F3F19F00196A11DB11D3FBFBA2F6A
:10302000A92F982F8827BC01CD01620F711D811D2A
:10303000911D42E0660F771F881F991F4A95D1F7AF
:1030400008958F929F92AF92BF92CF92DF92EF92AC
:10305000FF926B017C01D0DF4B015C01C114D104F4
:10306000E104F104D9F0F0D0C7DF681979098A09C1
:103070009B09683E73408105910580F321E0C21AE7
:10308000D108E108F10888EE880E83E0981EA11CA3
:10309000B11CC114D104E104F10431F7FF90EF90A9
:1030A000DF90CF90BF90AF909F908F9008957894CD
:1030B00084B5826084BD84B5816084BD85B582603D
:1030C00085BD85B5816085BDEEE6F0E080818160DB
:1030D0008083E1E8F0E010828081826080838081DB
:1030E00081608083E0E8F0E0808181608083E1EBB3
:1030F000F0E0808184608083E0EBF0E0808181609B
:103100008083EAE7F0E08081846080838081826050
:103110008083808181608083808180688083109239
:10312000C1000895833081F028F4813099F0823015
:10313000A9F008958730A9F08830C9F08430B1F43F
:10314000809180008F7D03C0809180008F77809375
:103150008000089584B58F7784BD089584B58F7DF0
:10316000FBCF8091B0008F778093B000089580915D
:10317000B0008F7DF9CFCF93DF9390E0FC01E6564E
:10318000FD4F249182559D4FFC0184918823C9F005
:1031900090E0880F991FFC01EA52FD4FA591B49170
:1031A000FC01E453FD4FC591D49161110DC09FB74F
:1031B000F8948C91209582238C93888128232883EE
:1031C0009FBFDF91CF910895623051F49FB7F8947B
:1031D0003C91822F809583238C93E8812E2BEFCF17
:1031E0008FB7F894EC912E2B2C938FBFEACF1F93BF
:1031F000CF93DF93162F282F30E0F901EA57FD4FC8
:103200008491F901E656FD4FD491F901E255FD4F45
:10321000C491CC2399F0811185DFEC2FF0E0EE0F03
:10322000FF1FE453FD4FA591B4918FB7F894EC9133
:10323000111108C0D095DE23DC938FBFDF91CF91B1
:103240001F910895DE2BF8CF08956DC304C41F921B
:103250000F920FB60F9211242F938F939F93EF939A
:10326000FF93E091C504F091C6048081E091CB0406
:10327000F091CC0482FD1BC090818091CE048F5FC1
:103280008F732091CF04821741F0E091CE04F0E0DB
:10329000EB54FB4F958F8093CE04FF91EF919F915C
:1032A0008F912F910F900FBE0F901F9018958081D6
:1032B000F4CF1F920F920FB60F9211242F933F93CA
:1032C0004F935F936F937F938F939F93AF93BF932E
:1032D000EF93FF9385EB94E0CED1FF91EF91BF91F7
:1032E000AF919F918F917F916F915F914F913F919E
:1032F0002F910F900FBE0F901F90189585EB94E0C3
:1033000070D121E0892B09F420E0822F0895E5EBAC
:10331000F4E01382128288EE93E0A0E0B0E08483B0
:103320009583A683B7838BE892E09183808385ECB5
:1033300090E09587848784EC90E09787868780EC7F
:1033400090E0918B808B81EC90E0938B828B82EC70
:1033500090E0958B848B86EC90E0978B868B118E1A
:10336000128E138E148E0895AF92BF92CF92DF9279
:10337000EF92FF920F931F93CF93DF936C017B012A
:103380008B01040F151FEB015E01AE18BF08C017BB
:10339000D10759F06991D601ED91FC910190F0812E
:1033A000E02DC6010995892B79F7C501DF91CF91F1
:1033B0001F910F91FF90EF90DF90CF90BF90AF9053
:1033C0000895FB0101900020E9F73197AF01461BFA
:1033D000570BDC01ED91FC910280F381E02D099403
:1033E0006115710509F0EDCF90E080E00895DC01F2
:1033F000ED91FC910190F081E02D099464E872E078
:10340000E0CF0F931F93CF93DF938C01D0E0C0E008
:103410006115710511F0D5DFEC01C801EFDF8C0FEC
:103420009D1FDF91CF911F910F9108958F929F92D1
:10343000AF92BF92EF92FF920F931F93CF93DF93C0
:10344000CDB7DEB7A1970FB6F894DEBF0FBECDBFE4
:103450007C01FA01CB0119A2223008F42AE08E0186
:103460000F5D1F4F822E912CB12CA12CBF01A50105
:103470009401FAD1F901CA016A3004F5605DD801FE
:103480006E938D01232B242B252B81F790E080E078
:10349000109719F0BD01C70194DFA1960FB6F894FB
:1034A000DEBF0FBECDBFDF91CF911F910F91FF9077
:1034B000EF90BF90AF909F908F900895695CDFCFA1
:1034C000CF92DF92EF92FF920F931F93CF93DF93F0
:1034D000EC016A017B012115310579F4E881F9815C
:1034E0000190F081E02D642FDF91CF911F910F911A
:1034F000FF90EF90DF90CF9009942A303105D9F4F6
:103500002AE0F7FE18C06DE272DF8C0144275527D0
:10351000BA014C195D096E097F092AE0CE0186DFE8
:10352000800F911FDF91CF911F910F91FF90EF902E
:10353000DF90CF900895B701A601CE01DF91CF9122
:103540001F910F91FF90EF90DF90CF906FCF9A0176
:10355000AB01770F660B770BB3CF0F931F93CF930E
:10356000DF93EC01F4DF8C01CE0148DF800F911F67
:10357000DF91CF911F910F9108952115310541F4ED
:10358000DC01ED91FC910190F081E02D642F099414
:103590004DCF9A01462F50E070E060E0EECF9A01E7
:1035A000AB0170E060E0E9CF0F931F93CF93DF93FF
:1035B000EC01F5DF8C01CE0121DF800F911FDF913F
:1035C000CF911F910F910895089571DDFDDF0E9445
:1035D0004303CEE2DBE10E949C012097E1F33ED061
:1035E000FACFFC01918D228D892F90E0805C9F4F56
:1035F000821B91098F7399270895FC01918D828D0B
:10360000981731F0828DE80FF11D858D90E00895B7
:103610008FEF9FEF0895FC01918D828D981761F0D7
:10362000A28DAE0FBF2FB11D5D968C91928D9F5FC5
:103630009F73928F90E008958FEF9FEF0895FC01A4
:10364000538D448D252F30E0842F90E0821B930B07
:10365000541710F0CF960895019708958EE799E1D9
:10366000892B41F080E090E0892B21F047DE811129
:103670000C9400000895FC01A48DA80FB92FB11D72
:10368000A35ABF4F2C91848D90E001968F73992798
:10369000848FA689B7892C93A089B1898C91806485
:1036A0008C93938D848D981306C00288F389E02D46
:1036B00080818F7D80830895CF93DF93EC01888D87
:1036C0008823B1F0AA89BB89E889F9898C9185FDA5
:1036D00003C0808186FD0CC00FB607FCF7CF8C912C
:1036E00085FFF2CF808185FFEDCFCE01C4DFEACF29
:1036F000DF91CF910895EF92FF920F931F93CF9395
:10370000DF93EC01F62E81E0888F9B8D8C8D9813D2
:1037100016C0E889F989808185FF11C0EE89FF898B
:103720006083E889F98980818064808381E090E00A
:10373000DF91CF911F910F91FF90EF9008950B8D26
:1037400010E00F5F1F4F0F731127E02E8C8D8E112D
:103750000BC00FB607FCFACFE889F989808185FF95
:10376000F5CFCE0188DFF2CFEB8DEC0FFD2FF11DF1
:10377000E35AFF4FF0820B8FEA89FB8980818062D8
:10378000D4CFCF92DF92EF92FF921F93CF93DF932C
:10379000EC016A017B01122FE889F98982E08083BC
:1037A000C11481EED806E104F10499F060E079E0FB
:1037B0008DE390E0A701960157D0215031094109CE
:1037C00051095695479537952795211580E138077A
:1037D00090F0E889F989108260E874E88EE190E061
:1037E000A701960141D0215031094109510956954F
:1037F000479537952795EC85FD853083EE85FF85C8
:103800002083188EEC89FD891083EA89FB898081E9
:1038100080618083EA89FB89808188608083EA896E
:10382000FB89808180688083EA89FB8980818F7D24
:103830008083DF91CF911F91FF90EF90DF90CF9029
:10384000089597FB072E16F4009406D077FD08D054
:1038500050D007FC05D03EF4909581959F4F089578
:10386000709561957F4F0895A1E21A2EAA1BBB1B8C
:10387000FD010DC0AA1FBB1FEE1FFF1FA217B3073C
:10388000E407F50720F0A21BB30BE40BF50B661F52
:10389000771F881F991F1A9469F760957095809516
:1038A00090959B01AC01BD01CF010895052E97FBBA
:1038B00016F400940FD057FD05D0D6DF07FC02D0D8
:1038C00046F408C050954095309521953F4F4F4F95
:1038D0005F4F089590958095709561957F4F8F4FBC
:1038E0009F4F089569279627692778278727782784
:1038F0000895AA1BBB1B51E107C0AA1FBB1FA61737
:10390000B70710F0A61BB70B881F991F5A95A9F788
:1039100080959095BC01CD010895EE0FFF1F059095
:10392000F491E02D09940F931F93CF93DF9382308E
:10393000910510F482E090E0E0915405F091550576
:1039400020E030E0A0E0B0E0309719F140815181F3
:103950000281138148175907C8F08417950769F445
:10396000109731F012960C93129713961C9327C060
:10397000009354051093550522C02115310519F007
:103980004217530718F49A01BD01EF01DF01F80156
:10399000DBCF21153105F9F0281B390B2430310517
:1039A00080F48A819B816115710521F0FB0193836D
:1039B000828304C09093550580935405FE0132968E
:1039C00044C0FE01E20FF31F81939193225031090D
:1039D000398328833AC02091520530915305232B17
:1039E00041F420910201309103013093530520935B
:1039F000520520910001309101012115310541F45A
:103A00002DB73EB74091040150910501241B350BA1
:103A1000E0915205F0915305E217F307A0F42E1B35
:103A20003F0B2817390778F0AC014E5F5F4F241722
:103A3000350748F04E0F5F1F5093530540935205D2
:103A40008193919302C0E0E0F0E0CF01DF91CF914C
:103A50001F910F910895CF93DF93009709F481C0D0
:103A6000FC01329713821282A0915405B091550542
:103A7000109781F420813181820F931F209152058C
:103A8000309153052817390751F5F0935305E0930A
:103A9000520567C0ED0120E030E0CE17DF0740F4AB
:103AA0004A815B819E0141155105F1F0EA01F5CF94
:103AB000D383C28340815181840F951FC817D907D2
:103AC00059F488819981840F951F02969183808390
:103AD0008A819B81938382832115310529F4F09398
:103AE0005505E09354053DC0E901FB83EA83499104
:103AF0005991C40FD51FEC17FD0761F480819181A6
:103B0000840F951F0296E9019983888382819381AE
:103B10009B838A83E0E0F0E012968D919C9113974D
:103B2000009719F0FD01DC01F7CF8D919C91119761
:103B30009D012E5F3F4F820F931F209152053091C0
:103B400053052817390769F4309729F41092550561
:103B50001092540502C013821282B0935305A093B1
:103B60005205DF91CF91089585FD34C08062911197
:103B700031C081568A51E0F70895FB01DC010590C0
:103B80000D920020E1F70895FB01DC0102C00190D5
:103B90000D9241505040D8F70895FB01DC0141508F
:103BA000504030F08D910190801919F40020B9F740
:103BB000881B990B0895FB01DC014150504048F0EF
:103BC00001900D920020C9F701C01D924150504054
:103BD000E0F7089599278827089511E0C2E7D1E01A
:103BE00003C0FE019ADE2196C337D107D1F7F894BE
:023BF000FFCF05
:103BF2000000560520002C010000626264612E6301
:103C02007070003A0047534D20536869656C642018
:103C1200696E6974002A2A5343484544554C4553FA
:103C2200205345542A2A001F1C1F1E1F1E1F1F1E21
:103C32001F1E1F44423A2047534D5F53544154457F
:103C42003D47534D5F4F46465F53544154450044F0
:103C5200423A2047534D5F53544154453D47534DDB
:103C62005F4F4E5F53544154450044423A204753FC
:103C72004D5F53544154453D47534D5F50494E5F4C
:103C820053544154450044423A2047534D5F5354E4
:103C92004154453D47534D5F49505F53544154454C
:103CA2000044423A2047534D5F53544154453D47E7
:103CB200534D5F5443505F5354415445002F686F36
:103CC2006D652F6A6C722F446F63756D656E7473C8
:103CD2002F6262642F61726475696E6F2F6C696204
:103CE2002F67736D4172642F67736D5F6172642E0B
:103CF20063707000534F434B45542042554646452E
:103D02005200524543565F42554646455200434D86
:103D1200445F42554646455200524543565F42551E
:103D22004646004441544100B004000060090000CE
:103D3200C012000080250000004B00000096000029
:103D420000E1000000C20100203A205B005C005D3F
:103D5200004552524F5220696E200020636F646505
:103D62002000000000006115B4193D15BD15D615DF
:103D72004015BE150D0A00000000007B1BB4191F80
:0A3D82001B5C1BF11A0B1BFD1A005D
:00000001FF
