:100000004DC1000073C1000071C100000C94451186
:100010000C9445110C94451169C1000067C10000A2
:1000200065C1000063C1000061C100005FC1000044
:100030005DC100005BC1000059C1000057C1000054
:100040000C94D11253C100000C9451140C948314DD
:100050004DC100004BC1000049C1000047C1000074
:1000600045C1000043C10000434C4F5345204F4B56
:100070000041542B434950434C4F53450045525285
:100080004F52004F4B0053454E44204F4B003E0013
:1000900041542B43495053454E4400434F4E4E4527
:1000A0004354204F4B0041542B4349505354415229
:1000B000543D22544350222C223137382E36322ED2
:1000C000362E3434222C373737370041542B4349EE
:1000D000504D55583D30002B4349504D55583A200E
:1000E00031002B4349504D55583A20300041542B94
:1000F0004349504D55583F0041542B4349494352C1
:100100000041542B435354543D22696E7465726E02
:1001100065742E766F6461666F6E652E7074222C26
:1001200022222C22220041542B434950534552563F
:1001300045523D30002B4349505345525645523AA3
:1001400020300041542B4349505345525645523FAD
:100150000041542B434744434F4E543D312C2249D8
:1001600050222C22696E7465726E65742E766F64EF
:1001700061666F6E652E7074220041542B434950A6
:100180004D4F44453D30002B4349504D4F44453A77
:100190002031002B4349504D4F44453A2030004117
:1001A000542B4349504D4F44453F0041542B434944
:1001B0004653520041542B43474154543D31002B88
:1001C00043474154543A2031002B43474154543A59
:1001D00020300041542B43474154543F0041542B9D
:1001E00043495552433D30002B43495552433A2031
:1001F00030002B43495552433A20310041542B43A0
:10020000495552433F0041542B4350494E3D3030F5
:100210003438002B4350494E3A2053494D20504921
:100220004E002B4350494E3A20524541445900411B
:10023000542B4350494E3F00415400000000080039
:10024000020100000304070000000000000000019C
:10025000020408102040800102040810200102045A
:10026000081020040404040404040402020202022C
:1002700002030303030303000000002300260029F8
:100280000000000000250028002B000000000024D2
:100290000027002A0000DA03B114DD0311241FBE79
:1002A000CFEFD8E0DEBFCDBF12E0A0E0B1E0E6EBDB
:1002B000F1E302C005900D92A83BB107D9F725E004
:1002C000A8EBB2E001C01D92AF36B207E1F711E032
:1002D000CDE4D1E004C02197FE010E948417CB3405
:1002E000D107C9F70E94F1150C94CF1889CE089553
:1002F000EF92FF920F931F93CF93DF9300D000D024
:1003000000D0CDB7DEB789EB92E0AFD5049721F4EA
:100310008091B802811141C001E010E05BC08D8185
:100320009E810E94EF159A838983BE016F5F7F4F84
:1003300089EB92E0A0D58C01892B19F0005C134663
:1003400049C06AE071E08EEC94E00E941C15E12C3B
:10035000F12C8D819E81E816F906B8F4E981FA81C5
:10036000EE0DFF1D6081062E000C770B4AE050E079
:100370008EEC94E00E94EA1560E28EEC94E00E941C
:100380001D158FEFE81AF80AE4CF8EEC94E00E9476
:10039000241520C002E010E01DC089E090E00E941A
:1003A000EF159C838B83CE0103960E944010892B0E
:1003B00089F76B817C819E012B5F3F4F49E050E0C4
:1003C00089EB92E00E940B10009709F4A8CF8C01F2
:1003D000005D1A48C80126960FB6F894DEBF0FBE1E
:1003E000CDBFDF91CF911F910F91FF90EF900895B6
:1003F000CF93DF93EC0164E171E08EEC94E00E9416
:100400001C15CA30D1052CF460E38EEC94E00E94F8
:100410001D154AE050E0BE018EEC94E0DF91CF91D3
:100420000C94C815A3D34AE050E0BC018EEC94E0D4
:100430000E94C815A1D3DCDFA5D3DADF6CE471E03C
:100440008EEC94E00E941C15A3D34AE050E0BC015E
:100450008EEC94E00E94C8156CE471E08EEC94E0A0
:100460000E941C159BD34AE050E0BC018EEC94E046
:100470000E94C8156CE471E08EEC94E00E941C159B
:1004800093D34AE050E0BC018EEC94E00E94C81582
:100490008EEC94E00C942415EF92FF921F93CF936F
:1004A000DF93CDB7DEB7CD5AD1400FB6F894DEBF9B
:1004B0000FBECDBF26E040E855E260E070E08EEC74
:1004C00094E00E94C016CE010196A7D3FE0131969A
:1004D000A9EBB2E081918D9383E0A933B807D1F7FE
:1004E000DE01AF57BF4FE9E3F3E08D91819383E0E5
:1004F000E93BF807D1F7DE01AF5FBE4FE9EBF3E070
:100500008D91819384E0E933F807D1F7CF57DE4F1F
:1005100088819981C158D14090933A0480933904DD
:10052000CD57DE4F88819981C358D14090933C04C8
:1005300080933B04CB57DE4F88819981C558D140C9
:1005400090933E0480933D04C957DE4F8881998182
:10055000C758D1409093400480933F04C757DE4F63
:1005600088819981C958D140909342048093410475
:10057000C557DE4F88819981CB58D1409093440470
:1005800080934304C357DE4F88819981CD58D14071
:100590009093460480934504CF56DE4F888199811D
:1005A000C159D14090934A0480934904CD56DE4FFF
:1005B00088819981AA81BB81C359D14080934B0422
:1005C00090934C04A0934D04B0934E04C956DE4F53
:1005D00088819981AA81BB81C759D14080934F04FA
:1005E00090935004A0935104B0935204C556DE4F2B
:1005F0008881CB59D14080935304C456DE4F888103
:10060000CC59D14080935404C356DE4F88819981E0
:10061000CD59D1409093560480935504C156DE4F76
:100620008881CF59D14080935704C056DE4F8881CE
:100630009981C05AD1409093590480935804CE5563
:10064000DE4F88819981C25AD14090935B04809398
:100650005A04CC55DE4F8881C45AD14080935C0443
:10066000CB55DE4F88819981C55AD14090935E0465
:1006700080935D04C955DE4F88819981C75AD14066
:100680009093600480935F04C755DE4F8881998101
:10069000C95AD1409093620480936104C555DE4FDE
:1006A00088819981CB5AD1409093640480936304EC
:1006B000C355DE4F9881CD5AD1408091650490FB9F
:1006C00080F99695917090FB81F980936504CE0135
:1006D00081579E4F0E94B91166E171E08EEC94E063
:1006E0000E94271589EB92E00E94450C7C01892B22
:1006F00079F511E089EB92E0EAD67C01892B09F0CB
:1007000056C01093B802F4DD7C01892B69F06EE4C9
:1007100071E08EEC94E00E941C154AE050E0B701B5
:100720008EEC94E00E94CE1589EB92E03FD27C01E2
:10073000892B11F160E671E08EEC94E00E941C15AB
:100740004AE050E0B7018EEC94E00E94CE151DC047
:1007500066E271E08EEC94E00E941C154AE050E0E5
:10076000B7018EEC94E00E94CE1560E177E280E064
:1007700090E00E944C13B6CF65E771E08EEC94E0F8
:100780000E9427154FDE1093B8028091B80288238B
:1007900009F4B0CFC355DE4F0FB6F894DEBF0FBEDD
:1007A000CDBFDF91CF911F91FF90EF9008956BE740
:1007B00071E0C2CF89EB92E030C287E494E00C9400
:1007C000B9116F927F928F929F92AF92BF92CF9208
:1007D000DF92EF92FF920F931F93CF93DF936B0102
:1007E0007C01EA018CE3882E912CA12CB12CC7014D
:1007F000B601A50194010E9432176883CA01B901AC
:10080000A50194010E9432176983C701B60120E156
:100810003EE040E050E00E943217CA01B90128E1F1
:1008200030E040E050E00E9432176A83C701B60111
:1008300020E831E541E050E00E94321769017A0179
:10084000CA01B9016C5F7F4F8F4F9F4F27E030E0A7
:1008500040E050E00E9432176F5F6B83812C912C37
:10086000540140E094E6692E712C00E911E0242F38
:1008700030E02E54384FF901E370FF273097F9F438
:10088000C901B3010E941F17892B31F4C901B801B6
:100890000E941F17892B99F48EE691E0A0E0B0E04A
:1008A000880E991EAA1EBB1ED501C401AA27BB270C
:1008B000C816D906EA06FB0638F04F5FD8CF8DE69A
:1008C00091E0A0E0B0E0ECCF4E83309709F04CC04F
:1008D000C90164E670E00E941F17892B39F4C90131
:1008E00060E971E00E941F17892BF1F58EE691E017
:1008F000A0E0B0E0881A990AAA0ABB0AC818D90869
:10090000EA08FB08C90164E670E00E941F178C0129
:10091000C90160E971E00E941F17A9E9B1E020E078
:100920004C9150E060E070E01196C416D506E606E2
:10093000F70638F0C41AD50AE60AF70A2F5F2C30FA
:10094000C1F42F5F2D83C394CC82DF91CF911F918F
:100950000F91FF90EF90DF90CF90BF90AF909F905E
:100960008F907F906F9008958DE691E0A0E0B0E0C9
:10097000C1CF2130A9F6309739F40115110511F4D2
:10098000009711F44DE1CDCF4CE1CBCFCF92DF9268
:10099000EF92FF926B017C01809176049091770435
:1009A000A0917804B09179048C159D05AE05BF0522
:1009B00069F04AE754E0C701B60103DFC09276044C
:1009C000D0927704E0927804F0927904FF90EF904F
:1009D000DF90CF900895DADF8091800490E08E540C
:1009E000984F08950F931F9360937204709373044C
:1009F000809374049093750400910601109107018F
:100A00002091080130910901DC01CB01800F911F79
:100A1000A21FB31F80936A0490936B04A0936C048D
:100A2000B0936D0482E090E0909369048093680431
:100A30000E941B1360936E0470936F048093700484
:100A4000909371041F910F910895CF92DF92EF92CE
:100A5000FF920F931F930E941B13C0906E04D090BF
:100A60006F04E0907004F09071048B019C010C19EC
:100A70001D092E093F098091720490917304A09181
:100A80007404B0917504083E134021053105D0F07F
:100A90000196A11DB11D8093720490937304A093DD
:100AA0007404B0937504B701A60148515C4F6F4FB1
:100AB0007F4F40936E0450936F0460937004709363
:100AC0007104C9CF40916A0450916B0460916C0429
:100AD00070916D0484179507A607B70768F0E09139
:100AE0006604F0916704309739F009956115710536
:100AF0008105910581F076DF609172047091730435
:100B000080917404909175041F910F91FF90EF9064
:100B1000DF90CF9008958091720490917304A0911A
:100B20007404B091750440910601509107016091E1
:100B3000080170910901840F951FA61FB71F8093AC
:100B40006A0490936B04A0936C04B0936D0481E0ED
:100B500090E02091680430916904232B11F480E027
:100B600090E09093690480936804C6CF6EDF0EDF37
:100B700080917C0490E0089568DF08DF80917B0419
:100B800090E0089562DF02DF80917A0490E008959A
:100B90005CDFFCDE80917E0490E0089556DFF6DE97
:100BA00080917F0490E0089550DF15CF81E090E0C0
:100BB0000895FC01E058FE4F1182108220E8FC01EC
:100BC00011922A95E9F788579E4FFC0111821082F5
:100BD0000895FC01EE57FE4F11821082E250F14061
:100BE00020E8DF011D922A95E9F786579E4FFC0108
:100BF000118210820895FC01EC57FE4F1182108281
:100C0000E458F10920E8DF011D922A95E9F784579D
:100C10009E4FFC01118210820895CF93DF93EC0167
:100C200020E048E067E082579E4F0E940D12FE01CF
:100C3000EA57FE4F11821082CE01BBDFCE01C9DF21
:100C4000CE01D9DF65EA71E08EEC94E0DF91CF91BF
:100C50000C942715EF92FF920F931F93CF93DF937E
:100C6000EC018901DC01A657BE4F8D919C91119733
:100C7000892B09F06BC0FE01E857FE4F80819181FE
:100C8000019709F063C07B019E0180E090E0481766
:100C9000590751F0F70171917F01F90161919F01AD
:100CA000761357C00196F3CFFE01E40FF51F808144
:100CB0008D3009F051C081818A3009F04DC08281A8
:100CC0008D3009F049C083818A3009F045C04C5FFE
:100CD0005F4FFE01E40FF51FBF019F012C1B3D0B71
:100CE00081918D3079F5FE01E058FE4F8081918130
:100CF00002978217930799F5C901841B950BAC01E4
:100D00007E019EE7E91A9EEFF90AF70151834083BD
:100D100081E090E08D939C93CE0180589F4F0E947C
:100D2000C018CE0146DFF70180819181F8019183DF
:100D3000808380E090E0DF91CF911F910F91FF9031
:100D4000EF90089580818A3041F6CDCF81E090E028
:100D5000F2CF82E090E0EFCF83E090E0ECCF84E050
:100D600090E0E9CFEF92FF920F931F93CF93DF9321
:100D7000EC018B01DC01A657BE4F8D919C91119720
:100D8000892B09F049C0FE01E857FE4F808191810F
:100D9000019709F041C088818D3009F040C08981F8
:100DA0008A30E9F5E658F140BF01AF014C1B5D0BFD
:100DB00081918D3069F5FE01E058FE4F808191816F
:100DC00002978417950771F5425051097E018EE70D
:100DD000E81A8EEFF80AF7015183408381E090E032
:100DE0008D939C93CE0180589F4F0E94C018CE01D6
:100DF000E0DEF70180819181F8019183808380E0BA
:100E000090E0DF91CF911F910F91FF90EF900895A7
:100E100080818A3051F6CFCF81E090E0F2CF82E03E
:100E200090E0EFCF83E090E0ECCFCF93DF93EC0145
:100E3000FB01DC01A657BE4F8D919C911197019744
:100E400089F418974D915C91BE0160587F4F808165
:100E500091810E94C018CE01BCDE80E090E0DF915D
:100E6000CF91089581E090E0FACF8A579E4FFC0120
:100E7000808191810895CF93DF93EC01FB01DC0128
:100E8000A457BE4F8D919C911197019781F41897AB
:100E90004D915C91BE017395808191810E94C01833
:100EA000CE01A9DE80E090E0DF91CF91089581E04E
:100EB00090E0FACF2F923F924F925F926F927F9283
:100EC0008F929F92AF92BF92CF92DF92EF92FF925A
:100ED0000F931F93CF93DF9300D000D0CDB7DEB731
:100EE0009C838B83CB017A012B813C8128573E4F19
:100EF0003A832983F90120813181232B09F0CEC067
:100F00006AE070E00E941F172B01770F66087708D0
:100F10008AE0882E912C00E010E0CB80DC80F2E7A4
:100F2000CF1AFEEFDF0AAB80BC8020E8A21A2EEFBA
:100F3000B20A0E151F0574F4C6010E94F110892B28
:100F400009F044C0C301B2010E944C13F1E08F1AB2
:100F5000910879F768EC71E08EEC94E00E941C1522
:100F6000AB80BC80650120E8C21A2EEFD20AF601E0
:100F700020813181C5014B815C81841B950B8217D7
:100F8000930708F049C0F50161915F01062E000C3E
:100F9000770B4AE050E08EEC94E00E94EA156CE496
:100FA00071E08EEC94E00E941C15E1CF2B813C8116
:100FB000820F931FFC01319720812A3039F4029768
:100FC000FC0180818D3011F40F5F1F4FC6010E941C
:100FD000F110892B09F4BACFF50120803180F0E8B7
:100FE0002F16310408F0B2CF0E151F050CF0AECF4E
:100FF000C1010196F50191838083C6010E945710BB
:10100000EB81FC81E20DF31D8083F50180819181EC
:101010008230910558F6DACF61EC71E08EEC94E005
:101020000E942715F6018081918180389105E1F4B5
:101030008B819C81BEDD82E090E00F900F900F903D
:101040000F90DF91CF911F910F91FF90EF90DF9064
:10105000CF90BF90AF909F908F907F906F905F9058
:101060004F903F902F900895892B31F48B819C8174
:10107000A0DD83E090E0E1CFE016F10631F08B8156
:101080009C8197DD84E090E0D8CF81E090E0E98119
:10109000FA819183808380E090E0CFCF81E090E07F
:1010A000CCCFAF92BF92CF92DF92EF92FF920F938D
:1010B0001F93CF93DF93EC015B017C0184E7E81A77
:1010C0008EEFF80AF701808191810197D1F141E01B
:1010D00050E060E177E2CE01EDDE8C01892BA1F5D5
:1010E00081E090E0F701918380836E01F0E8CF1AF0
:1010F000FEEFDF0AF60140815181BE01CE019395DA
:101100000E94C0187E01FCE7EF1AFEEFFF0AF6010D
:1011100080819181F70191838083CE014ADDF701BF
:1011200080819181F50191838083C801DF91CF9106
:101130001F910F91FF90EF90DF90CF90BF90AF90F5
:10114000089501E010E0F1CF02E010E0EECF2F9221
:101150003F924F925F926F927F928F929F92AF9247
:10116000BF92CF92DF92EF92FF920F931F93CF9394
:10117000DF9300D000D000D0CDB7DEB79E838D8343
:10118000CB012D803E8028E7221A2EEF320AF10192
:1011900020813181232B09F0C9C0ED81FE81EA57FE
:1011A000FE4F208131812530310509F08CC06AE085
:1011B00070E00E941F172B01770F660877088AE0FE
:1011C000A82EB12CE12CF12CC12CD12C1A82812C0F
:1011D0000D811E8102571E4F4D815E8140585E4F2A
:1011E0005C834B83C801FDD7892BA9F5C301B201EC
:1011F0000E944C13912C21E0A21AB10811F0992001
:1012000089F363EC71E08EEC94E00E941C15ED8094
:10121000FE80870100581E4FF80120813181C701EF
:101220004D815E81841B950B8217930708F03CC0AB
:10123000F70161917F01062E000C770B4AE050E028
:101240008EEC94E00E94EA156CE471E08EEC94E080
:101250000E941C15E1CF882039F0C80128D78F3FA4
:101260009105C9F5982CC7CF5A81511103C0C80107
:101270001ED76C01C801B5D7892B61F0EB81FC81C9
:1012800080809180F0E88F16910420F4EC14FD0426
:1012900008F44FC081E0EC14FD0409F080E0912CCB
:1012A000882E21E02A83A7CF61EC71E08EEC94E0D8
:1012B0000E942715F801808191818038910531F4D1
:1012C0008D819E8176DC82E090E00FC0892B31F425
:1012D0008D819E816EDC83E090E007C091101EC07E
:1012E0008D819E8166DC84E090E026960FB6F894AE
:1012F000DEBF0FBECDBFDF91CF911F910F91FF9049
:10130000EF90DF90CF90BF90AF909F908F907F90A5
:101310006F905F904F903F902F90089581E090E004
:10132000F1019183808380E090E0DFCF81E090E065
:10133000DCCFC4010196EB81FC8191838083C801DD
:10134000B6D6ED81FE81E80DF91D8083FFEFEF1A1F
:10135000FF0A90CFEF92FF920F931F93CF93DF93EB
:10136000FB0101900020E9F7EB019F0121503109B9
:1013700079018C0102571E4FCE15DF0521F06991CE
:10138000C801B6D6F9CF6DE0C801B2D66AE0C8018F
:10139000DF91CF911F910F91FF90EF90A9C66F92AF
:1013A0007F928F929F92AF92BF92CF92DF92EF92F5
:1013B000FF920F931F93CF93DF9300D000D0CDB750
:1013C000DEB76C018B013A014901FB01019000205D
:1013D000E9F731977F01E61AF70A5C0182E7A81A5C
:1013E0008EEFB80AC501FDD6892B19F0C5015FD66D
:1013F000F9CF60ED71E08EEC94E00E941C1558016D
:10140000C501801B910B8E159F059CF4F501619120
:101410005F01062E000C770B4AE050E08EEC94E062
:101420000E94EA156CE471E08EEC94E00E941C15B9
:10143000E7CF61EC71E08EEC94E00E942715B801D3
:10144000C60188DF43E050E0B401C60133DD892BDB
:10145000B9F59E012F5F3F4FA701B801C601FADB26
:10146000892B89F589819A810E94EF159C838B8352
:10147000BE016D5F7F4FC601D8DC892B31F54981F4
:101480005A81B3018B819C810E94B21831E020E027
:10149000892B09F430E0832F922F0F900F900F903B
:1014A0000F90DF91CF911F910F91FF90EF90DF9000
:1014B000CF90BF90AF909F908F907F906F90089546
:1014C00084E090E0EACF83E0FCCF82E0FACFCF92D5
:1014D000DF92EF92FF920F931F93CF93DF93CDB7DD
:1014E000DEB7E3970FB6F894DEBF0FBECDBF7C0129
:1014F0006C018AE7C81A8EEFD80AF60180819181C3
:10150000039709F0C4C06BEA71E0CE0101960E9416
:10151000AB186DE770E0CE0186960E94AB1828E804
:1015200033E1AE014A5D5F4FBE016F5F7F4FC70180
:1015300036DF009701F1019709F0ACC06AED71E068
:101540008EEC94E00E94271584E090E0F6019183F0
:10155000808300E010E0C801E3960FB6F894DEBF88
:101560000FBECDBFDF91CF911F910F91FF90EF90F4
:10157000DF90CF90089563E471E0CE0186960E94DB
:10158000AB1865E371E0CE0101960E94AB1828E824
:1015900033E1AE014F5F5F4FBE016A5D7F4FC70110
:1015A000FEDE0097F1F0019709F077C066E271E086
:1015B000CE0101960E94AB1863E870E0CE018696DA
:1015C0000E94AB1828E833E1AE014A5D5F4FBE01CF
:1015D0006F5F7F4FC701E3DE892B19F404E010E051
:1015E000BACF61E071E0CE0101960E94AB1863E8CA
:1015F00070E0CE0186960E94AB1828E833E1AE0178
:101600004A5D5F4FBE016F5F7F4FC701C8DE892B08
:1016100009F046C068EF70E0CE0101960E94AB1859
:1016200063E870E0CE0186960E94AB1828E833E1AB
:10163000AE014A5D5F4FBE016F5F7F4FC701AFDEF6
:101640008C01892B81F56BEA71E0CE0101960E9435
:10165000AB186DE770E0CE0186960E94AB1828E8C3
:1016600033E1AE014A5D5F4FBE016F5F7F4FC7013F
:1016700096DE0197D9F46AED71E08EEC94E00E9459
:10168000271584E090E0F6019183808364CF01E028
:1016900010E061CF02E010E05ECF03E010E05BCF2E
:1016A00006E010E058CF07E010E055CF08E010E06A
:1016B00052CF0F931F93CF93DF93CDB7DEB76597CC
:1016C0000FB6F894DEBF0FBECDBF8C01FC01EA5708
:1016D000FE4F80819181059719F561E770E0CE0199
:1016E00001960E94AB1868E670E0CE010D960E944C
:1016F000AB1828E833E1AE01435F5F4FBE016F5F77
:101700007F4FC8014CDE009771F465960FB6F894D0
:10171000DEBF0FBECDBFDF91CF911F910F91089516
:1017200081E090E0F2CF82E090E0EFCF4F925F92C5
:101730006F927F928F929F92AF92BF92CF92DF92E1
:10174000EF92FF920F931F93CF93DF9300D000D0BF
:10175000CDB7DEB75C017B01542E452E3901FB016C
:1017600001900020E9F731976F01C61AD70A4C01A2
:1017700082E7881A8EEF980AC40133D5892B19F0B5
:10178000C40195D4F9CF60ED71E08EEC94E00E9435
:101790001C154701C4018E199F098C159D059CF4E9
:1017A000F40161914F01062E000C770B4AE050E0E6
:1017B0008EEC94E00E94EA156CE471E08EEC94E00B
:1017C0000E941C15E7CF61EC71E08EEC94E00E9462
:1017D0002715B701C501BEDD43E050E0B801C501E2
:1017E00069DB892B09F04AC09E012F5F3F4FA6019C
:1017F000B701C5012FDA892B09F043C089819A818D
:101800000E94EF159C838B83BE016D5F7F4FC501E6
:101810000CDB892BC1F5CB80DC80E52CF42C00E0BF
:1018200010E00615170551F1F701819191917F01A3
:10183000FC0101900020E9F73197AF01481B590BDB
:10184000B6010E94B218892BB1F4C8010F900F9015
:101850000F900F90DF91CF911F910F91FF90EF901C
:10186000DF90CF90BF90AF909F908F907F906F90C0
:101870005F904F9008950F5F1F4FD3CF8FEF9FEF73
:10188000E5CF8DEFFCCF8EEFFACF4F925F926F9244
:101890007F928F929F92AF92BF92CF92DF92EF9200
:1018A000FF920F931F93CF93DF93CDB7DEB7C6544C
:1018B000D1090FB6F894DEBF0FBECDBF5C014C015D
:1018C0008AE7881A8EEF980AF4011182108220E0CC
:1018D00048E067E0CE0101967C019FD58501025763
:1018E0001E4F8B819C81F801938382838D819E8121
:1018F000AF81B88584839583A683B78389859A85CC
:10190000AB85BC8580879187A287B3878D858487C7
:101910008E8585878F859889978786878989808B2B
:101920008A899B89928B818B8C899D89948B838BEF
:101930008E89858B8F89988D978B868B898D9A8DD3
:10194000918F808F8B8D9C8D938F828F8D8D9E8DAF
:10195000958F848F9F8D868D90FB80F996959170E1
:1019600090FB81F9868FC70104D565EA71E08EECA2
:1019700094E00E94271540E659E060E070E0C8015D
:1019800075D56E01FAE2CF0ED11C68E372E0C60194
:101990000E94AB1863E870E0C7010E94AB1828E80A
:1019A00033E1A701B601C501FADC892B59F481E0C6
:1019B00090E0F4019183808365EF71E08EEC94E018
:1019C0000E94271585E7682E82E0782E44244394F0
:1019D000512CF40180819181019791F5F40180816E
:1019E0009181019709F060C16FE272E0CE01C79664
:1019F0000E94AB1862E272E0C6010E94AB1863E17C
:101A000072E0C7010E94AB182596DFAECEAE2597D7
:101A10002796FFAEEEAE279708E813E122E030E00C
:101A2000AE014D5B5F4FBE01695C7F4FC5017EDE3D
:101A3000009709F441C0019761F182E090E016C17E
:101A4000F30141915191619171913F01C8010ED50E
:101A500068E372E0C6010E94AB1863E870E0C7015A
:101A60000E94AB1828E833E1A701B601C50197DC55
:101A7000892B41F4F4015182408265EF71E08EECD4
:101A800094E0E5D7F5E96F16F2E07F0609F0A1CF03
:101A9000A5CF66E072E0C7010E94AB1863E870E072
:101AA000C6010E94AB1828E833E1A601B701C501C1
:101AB00076DC892B09F0FBC082E090E0F401918391
:101AC000808360E172E08EEC94E0C1D76CEF71E04E
:101AD000CE01C7960E94AB1862EF71E0C6010E946A
:101AE000AB1868EE71E0C7010E94AB182596DFAE17
:101AF000CEAE25972796FFAEEEAE279708E813E106
:101B000022E030E0AE014D5B5F4FBE01695C7F4F6C
:101B1000C5010CDE009729F00197B1F084E090E058
:101B2000A5C06DED71E0C7010E94AB1863E870E0DD
:101B3000C6010E94AB1828E833E1A601B701C50130
:101B40002EDC892B09F0B6C063ED71E0CE01C7969B
:101B50000E94AB1869EC71E0C6010E94AB186FEBF4
:101B600071E0C7010E94AB182596DFAECEAE259777
:101B70002796FFAEEEAE279708E813E122E030E0AB
:101B8000AE014D5B5F4FBE01695C7F4FC501CEDD8D
:101B9000009731F0019709F481C086E090E066C0BB
:101BA00064EB71E0C7010E94AB1863E870E0C60106
:101BB0000E94AB1820E137E2A601B701C501EFDBB7
:101BC000892B09F07AC06FE971E0CE01C7960E94B7
:101BD000AB1863E971E0C6010E94AB1867E871E0D9
:101BE000C7010E94AB182596DFAECEAE259727968B
:101BF000FFAEEEAE279708E813E122E030E0AE0139
:101C00004D5B5F4FBE01695C7F4FC5018FDD009763
:101C1000B1F0019709F054C06AE771E0C7010E9472
:101C2000AB1863E870E0C6010E94AB1828E833E106
:101C3000A601B701C501B3DB892B09F044C061E5FA
:101C400071E0C7010E94AB1863E870E0C6010E9412
:101C5000AB1828E833E1A601B701C501A0DB009766
:101C6000A9F523E030E0F40131832083CA5BDF4F24
:101C70000FB6F894DEBF0FBECDBFDF91CF911F919D
:101C80000F91FF90EF90DF90CF90BF90AF909F901B
:101C90008F907F906F905F904F9008956CE272E00C
:101CA0008EEC94E0D4D68FCF81E090E0DFCF83E05C
:101CB00090E0DCCF85E090E0D9CF87E090E0D6CF10
:101CC00088E090E0D3CF89E090E0D0CF8AE090E048
:101CD000CDCF8F929F92AF92BF92CF92DF92EF9231
:101CE000FF920F931F93CF93DF93CDB7DEB7EF979C
:101CF0000FB6F894DEBF0FBECDBF5C016C018AE762
:101D0000C81A8EEFD80AF60180819181049709F0F4
:101D1000B2C06DEE70E0CE01C1960E94AB184E01CC
:101D2000F6E28F0E911C62EE70E0C4010E94AB18C7
:101D300067ED70E0CE0101967C010E94AB189DAE6C
:101D40008CAEFFAEEEAE08E813E122E030E0AE016B
:101D5000445C5F4FBE016F5C7F4FC501E7DC0097BD
:101D600061F1019709F08AC06BEC70E0C7010E9435
:101D7000AB1863E870E0C4010E94AB1828E833E1B7
:101D8000A401B701C5010BDB0097B9F08C01025E1D
:101D90001F4FC801EF960FB6F894DEBF0FBECDBF40
:101DA000DF91CF911F910F91FF90EF90DF90CF9037
:101DB000BF90AF909F908F90089566EA70E0C70142
:101DC0000E94AB1863E870E0C4010E94AB1828E8D9
:101DD00033E1A401B701C501E2DA009721F08C01DB
:101DE000085D1F4FD6CF42E050E060E177E2C501C9
:101DF00061D8009721F08C010E5C1F4FCACFBE0145
:101E00006F5C7F4FC5010E94B206009721F08C01E4
:101E1000045C1F4FBECF89A99AA9009731F1DFD684
:101E20009FA38EA3B401C50100D8009721F08C01B7
:101E3000005B1F4FAECF6BE970E0C7010E94AB188B
:101E400049A95AA9B7018EA19FA10E94B2188C017D
:101E5000892B71F485E090E0F6019183808369E439
:101E600072E08EEC94E0F3D594CF06E410E091CFCD
:101E70000AE510E08ECF0AE010E08BCF04E110E01D
:101E800088CF6F927F928F929F92AF92BF92CF92A4
:101E9000DF92EF92FF920F931F93CF93DF93CDB713
:101EA000DEB72F970FB6F894DEBF0FBECDBF8C0103
:101EB0003B015A01FC01EA57FE4F80819181059751
:101EC00009F0A6C060E970E0CE0101960E94AB184F
:101ED0006EE870E0CE010C960E94AB18BE016F5FF9
:101EE0007F4FC80137DA65E672E08EEC94E0AFD53B
:101EF00084E6882E912C680182E7C81A8EEFD80AF2
:101F0000C6016FD1892B39F464EF71E080E090E075
:101F1000C3D3F12C14C0C601CAD0E82E682F880F95
:101F2000770B4AE050E08EEC94E054D660E28EEC01
:101F300094E083D5FF24F3948C858E11EACFE1E001
:101F40008E1A910811F0FF20D9F28EEC94E07CD526
:101F5000F11017C084E190E02F960FB6F894DEBF21
:101F60000FBECDBFDF91CF911F910F91FF90EF90EA
:101F7000DF90CF90BF90AF909F908F907F906F90A9
:101F800008957301A60CB71CAE14BF0431F0F7011D
:101F900061917F01C601ACD0F7CF6AE1C601A8D03C
:101FA00060E177E2C801D3D8009711F04E96D4CF04
:101FB000BE01625F7F4FC8010E94B206892B11F5F6
:101FC0008E859F850CD69D878C87BE01645F7F4F71
:101FD000C8010E941507892BC1F466E870E0CE01A4
:101FE00001960E94AB184E855F85BE016F5F7F4FE3
:101FF0008C859D850E94B218009709F4ADCF86E0CC
:1020000090E0AACF84E090E0A7CF85E090E0A4CF55
:102010008AE090E0A1CFCF92DF92EF92FF920F93F0
:102020001F93CF93DF938C017B016A01E90151DE9D
:10203000009759F088519C4FDF91CF911F910F91DC
:10204000FF90EF90DF90CF900895A601B701C801EF
:1020500018DF009719F08053984FEECFBE01C801EA
:1020600020D8EC01C801209729F023DBCE01885449
:10207000944FE2CF1EDB0097F9F28056904FDCCFF1
:10208000DC01ED91FC91119721E920832FEA218356
:102090002EE1228326E02383148215821682178282
:1020A000ED91FC9181E0808780E090E0089520919F
:1020B000C3043091C40428173907B9F490918104FE
:1020C00080918204981789F0E0918104F0E0ED5747
:1020D000FB4F80812091810430E02F5F3F4F2F73B1
:1020E00033272093810490E008958FEF9FEF0895A8
:1020F000FF920F931F93CF93DF93DC015C964D917A
:102100005C915D974115510571F481E090E0139663
:102110009C938E93129780E090E0DF91CF911F9176
:102120000F91FF9008955196ED91FC915297509622
:102130008C915097982F90951FB75E962C915E9733
:10214000022F027021FD6095F89420810023C1F0D8
:10215000282B2083EA012197F1F739E0F32EFA9436
:10216000FF2099F0262F30E060FF0CC06081682BC3
:102170006083EA012197F1F7B90175956795EFCF73
:102180002923E7CF60816923F3CF002369F08081A1
:10219000982390831FBF5C968D919C915D970197CA
:1021A000F1F781E090E0B9CF9081892B8083F2CF65
:1021B00008952091C3043091C4042817390771F49D
:1021C0009091810480918204981741F0E0918104FC
:1021D000F0E0ED57FB4F808190E008958FEF9FEF87
:1021E00008952091C3043091C4042817390761F47D
:1021F000809182042091810490E0805C9F4F821B3B
:10220000910960E470E01BC680E090E00895E091E1
:10221000C304F091C404E817F90769F4A389B489E9
:102220009C918589809589238C931092C404109287
:10223000C30481E0089580E00895CF93DF93EC011B
:102240008A8D9B8D892BF9F08091C3049091C404F1
:10225000C817D907C1F0009709F0D9DF8E8D8E7F9E
:102260008E8F1092820410928104D093C404C09384
:10227000C304EB89FC8980819D89892B808381E05F
:10228000DF91CF91089580E0FBCF1F920F920FB6A0
:102290000F9211242F933F934F935F938F939F93AC
:1022A000AF93BF93EF93FF93E091C304F091C40405
:1022B000309749F0868DA685B785958581FF12C038
:1022C0008C91892391F4FF91EF91BF91AF919F91F0
:1022D0008F915F914F913F912F910F900FBE0F9073
:1022E0001F9018958C91892371F7A389B4899C91CB
:1022F0008589809589238C93868997890197F1F741
:1023000039E020E0315089F0808D918D0197F1F70F
:10231000822F90E095958795282FA685B7854C91BB
:102320005585452379F32068EDCF868D81FD209575
:102330008091820490E001968F73992730918104F7
:10234000381799F0A0918204B0E0AD57BB4F2C93A1
:1023500080938204828D938D0197F1F7A389B489CC
:102360008C919589892B8C93AECF868D8160868FD9
:10237000F1CF29E932E0FC013183208348CF1F935C
:10238000CF93DF93EC01162F6E8D6695617081E01F
:102390006827812F58D261E0812F19D2812F90E0D8
:1023A000FC01E15BFD4FE491E88BFC01ED59FD4F31
:1023B000E491F0E0EE0FFF1FEF57FD4F85919491F0
:1023C0009A8B898BDF91CF911F9108951F93CF93A3
:1023D000DF93EC01162F60E0812FF9D18E8D81FD06
:1023E00003C061E0812F2FD21C87812F90E0FC0178
:1023F000E15BFD4FE491ED87FC01ED59FD4FE49168
:10240000F0E0EE0FFF1FE958FD4F859194919F87F3
:102410008E87DF91CF911F9108951F93CF93DF9304
:10242000EC01162F1B821A8288EE93E0A0E0B0E048
:102430008C839D83AE83BF8389E992E099838883EF
:102440001F8A1E8A198E188E1B8E1A8E1D8E1C8E48
:102450008E8D8E7F20FB81F98E8F642FCE018FDFD2
:10246000612FCE01DF91CF911F91B0CFCF93DF933A
:10247000EC019A01AB011B8E1A8E198E188E1F8AE1
:102480001E8A60E079E08DE390E00ED5F9012430FA
:10249000310508F460C0C90103979D8F8C8F6C854E
:1024A00070E0663171050CF052C0C90196958795B0
:1024B0008431910508F452C043979F8B8E8B3697D9
:1024C00008F44FC0C9010597998F888FC901880FFB
:1024D000991F280F391F36952795369527952D304A
:1024E000310508F441C02C5031093B8F2A8F2091CF
:1024F000680068307105DCF131E06E3071050CF474
:1025000030E081E090E001C0880F3A95EAF7822B35
:10251000809368004C85842F90E08830910554F1B9
:102520008E30910554F18631910554F120E030E070
:102530003C8B2B8B8830910534F581E001C0880FEE
:102540004A95EAF78D8B8C8D9D8D0197F1F7CE0121
:10255000DF91CF9172CE81E090E09FCF81E090E05B
:10256000ACCF81E090E0B0CF21E030E0BECF84E09E
:1025700090E0CDCF2DE630E0DBCF2BE630E0D8CFBA
:102580002CE630E0D5CF9C010E9744F42850310959
:1025900081E001C0880F2A95EAF7D4CF2E50310987
:1025A000F7CF1F920F920FB60F9211242F933F93E4
:1025B0008F939F93AF93BF938091C6049091C7046C
:1025C000A091C804B091C9043091C50423E0230F41
:1025D0002D3758F50196A11DB11D2093C504809398
:1025E000C6049093C704A093C804B093C904809113
:1025F000CA049091CB04A091CC04B091CD04019673
:10260000A11DB11D8093CA049093CB04A093CC0468
:10261000B093CD04BF91AF919F918F913F912F9136
:102620000F900FBE0F901F90189526E8230F02966B
:10263000A11DB11DD2CF2FB7F8946091C60470913F
:10264000C7048091C8049091C9042FBF08953FB773
:10265000F8948091CA049091CB04A091CC04B091DD
:10266000CD0426B5A89B05C02F3F19F00196A11DEA
:10267000B11D3FBFBA2FA92F982F8827BC01CD01CC
:10268000620F711D811D911D42E0660F771F881F2B
:10269000991F4A95D1F708958F929F92AF92BF925A
:1026A000CF92DF92EF92FF926B017C01D0DF4B0162
:1026B0005C01C114D104E104F10449F4FF90EF90EE
:1026C000DF90CF90BF90AF909F908F900895E8D00B
:1026D000BEDF681979098A099B09683E7340810544
:1026E000910538F321E0C21AD108E108F10888EE1B
:1026F000880E83E0981EA11CB11CC114D104E10412
:10270000F10431F7D6CF789484B5826084BD84B566
:10271000816084BD85B5826085BD85B5816085BDDC
:10272000EEE6F0E0808181608083E1E8F0E01082F5
:10273000808182608083808181608083E0E8F0E036
:10274000808181608083E1EBF0E080818460808320
:10275000E0EBF0E0808181608083EAE7F0E0808157
:1027600084608083808182608083808181608083B7
:102770008081806880831092C1000895833081F049
:1027800028F4813099F08230A9F008958730A9F0BB
:102790008830C9F08430B1F4809180008F7D03C00F
:1027A000809180008F7780938000089584B58F7723
:1027B00084BD089584B58F7DFBCF8091B0008F7765
:1027C0008093B00008958091B0008F7DF9CFCF93B2
:1027D000DF9390E0FC01E15BFD4F24918D599D4F0B
:1027E000FC0184918823C9F090E0880F991FFC01B7
:1027F000E557FD4FA591B491FC01EF57FD4FC591F1
:10280000D49161110DC09FB7F8948C9120958223CB
:102810008C938881282328839FBFDF91CF910895CF
:10282000623051F49FB7F8943C91822F80958323B6
:102830008C93E8812E2BEFCF8FB7F894EC912E2B51
:102840002C938FBFEACF1F93CF93DF93162F282FA0
:1028500030E0F901E55CFD4F8491F901E15BFD4F4A
:10286000D491F901ED59FD4FC491CC2399F0811118
:1028700085DFEC2FF0E0EE0FFF1FEF57FD4FA59126
:10288000B4918FB7F894EC91111108C0D095DE2364
:10289000DC938FBFDF91CF911F910895DE2BF8CF8E
:1028A00008951F920F920FB60F9211242F938F93BA
:1028B0009F93EF93FF93E091DE04F091DF0480811A
:1028C000E091E404F091E50482FD1BC090818091C9
:1028D000E7048F5F8F732091E804821741F0E09145
:1028E000E704F0E0E253FB4F958F8093E704FF91FC
:1028F000EF919F918F912F910F900FBE0F901F908E
:1029000018958081F4CF1F920F920FB60F92112469
:102910002F933F934F935F936F937F938F939F93E7
:10292000AF93BF93EF93FF938EEC94E0A1D1FF910F
:10293000EF91BF91AF919F918F917F916F915F9137
:102940004F913F912F910F900FBE0F901F901895B0
:102950008EEC94E052D121E0892B09F420E0822F03
:102960000895EEECF4E01382128288EE93E0A0E08A
:10297000B0E084839583A683B7838CEA92E0918349
:10298000808385EC90E09587848784EC90E097873E
:10299000868780EC90E0918B808B81EC90E0938B2C
:1029A000828B82EC90E0958B848B86EC90E0978B09
:1029B000868B118E128E138E148E0895CF92DF9215
:1029C000EF92FF920F931F93CF93DF937C016A01E5
:1029D0008B01C0E0D0E0CC15DD0579F0D8016D9118
:1029E0008D01D701ED91FC910190F081E02DC7019F
:1029F0000995892B11F02196EECFCE01DF91CF9171
:102A00001F910F91FF90EF90DF90CF900895611587
:102A1000710579F0FB0101900020E9F73197AF01D2
:102A2000461B570BDC01ED91FC910280F381E02DF8
:102A3000099480E090E00895EACFDC01ED91FC91EB
:102A40000190F081E02D099465EA72E0E0CF0F93E8
:102A50001F93CF93DF93EC01DADF8C01CE01F4DF1B
:102A6000800F911FDF91CF911F910F9108958F9249
:102A70009F92AF92BF92EF92FF920F931F93CF93CB
:102A8000DF93CDB7DEB7A1970FB6F894DEBF0FBEC8
:102A9000CDBF7C01FA01CB0119A2422F50E0423098
:102AA00051050CF42AE08E010F5D1F4F822E912CF0
:102AB000A12CB12CBF01A5019401D4D1F901CA0107
:102AC000015011096A30DCF4605DD8016C93232B4E
:102AD000242B252B79F7B801C70199DFA1960FB6F2
:102AE000F894DEBF0FBECDBFDF91CF911F910F9144
:102AF000FF90EF90BF90AF909F908F900895695C8A
:102B0000E4CFCF92DF92EF92FF920F931F93CF9378
:102B1000DF93EC016A017B012115310579F4E8812D
:102B2000F9810190F081E02D642FDF91CF911F9109
:102B30000F91FF90EF90DF90CF9009942A303105EC
:102B4000D9F477FF18C06DE278DF8C014427552750
:102B5000BA014C195D096E097F092AE0CE0187DFB1
:102B6000800F911FDF91CF911F910F91FF90EF90F8
:102B7000DF90CF9008952AE0B701A601CE01DF9142
:102B8000CF911F910F91FF90EF90DF90CF906FCF7B
:102B90009A01AB01770F660B770BB3CF0F931F939F
:102BA000CF93DF93EC01F4DF8C01CE014DDF800F7A
:102BB000911FDF91CF911F910F910895211531053C
:102BC00041F4DC01ED91FC910190F081E02D642F46
:102BD00009944DCF9A01AB0160E070E0EFCF9AC14C
:102BE000089591DDFDDF0E944C02CBE2D6E10E9408
:102BF00077012097E1F32FD0FACFFC01918D228D40
:102C0000892F90E0805C9F4F821B91098F739927D9
:102C10000895FC01918D828D981731F0828DE80F17
:102C2000F11D858D90E008958FEF9FEF0895FC01D1
:102C3000918D828D981761F0828DDF01A80FB11DF3
:102C40005D968C91928D9F5F9F73928F90E0089517
:102C50008FEF9FEF089588EA94E1892B41F080E09F
:102C600090E0892B21F074DE81110C94000008950E
:102C7000FC01848DDF01A80FB11DA35ABF4F2C9119
:102C8000848D90E001968F739927848FA689B789E8
:102C90002C93A089B1898C9180648C93938D848DC1
:102CA000981306C00288F389E02D80818F7D808390
:102CB0000895CF93DF93EC01888D882351F0EA8942
:102CC000FB89808185FD08C0A889B9898C9186FF20
:102CD00003C0DF91CF9108950FB607FCF2CF80813A
:102CE00085FFEFCFE889F989808185FFE8CFCE01A4
:102CF000BFDFE5CFEF92FF920F931F93CF93DF9348
:102D0000EC01F62E81E0888F9B8D8C8D981305C089
:102D1000E889F989808185FD2BC00B8D10E00F5F5C
:102D20001F4F0F731127E02E8C8DE8120BC00FB6CA
:102D300007FCFACFE889F989808185FFF5CFCE01BC
:102D400097DFF2CF8B8DFE01E80FF11DE35AFF4FA5
:102D5000F0820B8FEA89FB8980818062808381E029
:102D600090E0DF91CF911F910F91FF90EF90089528
:102D7000EE89FF896083E889F98980818064EECFDC
:102D8000CF92DF92EF92FF921F93CF93DF93EC01EC
:102D90006A017B01122FE889F98982E0808341155D
:102DA000514E6105710599F060E079E08DE390E0A6
:102DB000A701960157D02150310941095109569573
:102DC000479537952795211580E1380790F0E889D8
:102DD000F989108260E874E88EE190E0A70196011D
:102DE00041D02150310941095109569547953795F0
:102DF0002795EC85FD853083EE85FF852083188E31
:102E0000EC89FD891083EA89FB8980818061808358
:102E1000EA89FB89808188608083EA89FB898081D7
:102E200080688083EA89FB8980818F7D8083DF9140
:102E3000CF911F91FF90EF90DF90CF90089597FB77
:102E4000072E16F4009406D077FD08D049D007FC71
:102E500005D03EF4909581959F4F089570956195AA
:102E60007F4F0895A1E21A2EAA1BBB1BFD010DC0C6
:102E7000AA1FBB1FEE1FFF1FA217B307E407F5072A
:102E800020F0A21BB30BE40BF50B661F771F881F06
:102E9000991F1A9469F760957095809590959B019C
:102EA000AC01BD01CF010895052E97FB16F40094E7
:102EB0000FD057FD05D0D6DF07FC02D046F408C07E
:102EC00050954095309521953F4F4F4F5F4F089556
:102ED00090958095709561957F4F8F4F9F4F089586
:102EE000AA1BBB1B51E107C0AA1FBB1FA617B70730
:102EF00010F0A61BB70B881F991F5A95A9F780954C
:102F00009095BC01CD010895EE0FFF1F0590F4913F
:102F1000E02D09940F931F93CF93DF938230910597
:102F200010F482E090E0E0916D05F0916E0520E0F4
:102F300030E0A0E0B0E0309719F14081518102818A
:102F4000138148175907C8F08417950769F410973B
:102F500031F012960C93129713961C9327C000938E
:102F60006D0510936E0522C02115310519F0421729
:102F7000530718F49A01BD01EF01DF01F801DBCF1F
:102F800021153105F9F0281B390B2430310580F467
:102F90008A819B816115710521F0FB0193838283F6
:102FA00004C090936E0580936D05FE01329644C077
:102FB000FE01E20FF31F819391932250310939836F
:102FC00028833AC020916B0530916C05232B41F486
:102FD000209102013091030130936C0520936B0521
:102FE00020910001309101012115310541F42DB7E7
:102FF0003EB74091040150910501241B350BE0912F
:103000006B05F0916C05E217F307A0F42E1B3F0B44
:103010002817390778F0AC014E5F5F4F241735074A
:1030200048F04E0F5F1F50936C0540936B058193E2
:10303000919302C0E0E0F0E0CF01DF91CF911F91CA
:103040000F910895CF93DF93009709F481C0FC019D
:10305000329713821282A0916D05B0916E05109780
:1030600081F420813181820F931F20916B05309173
:103070006C052817390751F5F0936C05E0936B0543
:1030800067C0ED0120E030E0CE17DF0740F44A8151
:103090005B819E0141155105F1F0EA01F5CFD38323
:1030A000C28340815181840F951FC817D90759F4F5
:1030B00088819981840F951F0296918380838A81EC
:1030C0009B81938382832115310529F4F0936E054A
:1030D000E0936D053DC0E901FB83EA834991599175
:1030E000C40FD51FEC17FD0761F480819181840F17
:1030F000951F0296E90199838883828193819B833E
:103100008A83E0E0F0E012968D919C9113970097EE
:1031100019F0FD01DC01F7CF8D919C9111979D0174
:103120002E5F3F4F820F931F20916B0530916C05EE
:103130002817390769F4309729F410926E05109218
:103140006D0502C013821282B0936C05A0936B05CB
:10315000DF91CF910895FB01DC0105900D920020D5
:10316000E1F70895FB01DC014150504030F08D91B2
:103170000190801919F40020B9F7881B990B089564
:10318000FB01DC014150504048F001900D920020BD
:10319000C9F701C01D9241505040E0F7089511E079
:1031A000CDE4D1E003C0FE01AFDE2196CE34D107DD
:0631B000D1F7F894FFCFF7
:1031B60000006F0520002C010000534F434B45547F
:1031C600205253503A0047534D20536869656C644A
:1031D60020696E6974004552524F523A20434F554A
:1031E6004C44204E4F5420494E495449414C495A6B
:1031F600452047534D204D4F44554C4520004552E0
:10320600524F523A2053594E432054494D452000BF
:103216004552524F523A2044455454414348204760
:103226005052532000434C4F434B004552524F528D
:103236003A20434F554C44204E4F5420415454415C
:103246004348204750525320001F1C1F1E1F1E1F9D
:103256001F1E1F1E1F44423A2047534D5F535441C1
:1032660054453D47534D5F4F46465F535441544581
:10327600005D00534F434B5F524543563A205B0077
:1032860044422D534E443A205B0044423A20475371
:103296004D5F53544154453D47534D5F49505F532D
:1032A600544154450044423A2047534D5F535441DC
:1032B60054453D47534D5F4F4E5F5354415445006F
:1032C60044423A2047534D5F53544154453D47537A
:1032D6004D5F50494E5F53544154450044423A2095
:1032E60047534D5F53544154453D47534D5F4750F7
:1032F60052535F53544154450044423A2047534D7C
:103306005F53544154453D47534D5F5443505F53BB
:10331600544154450057414954494E472050524F55
:103326004D50543A00B004000060090000C012007D
:103336000080250000004B00000096000000E10020
:103346000000C20100000000007810DE14F11057E2
:1033560010D910D8100D0A00000000007A16DE14ED
:08336600FD1517160916591692
:00000001FF
