:1000000062C1000088C1000086C100000C94B012DB
:100010000C94B0120C94B0127EC100007CC10000A0
:100020007AC1000078C1000076C1000074C10000F0
:1000300072C1000070C100006EC100006CC1000000
:100040000C943C1468C100000C94BC150C94EE1583
:1000500062C1000060C100005EC100005CC1000020
:100060005AC1000058C1000041542B434950535419
:100070004154555300434C4F5345204F4B0041547E
:100080002B434950434C4F5345004552524F520069
:100090004F4B0053454E44204F4B003E0041542BE4
:1000A00043495053454E4400434F4E4E4543542020
:1000B0004F4B0041542B43495053544152543D221D
:1000C000544350222C223137382E36322E362E34DD
:1000D00034222C373737370041542B4349504D5584
:1000E000583D30002B4349504D55583A2031002B94
:1000F0004349504D55583A20300041542B43495004
:100100004D55583F0041542B4349494352004154F7
:100110002B435354543D22696E7465726E65742E80
:10012000766F6461666F6E652E7074222C22222CAD
:1001300022220053485554204F4B0041542B434931
:1001400050534855540041542B434950534552563F
:1001500045523D30002B4349505345525645523A83
:1001600020300041542B4349505345525645523F8D
:100170000041542B434744434F4E543D312C2249B8
:1001800050222C22696E7465726E65742E766F64CF
:1001900061666F6E652E7074220041542B43495086
:1001A0004D4F44453D30002B4349504D4F44453A57
:1001B0002031002B4349504D4F44453A20300041F7
:1001C000542B4349504D4F44453F0041542B434924
:1001D0004653520041542B43474154543D30004153
:1001E000542B43474154543D31002B434741545411
:1001F0003A2031002B43474154543A2030004154B7
:100200002B43474154543F0041542B4349555243DB
:100210003D30002B43495552433A2030002B43498F
:100220005552433A20310041542B43495552433FE4
:100230000041542B4350494E3D30303438002B435D
:1002400050494E3A2053494D2050494E002B4350BF
:10025000494E3A2052454144590041542B4350499C
:100260004E3F00415400000000080002010000035E
:100270000407000000000000000001020408102034
:100280004080010204081020010204081020040428
:10029000040404040404020202020202030303032E
:1002A00003030000000023002600290000000000D6
:1002B000250028002B0000000000240027002A0051
:1002C000F2031C16F50311241FBECFEFD8E0DEBFEA
:1002D000CDBF12E0A0E0B1E0ECEDF4E302C0059088
:1002E0000D92A23CB107D9F725E0A2ECB2E001C023
:1002F0001D92AA37B207E1F711E0C2E6D1E004C0CF
:100300002197FE010E941719C036D107C9F70E9434
:100310007D170C94621A74CE08950F931F93CF9398
:10032000DF93CDB7DEB72A970FB6F894DEBF0FBEC6
:10033000CDBF83EC92E0B1D5049721F48091C20245
:10034000811143C001E010E05DC089859A850E945B
:100350007B179E838D83BE016B5F7F4F83EC92E0A2
:10036000A2D5009721F08C010056104F4BC0AE0172
:100370004F5F5F4F69858D819E810E94AF118C0117
:10038000892BE9F46AE071E089ED94E00E94871618
:1003900049815A816B817C812AE030E089ED94E0CB
:1003A0000E94491769817A818B819C81605F714FBE
:1003B0008F4F9F4F2FD381E08093700423C008E8B4
:1003C00013E120C002E010E01DC085E090E00E9433
:1003D0007B1798878F83CE0107960E949811892BEF
:1003E00089F76F8178859E01275F3F4F45E050E098
:1003F00083EC92E00E946311009709F4A6CF8C0170
:100400000854144FC8012A960FB6F894DEBF0FBEE9
:10041000CDBFDF91CF911F910F910895CF93DF93BF
:10042000EC016EE071E089ED94E00E948716CA301D
:10043000D1052CF460E389ED94E00E9488164AE02F
:1004400050E0BE0189ED94E0DF91CF910C94331719
:10045000A5D34AE050E0BC0189ED94E00E94331737
:10046000A3D3DCDFA7D3DADF6CE772E089ED94E099
:100470000E948716A5D34AE050E0BC0189ED94E0C4
:100480000E9433176CE772E089ED94E00E948716B2
:100490009DD34AE050E0BC0189ED94E00E943317FF
:1004A0006CE772E089ED94E00E94871695D34AE0EC
:1004B00050E0BC0189ED94E00E94331789ED94E08F
:1004C0000C948F16EF92FF921F93CF93DF93CDB7CB
:1004D000DEB7CD5AD1400FB6F894DEBF0FBECDBF08
:1004E00026E040E855E260E070E089ED94E00E948B
:1004F0004C18CE010196A6D3FE013196A3ECB2E0D2
:1005000081918D9383E0A334B807D1F7DE01AF5713
:10051000BF4FE3E4F3E08D91819383E0E33CF80780
:10052000D1F7DE01AF5FBE4FE3ECF3E08D91819335
:1005300084E0E334F807D1F7CF57DE4F8881998103
:10054000C158D1409093440480934304CD57DE4F6B
:1005500088819981C358D140909346048093450483
:10056000CB57DE4F88819981C558D140909348047C
:1005700080934704C957DE4F88819981C758D1407D
:1005800090934A0480934904C757DE4F888199812C
:10059000C958D14090934C0480934B04C557DE4F0B
:1005A00088819981CB58D14090934E0480934D041B
:1005B000C357DE4F88819981CD58D1409093500424
:1005C00080934F04CF56DE4F88819981C159D14025
:1005D0009093540480935304CD56DE4F88819981C3
:1005E000AA81BB81C359D14080935504909356048E
:1005F000A0935704B0935804C956DE4F888199815F
:10060000AA81BB81C759D1408093590490935A0461
:10061000A0935B04B0935C04C556DE4F8881CB5930
:10062000D14080935D04C456DE4F8881CC59D140BF
:1006300080935E04C356DE4F88819981CD59D140A5
:100640009093600480935F04C156DE4F8881CF5938
:10065000D14080936104C056DE4F88819981C05A91
:10066000D1409093630480936204CE55DE4F88811D
:100670009981C25AD1409093650480936404CC550B
:10068000DE4F8881C45AD14080936604CB55DE4F3B
:1006900088819981C55AD1409093680480936704FA
:1006A000C955DE4F88819981C75AD14090936A0419
:1006B00080936904C755DE4F88819981C95AD1401A
:1006C00090936C0480936B04C555DE4F88819981AB
:1006D000CB5AD14090936E0480936D04C355DE4F86
:1006E0009881CD5AD14080916F0490FB80F9969506
:1006F000917090FB81F980936F04CE0181579E4FDA
:100700000E94241360E171E089ED94E00E9492164A
:1007100083EC92E00E94FE0C7C01892B71F511E0C4
:1007200083EC92E022D77C01892B09F058C0F5DDDB
:100730007C01892BB1F168E471E089ED94E00E94BD
:1007400087164AE050E0B70189ED94E00E9439171E
:1007500083EC92E00E94240F7C01892B29F16AE549
:1007600071E089ED94E00E9487164AE050E0B701FD
:1007700089ED94E00E94391720C060E271E089EDB4
:1007800094E00E9487164AE050E0B70189ED94E0BA
:100790000E94391760E177E280E090E00E94B71490
:1007A000B7CF1093C202D4CF6FE671E089ED94E029
:1007B0000E9492164DDE1093C2028091C2028823DD
:1007C00009F4AECFC355DE4F0FB6F894DEBF0FBEAF
:1007D000CDBFDF91CF911F91FF90EF90089565E716
:1007E00071E0BFCF83EC92E02DC281E594E00C94E0
:1007F00024136F927F928F929F92AF92BF92CF926B
:10080000DF92EF92FF920F931F93CF93DF936B01D1
:100810007C01EA018CE3882E912CA12CB12CC7011C
:10082000B601A50194010E94BE186883CA01B901EE
:10083000A50194010E94BE186983C701B60120E199
:100840003EE040E050E00E94BE18CA01B90128E134
:1008500030E040E050E00E94BE186A83C701B60154
:1008600020E831E541E050E00E94BE1869017A01BC
:10087000CA01B9016C5F7F4F8F4F9F4F27E030E077
:1008800040E050E00E94BE186F5F6B83812C912C7A
:10089000540140E094E6692E712C00E911E0242F08
:1008A00030E02E54384FF901E370FF273097F9F408
:1008B000C901B3010E94AB18892B31F4C901B801F9
:1008C0000E94AB18892B99F48EE691E0A0E0B0E08D
:1008D000880E991EAA1EBB1ED501C401AA27BB27DC
:1008E000C816D906EA06FB0638F04F5FD8CF8DE66A
:1008F00091E0A0E0B0E0ECCF4E83309709F04CC01F
:10090000C90164E670E00E94AB18892B39F4C90173
:1009100060E971E00E94AB18892BF1F58EE691E059
:10092000A0E0B0E0881A990AAA0ABB0AC818D90838
:10093000EA08FB08C90164E670E00E94AB188C016C
:10094000C90160E971E00E94AB18A3E9B1E020E0C1
:100950004C9150E060E070E01196C416D506E606B2
:10096000F70638F0C41AD50AE60AF70A2F5F2C30CA
:10097000C1F42F5F2D83C394CC82DF91CF911F915F
:100980000F91FF90EF90DF90CF90BF90AF909F902E
:100990008F907F906F9008958DE691E0A0E0B0E099
:1009A000C1CF2130A9F6309739F40115110511F4A2
:1009B000009711F44DE1CDCF4CE1CBCFCF92DF9238
:1009C000EF92FF926B017C018091810490918204EF
:1009D000A0918304B09184048C159D05AE05BF05DC
:1009E00069F045E854E0C701B60103DFC092810415
:1009F000D0928204E0928304F0928404FF90EF90FE
:100A0000DF90CF900895DADF80918B0490E08E54D0
:100A1000984F08950F931F9360937D0470937E0405
:100A200080937F0490938004009106011091070148
:100A30002091080130910901DC01CB01800F911F49
:100A4000A21FB31F8093750490937604A09377043C
:100A5000B093780482E090E09093740480937304E0
:100A60000E9486146093790470937A0480937B04C7
:100A700090937C041F910F910895CF92DF92EF9293
:100A8000FF920F931F930E948614C0907904D09018
:100A90007A04E0907B04F0907C048B019C010C199B
:100AA0001D092E093F0980917D0490917E04A0913B
:100AB0007F04B0918004083E134021053105D0F039
:100AC0000196A11DB11D80937D0490937E04A09397
:100AD0007F04B0938004B701A60148515C4F6F4F6B
:100AE0007F4F4093790450937A0460937B04709312
:100AF0007C04C9CF409175045091760460917704CD
:100B00007091780484179507A607B70768F0E091FD
:100B10007104F0917204309739F0099561157105EF
:100B20008105910581F076DF60917D0470917E04EE
:100B300080917F04909180041F910F91FF90EF901E
:100B4000DF90CF90089580917D0490917E04A091D4
:100B50007F04B0918004409106015091070160919B
:100B6000080170910901840F951FA61FB71F80937C
:100B7000750490937604A0937704B093780481E091
:100B800090E02091730430917404232B11F480E0E1
:100B900090E09093740480937304C6CF6EDF0EDFF1
:100BA0008091870490E0089568DF08DF80918604D3
:100BB00090E0089562DF02DF8091850490E008955F
:100BC0005CDFFCDE8091890490E0089556DFF6DE5C
:100BD00080918A0490E0089550DF15CFFC01E05821
:100BE000FE4F1182108220E8FC0111922A95E9F74C
:100BF00088579E4FFC01118210820895FC01EE5728
:100C0000FE4F11821082E250F14020E8DF011D9278
:100C10002A95E9F786579E4FFC01118210820895AC
:100C2000FC01EC57FE4F11821082E458F10920E8D4
:100C3000DF011D922A95E9F784579E4FFC0111822E
:100C400010820895CF93DF93EC0120E048E067E045
:100C500082579E4F0E947813FE01EA57FE4F118281
:100C60001082CE01BBDFCE01C9DFCE01D9DF6FE933
:100C700071E089ED94E0DF91CF910C949216EF92A0
:100C8000FF920F931F93CF93DF93EC018901DC0157
:100C9000A657BE4F8D919C911197892B09F06BC07F
:100CA000FE01E857FE4F80819181019709F063C0F2
:100CB0007B019E0180E090E04817590751F0F70151
:100CC00071917F01F90161919F01761357C00196DF
:100CD000F3CFFE01E40FF51F80818D3009F051C084
:100CE00081818A3009F04DC082818D3009F049C080
:100CF00083818A3009F045C04C5F5F4FFE01E40FED
:100D0000F51FBF019F012C1B3D0B81918D3079F5A3
:100D1000FE01E058FE4F8081918102978217930770
:100D200099F5C901841B950BAC017E019EE7E91A78
:100D30009EEFF90AF7015183408381E090E08D93A3
:100D40009C93CE0180589F4F0E94531ACE0146DFDC
:100D5000F70180819181F8019183808380E090E0A8
:100D6000DF91CF911F910F91FF90EF9008958081B7
:100D70008A3041F6CDCF81E090E0F2CF82E090E082
:100D8000EFCF83E090E0ECCF84E090E0E9CFEF920A
:100D9000FF920F931F93CF93DF93EC018B01DC0144
:100DA000A657BE4F8D919C911197892B09F04FC08A
:100DB000FE01E857FE4F80819181019709F047C0FD
:100DC000FE01CF018C1B9D0B21912D30D1F720818D
:100DD0002A30B9F70296FE01E80FF91FBF01AF01F3
:100DE0004C1B5D0B21912D3071F5FE01E058FE4F3B
:100DF00020813181225031092417350759F5481BCC
:100E0000590B7E018EE7E81A8EEFF80AF70151833D
:100E1000408381E090E08D939C93CE0180589F4F5A
:100E20000E94531ACE01DADEF70180819181F80128
:100E30009183808380E090E0DF91CF911F910F91AB
:100E4000FF90EF90089520812A3049F6CECF81E0BF
:100E500090E0F2CF83E090E0EFCFCF93DF93EC010F
:100E6000FB01DC01A657BE4F8D919C911197019714
:100E700089F418974D915C91BE0160587F4F808135
:100E800091810E94531ACE01B9DE80E090E0DF919B
:100E9000CF91089581E090E0FACF8A579E4FFC01F0
:100EA000808191810895CF93DF93EC01FB01DC01F8
:100EB000A457BE4F8D919C911197019781F418977B
:100EC0004D915C91BE017395808191810E94531A6E
:100ED000CE01A6DE80E090E0DF91CF91089581E021
:100EE00090E0FACF2F923F924F925F926F927F9253
:100EF0008F929F92AF92BF92CF92DF92EF92FF922A
:100F00000F931F93CF93DF9300D000D0CDB7DEB700
:100F10009C838B83CB017A012B813C8128573E4FE8
:100F20003A832983F90120813181232B09F0CBC039
:100F30006AE070E00E94AB182B01770F6608770813
:100F40008AE0882E912C00E010E0CB80DC80F2E774
:100F5000CF1AFEEFDF0AAB80BC8020E8A21A2EEF8A
:100F6000B20A0E151F0574F4C6010E945C12892B8B
:100F700009F041C0C301B2010E94B714F1E08F1A19
:100F8000910879F761ED71E089ED94E00E94871690
:100F9000AB80BC80650120E8C21A2EEFD20AF601B0
:100FA00020813181C5014B815C81841B950B8217A7
:100FB000930708F046C0F50161915F014AE050E0F7
:100FC00089ED94E00E9465176CE772E089ED94E08A
:100FD0000E948716E4CF2B813C81820F931FFC0176
:100FE000319720812A3039F40297FC0180818D30BD
:100FF00011F40F5F1F4FC6010E945C12892B09F488
:10100000BDCFF50120803180F0E82F16310408F0C3
:10101000B5CF0E151F050CF0B1CFC1010196F5013A
:1010200091838083C6010E94C211EB81FC81E20D95
:10103000F31D8083F501808191818230910558F6FE
:10104000DACF6BEB71E089ED94E00E949216F60125
:101050008081918180389105E1F48B819C81BEDD96
:1010600082E090E00F900F900F900F90DF91CF9162
:101070001F910F91FF90EF90DF90CF90BF90AF90B6
:101080009F908F907F906F905F904F903F902F90A8
:101090000895892B31F48B819C81A0DD83E090E061
:1010A000E1CFE016F10631F08B819C8197DD84E081
:1010B00090E0D8CF81E090E0E981FA81918380834C
:1010C00080E090E0CFCF81E090E0CCCF2F923F92B4
:1010D0004F925F926F927F928F929F92AF92BF9248
:1010E000CF92DF92EF92FF920F931F93CF93DF93F4
:1010F00000D000D0CDB7DEB79C838B83CB016B8053
:101100007C8028E7621A2EEF720AF3012081318178
:10111000232B09F006C1EB81FC81EA57FE4F2081A9
:1011200031812530310509F0FFC06AE070E00E948E
:10113000AB184B01770FAA08BB088AE0E82EF12C08
:10114000312C1982212C512C0B811C8102571E4FEE
:10115000CB80DC80F0E8CF1AFEEFDF0AC8010E94E6
:101160005C12892BA1F5C501B4010E94B714412C72
:1011700031E0E31AF10811F0442081F36CEC71E0E6
:1011800089ED94E00E9487160B811C81780140E86C
:10119000E41A4EEFF40AF70120813181C8014B8136
:1011A0005C81841B950B8217930708F090C0F801AF
:1011B00061918F014AE050E089ED94E00E9465174B
:1011C0006CE772E089ED94E00E948716E4CF552029
:1011D00009F455C0C8010E94C2118F3F910509F45E
:1011E00074C06DEB71E089ED94E00E9487160B816D
:1011F0001C81780120E8E21A2EEFF20AF701208123
:101200003181C8014B815C81841B950B8217930748
:1012100080F4F80161918F014AE050E089ED94E09B
:101220000E9465176CE772E089ED94E00E948716D2
:10123000E5CF69ED71E089ED94E00E9487164AE000
:1012400050E0622D89ED94E00E946B1783E090E0FE
:101250000F900F900F900F90DF91CF911F910F91F2
:10126000FF90EF90DF90CF90BF90AF909F908F90C6
:101270007F906F905F904F903F902F900895F981ED
:10128000F11104C0C8010E94C211282E222D30E0A5
:101290003A832983C8010E945C12892B71F0F60100
:1012A00040805180F0E84F16510438F4832D90E0CF
:1012B00029813A8182179307D4F181E0321080E0CE
:1012C000412C582EF1E0F98353CF452C51CF6BEBD5
:1012D00071E089ED94E00E949216F701808191817E
:1012E0008038910531F48B819C8178DC84E090E03A
:1012F000AFCF892B31F48B819C8170DC85E090E04D
:10130000A7CF411006C08B819C8168DC86E090E00D
:101310009FCF81E090E0F3019183808380E090E0B3
:1013200097CF81E090E094CF82E090E091CFC2012E
:101330000196F60191838083C8010E94C211EB815E
:10134000FC81E40DF51D80833394A4CFAF92BF924E
:10135000CF92DF92EF92FF920F931F93CF93DF9381
:10136000EC015B017C0184E7E81A8EEFF80AF701D3
:10137000808191810197D9F160E177E2CE01A6DE0B
:101380008C01892B71F00C5E1F4FC801DF91CF914A
:101390001F910F91FF90EF90DF90CF90BF90AF9093
:1013A000089581E090E0F701918380836E01F0E879
:1013B000CF1AFEEFDF0AF60140815181BE01CE0156
:1013C00093950E94531A7E01FCE7EF1AFEEFFF0A85
:1013D000F60180819181F70191838083CE01FEDB4C
:1013E000F70180819181F50191838083CECF0AE05E
:1013F00010E0CBCFEF92FF920F931F93CF93DF9329
:10140000FB0101900020E9F7EB019F012150310918
:1014100079018C0102571E4FCE15DF0521F069912D
:10142000C801D1D7F9CF6DE0C801CDD76AE0C801B6
:10143000DF91CF911F910F91FF90EF90C4C76F92F2
:101440007F928F929F92AF92BF92CF92DF92EF9254
:10145000FF920F931F93CF93DF9300D000D0CDB7AF
:10146000DEB76C018B013A014901FB0101900020BC
:10147000E9F731977F01E61AF70A5C0182E7A81ABB
:101480008EEFB80AC5010E945C12892B19F0C501C4
:1014900079D7F8CF6EED71E089ED94E00E94871660
:1014A0005801C501801B910B8E159F0584F4F50131
:1014B00061915F014AE050E089ED94E00E94651778
:1014C0006CE772E089ED94E00E948716EACF6BEB3F
:1014D00071E089ED94E00E949216B801C6018ADF9E
:1014E00043E050E0B401C601FDDC892BB9F59E0153
:1014F0002F5F3F4FA701B801C601C1DB892B89F5DA
:1015000089819A810E947B179C838B83BE016D5FCA
:101510007F4FC601A2DC892B31F549815A81B30185
:101520008B819C810E94451A31E020E0892B09F4CF
:1015300030E0832F922F0F900F900F900F90DF913C
:10154000CF911F910F91FF90EF90DF90CF90BF90C0
:10155000AF909F908F907F906F90089584E090E07F
:10156000EACF83E0FCCF82E0FACFCF92DF92EF9216
:10157000FF920F931F93CF93DF93CDB7DEB7E3971F
:101580000FB6F894DEBF0FBECDBF7C016C018AE7B9
:10159000C81A8EEFD80AF60180819181039709F06D
:1015A000C4C06BEC71E0CE0101960E943E1A6AE85D
:1015B00070E0CE0186960E943E1A28E833E1AE0123
:1015C0004A5D5F4FBE016F5F7F4FC70138DF0097F5
:1015D00001F1019709F0ACC068EE71E089ED94E08B
:1015E0000E94921684E090E0F6019183808300E0EF
:1015F00010E0C801E3960FB6F894DEBF0FBECDBF72
:10160000DF91CF911F910F91FF90EF90DF90CF90DE
:10161000089563E671E0CE0186960E943E1A65E564
:1016200071E0CE0101960E943E1A28E833E1AE0136
:101630004F5F5F4FBE016A5D7F4FC70100DF0097BC
:10164000F1F0019709F077C066E471E0CE010196F0
:101650000E943E1A60E970E0CE0186960E943E1A12
:1016600028E833E1AE014A5D5F4FBE016F5F7F4FF7
:10167000C701E5DE892B19F404E010E0BACF6EE073
:1016800071E0CE0101960E943E1A60E970E0CE0141
:1016900086960E943E1A28E833E1AE014A5D5F4F0C
:1016A000BE016F5F7F4FC701CADE892B09F046C0BC
:1016B00065E071E0CE0101960E943E1A60E970E09B
:1016C000CE0186960E943E1A28E833E1AE014A5DBB
:1016D0005F4FBE016F5F7F4FC701B1DE8C01892B69
:1016E00081F56BEC71E0CE0101960E943E1A6AE82A
:1016F00070E0CE0186960E943E1A28E833E1AE01E2
:101700004A5D5F4FBE016F5F7F4FC70198DE019753
:10171000D9F468EE71E089ED94E00E94921684E0BD
:1017200090E0F6019183808364CF01E010E061CF07
:1017300002E010E05ECF03E010E05BCF06E010E0D7
:1017400058CF07E010E055CF08E010E052CFCF921D
:10175000DF92EF92FF920F931F93CF93DF93CDB75A
:10176000DEB7A5970FB6F894DEBF0FBECDBF6C01F4
:101770007C018AE7E81A8EEFF80AF70180819181EF
:10178000059709F08CC068E670E0CE0101960E94D2
:101790003E1A60E970E0CE010E960E943E1A28E8DB
:1017A00033E1AE01425F5F4FBE016F5F7F4FC60105
:1017B00046DE009799F08C010C5E1F4FC801A5967C
:1017C0000FB6F894DEBF0FBECDBFDF91CF911F9152
:1017D0000F91FF90EF90DF90CF90089542E050E09E
:1017E00060E177E2C6017EDB009721F08C01025EAA
:1017F0001F4FE4CFBE016C5D7F4FC601C8DA009772
:1018000021F08C01085D1F4FD9CF8CA19DA10E94B2
:101810007B179BA38AA3BE016E5D7F4FC6011DDBB4
:101820008C01892B19F00E5C1F4FC8CF68EA70E05D
:10183000CE010E960E943E1A4CA15DA1BE01625FD0
:101840007F4F8AA19BA10E94451A892BE1F46EE784
:1018500070E0CE0101960E943E1A65E770E0CE016D
:1018600049960E943E1A28E833E1AE01475E5F4F79
:10187000BE016F5F7F4FC601E2DD009721F08C0152
:10188000045C1F4F9BCF84E090E0F701918380833D
:1018900068EE71E089ED94E00E9492168FCF0AE025
:1018A00010E08CCF4F925F926F927F928F929F92B7
:1018B000AF92BF92CF92DF92EF92FF920F931F935E
:1018C000CF93DF9300D000D0CDB7DEB75C017B01B2
:1018D000542E452E3901FB0101900020E9F7319784
:1018E0006F01C61AD70A4C0182E7881A8EEF980A50
:1018F000C401E2D5892B19F0C40144D5F9CF6EEDAE
:1019000071E089ED94E00E9487164701C4018E19A9
:101910009F098C159D0584F4F40161914F014AE003
:1019200050E089ED94E00E9465176CE772E089ED64
:1019300094E00E948716EACF6BEB71E089ED94E0AA
:101940000E949216B701C50155DD43E050E0B80191
:10195000C501C8DA892B09F04AC09E012F5F3F4FAD
:10196000A601B701C5018BD9892B09F043C0898134
:101970009A810E947B179C838B83BE016D5F7F4F92
:10198000C5016BDA892BC1F5CB80DC80E52CF42C0A
:1019900000E010E00615170551F1F70181919191D2
:1019A0007F01FC0101900020E9F73197AF01481B4E
:1019B000590BB6010E94451A892BB1F4C8010F904A
:1019C0000F900F900F90DF91CF911F910F91FF908B
:1019D000EF90DF90CF90BF90AF909F908F907F90CF
:1019E0006F905F904F9008950F5F1F4FD3CF8FEF91
:1019F0009FEFE5CF8DEFFCCF8EEFFACF4F925F9246
:101A00006F927F928F929F92AF92BF92CF92DF920E
:101A1000EF92FF920F931F93CF93DF93CDB7DEB773
:101A2000C654D1090FB6F894DEBF0FBECDBF5C011E
:101A30004C018AE7881A8EEF980AF401118210820D
:101A400020E048E067E0CE0101967C0151D6850197
:101A500002571E4F8B819C81F801938382838D8175
:101A60009E81AF81B88584839583A683B78389855A
:101A70009A85AB85BC8580879187A287B3878D8542
:101A800084878E8585878F859889978786878989BA
:101A9000808B8A899B89928B818B8C899D89948B81
:101AA000838B8E89858B8F89988D978B868B898D7B
:101AB0009A8D918F808F8B8D9C8D938F828F8D8D42
:101AC0009E8D958F848F9F8D868D90FB80F9969546
:101AD000917090FB81F9868FC701B6D56FE971E0EF
:101AE00089ED94E00E94921640E659E060E070E0D3
:101AF000C80127D66E01FAE2CF0ED11C63E672E070
:101B0000C6010E943E1A60E970E0C7010E943E1AB9
:101B100028E833E1A701B601C50191DC892B59F40E
:101B200081E090E0F4019183808363E072E089EDCD
:101B300094E00E9492168EE7682E82E0782E44246C
:101B40004394512CF40180819181019791F5F40126
:101B500080819181019709F062C16AE572E0CE014E
:101B6000C7960E943E1A6DE472E0C6010E943E1ABA
:101B70006EE372E0C7010E943E1A2596DFAECEAE3C
:101B800025972796FFAEEEAE279708E813E122E0EF
:101B900030E0AE014D5B5F4FBE01695C7F4FC50118
:101BA00081DE009709F442C0019769F182E090E07C
:101BB00018C1F30141915191619171913F01C801A7
:101BC000C0D563E672E0C6010E943E1A60E970E08B
:101BD000C7010E943E1A28E833E1A701B601C501FA
:101BE0002EDC892B49F4F4015182408263E072E0DB
:101BF00089ED94E00E949216FEE96F16F2E07F06EE
:101C000009F0A0CFA4CF61E372E0C7010E943E1AA1
:101C100060E970E0C6010E943E1A28E833E1A6019F
:101C2000B701C5010CDC892B09F0FCC082E090E013
:101C3000F401918380836EE172E089ED94E00E946B
:101C4000921667E272E0CE01C7960E943E1A6DE1DD
:101C500072E0C6010E943E1A63E172E0C7010E9471
:101C60003E1A2596DFAECEAE25972796FFAEEEAE96
:101C7000279708E813E122E030E0AE014D5B5F4FAB
:101C8000BE01695C7F4FC5010DDE009729F0019709
:101C9000B1F084E090E0A5C068E072E0C7010E9466
:101CA0003E1A60E970E0C6010E943E1A28E833E15E
:101CB000A601B701C501C3DB892B09F0B6C06EEFE1
:101CC00071E0CE01C7960E943E1A64EF71E0C60132
:101CD0000E943E1A6AEE71E0C7010E943E1A2596E4
:101CE000DFAECEAE25972796FFAEEEAE279708E87B
:101CF00013E122E030E0AE014D5B5F4FBE01695C55
:101D00007F4FC501CFDD009731F0019709F481C005
:101D100086E090E066C06FED71E0C7010E943E1A58
:101D200060E970E0C6010E943E1A20E137E2A60198
:101D3000B701C50184DB892B09F07AC06FEB71E034
:101D4000CE01C7960E943E1A63EB71E0C6010E9465
:101D50003E1A67EA71E0C7010E943E1A2596DFAE7F
:101D6000CEAE25972796FFAEEEAE279708E813E193
:101D700022E030E0AE014D5B5F4FBE01695C7F4FFA
:101D8000C50190DD0097B1F0019709F054C06AE9F0
:101D900071E0C7010E943E1A60E970E0C6010E942E
:101DA0003E1A28E833E1A601B701C50148DB892BBB
:101DB00009F044C061E771E0C7010E943E1A60E982
:101DC00070E0C6010E943E1A28E833E1A601B7017F
:101DD000C50135DB0097A9F523E030E0F40131833C
:101DE0002083CA5BDF4F0FB6F894DEBF0FBECDBFB6
:101DF000DF91CF911F910F91FF90EF90DF90CF90E7
:101E0000BF90AF909F908F907F906F905F904F901A
:101E100008956AE372E089ED94E084D78FCF81E082
:101E200090E0DFCF83E090E0DCCF85E090E0D9CF99
:101E300087E090E0D6CF88E090E0D3CF89E090E0D3
:101E4000D0CF8AE090E0CDCF6F927F928F929F9219
:101E5000AF92BF92CF92DF92EF92FF920F931F93B8
:101E6000CF93DF93CDB7DEB7A3970FB6F894DEBF5D
:101E70000FBECDBF4C013C018AE7681A8EEF780A8D
:101E8000F30180819181049709F070C06BE371E0E8
:101E9000CE0101966C010E943E1A5E019CE0A90EE3
:101EA000B11C63E371E0C5010E943E1A20E137E2F4
:101EB000A501B601C401C3DA7C01892B09F05AC01F
:101EC0006EEF71E0CE0146960E943E1A64EF71E01B
:101ED000C5010E943E1A6AEE71E0C6010E943E1AD8
:101EE000B9A2A8A2DBA2CAA208E813E122E030E06E
:101EF000AE01405E5F4FBE016A5E7F4FC401D2DC1F
:101F00000097A1F00197D1F564ED71E0C6010E9440
:101F10003E1A60E970E0C5010E943E1A20E137E2F6
:101F2000A501B601C4018BDA892B61F582E090E04E
:101F3000F301918380836EE172E089ED94E0F2D643
:101F4000C701A3960FB6F894DEBF0FBECDBFDF91D9
:101F5000CF911F910F91FF90EF90DF90CF90BF90A6
:101F6000AF909F908F907F906F900895EE24E394B0
:101F7000F12CE6CF22E0E22EF12CE2CF93E0E92E25
:101F8000F12CDECF84E0E82EF12CDACF8F929F92F5
:101F9000AF92BF92CF92DF92EF92FF920F931F9377
:101FA000CF93DF93CDB7DEB7EF970FB6F894DEBFD0
:101FB0000FBECDBF5C016C018AE7C81A8EEFD80A4C
:101FC000F60180819181049709F0B4C06AEF70E056
:101FD000CE01C1960E943E1A4E01F6E28F0E911C70
:101FE0006FEE70E0C4010E943E1A64EE70E0CE0114
:101FF00001967C010E943E1A9DAE8CAEFFAEEEAE05
:1020000008E813E122E030E0AE01445C5F4FBE011E
:102010006F5C7F4FC50146DC009761F1019709F0C5
:102020008CC068ED70E0C7010E943E1A60E970E064
:10203000C4010E943E1A28E833E1A401B701C5019A
:10204000FED90097B9F08C01025E1F4FC801EF96D0
:102050000FB6F894DEBF0FBECDBFDF91CF911F91B9
:102060000F91FF90EF90DF90CF90BF90AF909F9037
:102070008F90089563EB70E0C7010E943E1A60E9FB
:1020800070E0C4010E943E1A28E833E1A401B701C0
:10209000C501D5D9009721F08C01085D1F4FD6CF1F
:1020A00042E050E060E177E2C5010E9472070097CC
:1020B00021F08C010E5C1F4FC9CFBE016F5C7F4FBA
:1020C000C5010E94C706009721F08C01045C1F4FD8
:1020D000BDCF89A99AA9009739F10DD79FA38EA3E7
:1020E000B401C5010E942D07009721F08C01005B0F
:1020F0001F4FACCF68EA70E0C7010E943E1A49A9A1
:102100005AA9B7018EA19FA10E94451A8C01892B63
:1021100071F485E090E0F6019183808367E572E0D9
:1021200089ED94E0FFD592CF06E410E08FCF0AE569
:1021300010E08CCF0AE010E089CF04E110E086CFF8
:102140008F929F92AF92BF92CF92DF92EF92FF92C7
:102150000F931F93CF93DF93CDB7DEB769970FB679
:10216000F894DEBF0FBECDBF7C014B015A01FC01CC
:10217000EA57FE4F80819181059709F0A1C06DE972
:1021800070E0CE0101960E943E1A6BE970E0CE012C
:1021900048960E943E1ABE016F5F7F4FC7012AD941
:1021A00004E610E0670182E7C81A8EEFD80AC6017C
:1021B00083D1892B31F564EF71E080E090E0D7D3D3
:1021C00090E025C0992399F363E772E089ED94E0EC
:1021D0009ED58401A80CB91CA016B10691F1480146
:1021E000F80161918F01C601EED04AE050E0F401A0
:1021F000608189ED94E069D660E289ED94E088D54C
:10220000EBCFC601BFD091E0288D2813D9CF015064
:102210001109C1F69111D8CF84E190E069960FB60B
:10222000F894DEBF0FBECDBFDF91CF911F910F910C
:10223000FF90EF90DF90CF90BF90AF909F908F90E6
:10224000089589ED94E06BD56AE1C601BCD042E007
:1022500050E060E177E2C7010E947207009711F039
:102260004E96DCCFBE016A5E7F4FC7010E94C70653
:10227000009711F08896D2CF8E899F893CD69D8B8E
:102280008C8BBE016C5E7F4FC7010E942D070097AB
:1022900011F0C296C3CF63E970E0CE010C960E94A4
:1022A0003E1A4E895F89BE01645F7F4F8C899D898C
:1022B0000E94451A009709F4B1CF86E090E0AECFB6
:1022C0008AE090E0ABCFCF92DF92EF92FF920F9334
:1022D0001F93CF93DF938C017B016A01E90156DEE6
:1022E000009759F08C599F4FDF91CF911F910F911B
:1022F000FF90EF90DF90CF900895A601B701C8013D
:102300001FDF009719F088539F4FEECFBE01C80121
:102310001DD8EC01C801209729F019DACE01845D9F
:102320009E4FE2CF14DA0097F9F280579E4FDCCF30
:10233000FC01A081B18184E991E88D939C93A081F7
:10234000B18181E012968C93A081B18113968C9318
:102350000190F081E02D148280E090E008956430D7
:1023600071F4FC01608171818281938145D7FA010A
:10237000608371838283938380E090E0089581E09D
:1023800090E008952091CE043091CF0428173907AA
:10239000B9F490918C0480918D04981789F0E091A4
:1023A0008C04F0E0E257FB4F808120918C0430E0F8
:1023B0002F5F3F4F2F73332720938C0490E00895B5
:1023C0008FEF9FEF0895FF920F931F93CF93DF93AB
:1023D000DC015C964D915C915D974115510571F45E
:1023E00081E090E013969C938E93129780E090E0AA
:1023F000DF91CF911F910F91FF9008955196ED912C
:10240000FC91529750968C915097982F90951FB7AA
:102410005E962C915E97022F027021FD6095F894D4
:1024200020810023C1F0282B2083EA012197F1F7B6
:1024300039E0F32EFA94FF2099F0262F30E060FF68
:102440000CC06081682B6083EA012197F1F7B90124
:1024500075956795EFCF2923E7CF60816923F3CF87
:10246000002369F08081982390831FBF5C968D9133
:102470009C915D970197F1F781E090E0B9CF908151
:10248000892B8083F2CF08952091CE043091CF0420
:102490002817390771F490918C0480918D04981756
:1024A00041F0E0918C04F0E0E257FB4F808190E036
:1024B00008958FEF9FEF08952091CE043091CF04BF
:1024C0002817390761F480918D0420918C0490E0E5
:1024D000805C9F4F821B910960E470E03CC680E005
:1024E00090E00895E091CE04F091CF04E817F90749
:1024F00069F4A389B4899C918589809589238C93FB
:102500001092CF041092CE0481E0089580E00895E7
:10251000CF93DF93EC018A8D9B8D892BF9F080910D
:10252000CE049091CF04C817D907C1F0009709F0E5
:10253000D9DF8E8D8E7F8E8F10928D0410928C0439
:10254000D093CF04C093CE04EB89FC8980819D8910
:10255000892B808381E0DF91CF91089580E0FBCFCC
:102560001F920F920FB60F9211242F933F934F9308
:102570005F938F939F93AF93BF93EF93FF93E091FC
:10258000CE04F091CF04309749F0868DA685B785AB
:10259000958581FF12C08C91892391F4FF91EF9171
:1025A000BF91AF919F918F915F914F913F912F91EB
:1025B0000F900FBE0F901F9018958C91892371F783
:1025C000A389B4899C918589809589238C93868978
:1025D00097890197F1F739E020E0315089F0808D3B
:1025E000918D0197F1F7822F90E095958795282F8F
:1025F000A685B7854C915585452379F32068EDCFA5
:10260000868D81FD209580918D0490E001968F73D9
:10261000992730918C04381799F0A0918D04B0E07F
:10262000A257BB4F2C9380938D04828D938D01977D
:10263000F1F7A389B4898C919589892B8C93AECFBE
:10264000868D8160868FF1CF22EA32E0FC013183F2
:10265000208348CF1F93CF93DF93EC01162F6E8D0D
:102660006695617081E06827812F58D261E0812FE3
:1026700019D2812F90E0FC01E658FD4FE491E88BE0
:10268000FC01E257FD4FE491F0E0EE0FFF1FE4552F
:10269000FD4F859194919A8B898BDF91CF911F91FA
:1026A00008951F93CF93DF93EC01162F60E0812FE5
:1026B000F9D18E8D81FD03C061E0812F2FD21C875F
:1026C000812F90E0FC01E658FD4FE491ED87FC017D
:1026D000E257FD4FE491F0E0EE0FFF1FEE55FD4F86
:1026E000859194919F878E87DF91CF911F91089557
:1026F0001F93CF93DF93EC01162F1B821A8288EE73
:1027000093E0A0E0B0E08C839D83AE83BF8382EA38
:1027100092E0998388831F8A1E8A198E188E1B8ED9
:102720001A8E1D8E1C8E8E8D8E7F20FB81F98E8FD2
:10273000642FCE018FDF612FCE01DF91CF911F91EA
:10274000B0CFCF93DF93EC019A01AB011B8E1A8EB1
:10275000198E188E1F8A1E8A60E079E08DE390E062
:102760002FD5F9012430310508F460C0C901039761
:102770009D8F8C8F6C8570E0663171050CF052C0B6
:10278000C901969587958431910508F452C0439705
:102790009F8B8E8B369708F44FC0C9010597998F90
:1027A000888FC901880F991F280F391F36952795E3
:1027B000369527952D30310508F441C02C5031094C
:1027C0003B8F2A8F2091680068307105DCF131E081
:1027D0006E3071050CF430E081E090E001C0880FAC
:1027E0003A95EAF7822B809368004C85842F90E01D
:1027F0008830910554F18E30910554F18631910560
:1028000054F120E030E03C8B2B8B8830910534F57F
:1028100081E001C0880F4A95EAF78D8B8C8D9D8DE4
:102820000197F1F7CE01DF91CF9172CE81E090E078
:102830009FCF81E090E0ACCF81E090E0B0CF21E08D
:1028400030E0BECF84E090E0CDCF2DE630E0DBCFAE
:102850002BE630E0D8CF2CE630E0D5CF9C010E97A8
:1028600044F42850310981E001C0880F2A95EAF725
:10287000D4CF2E503109F7CF1F920F920FB60F927F
:1028800011242F933F938F939F93AF93BF93809186
:10289000D1049091D204A091D304B091D40430918A
:1028A000D00423E0230F2D3758F50196A11DB11D4B
:1028B0002093D0048093D1049093D204A093D304A6
:1028C000B093D4048091D5049091D604A091D704FC
:1028D000B091D8040196A11DB11D8093D5049093A9
:1028E000D604A093D704B093D804BF91AF919F9121
:1028F0008F913F912F910F900FBE0F901F901895C1
:1029000026E8230F0296A11DB11DD2CF2FB7F89450
:102910006091D1047091D2048091D3049091D40439
:102920002FBF08953FB7F8948091D5049091D604B5
:10293000A091D704B091D80426B5A89B05C02F3F1D
:1029400019F00196A11DB11D3FBFBA2FA92F982FD5
:102950008827BC01CD01620F711D811D911D42E0D0
:10296000660F771F881F991F4A95D1F708958F9298
:102970009F92AF92BF92CF92DF92EF92FF926B0144
:102980007C01D0DF4B015C01C114D104E104F104EE
:1029900049F4FF90EF90DF90CF90BF90AF909F9061
:1029A0008F900895E8D0BEDF681979098A099B09DC
:1029B000683E73408105910538F321E0C21AD108C1
:1029C000E108F10888EE880E83E0981EA11CB11C76
:1029D000C114D104E104F10431F7D6CF789484B561
:1029E000826084BD84B5816084BD85B5826085BD0B
:1029F00085B5816085BDEEE6F0E0808181608083F1
:102A0000E1E8F0E0108280818260808380818160D3
:102A10008083E0E8F0E0808181608083E1EBF0E09A
:102A2000808184608083E0EBF0E08081816080833E
:102A3000EAE7F0E080818460808380818260808327
:102A40008081816080838081806880831092C10052
:102A50000895833081F028F4813099F08230A9F014
:102A600008958730A9F08830C9F08430B1F480919E
:102A700080008F7D03C0809180008F7780938000DD
:102A8000089584B58F7784BD089584B58F7DFBCF7D
:102A90008091B0008F778093B00008958091B0004E
:102AA0008F7DF9CFCF93DF9390E0FC01E658FD4F87
:102AB000249182579D4FFC0184918823C9F090E0B6
:102AC000880F991FFC01EA54FD4FA591B491FC01B8
:102AD000E455FD4FC591D49161110DC09FB7F89495
:102AE0008C91209582238C938881282328839FBFF3
:102AF000DF91CF910895623051F49FB7F8943C91E3
:102B0000822F809583238C93E8812E2BEFCF8FB774
:102B1000F894EC912E2B2C938FBFEACF1F93CF9379
:102B2000DF93162F282F30E0F901EA59FD4F8491E9
:102B3000F901E658FD4FD491F901E257FD4FC491D8
:102B4000CC2399F0811185DFEC2FF0E0EE0FFF1F11
:102B5000E455FD4FA591B4918FB7F894EC91111104
:102B600008C0D095DE23DC938FBFDF91CF911F91FA
:102B70000895DE2BF8CF08951F920F920FB60F9293
:102B800011242F938F939F93EF93FF93E091E90488
:102B9000F091EA048081E091EF04F091F00482FD6D
:102BA0001BC090818091F2048F5F8F732091F3049A
:102BB000821741F0E091F204F0E0E752FB4F958F6D
:102BC0008093F204FF91EF919F918F912F910F903D
:102BD0000FBE0F901F9018958081F4CF1F920F9217
:102BE0000FB60F9211242F933F934F935F936F93E0
:102BF0007F938F939F93AF93BF93EF93FF9389ED51
:102C000094E0C2D1FF91EF91BF91AF919F918F91CD
:102C10007F916F915F914F913F912F910F900FBED8
:102C20000F901F90189589ED94E073D121E0892BC6
:102C300009F420E0822F0895E9EDF4E01382128276
:102C400088EE93E0A0E0B0E084839583A683B78309
:102C500085EB92E09183808385EC90E09587848773
:102C600084EC90E09787868780EC90E0918B808B56
:102C700081EC90E0938B828B82EC90E0958B848B3F
:102C800086EC90E0978B868B118E128E138E148EAD
:102C90000895CF92DF92EF92FF920F931F93CF93FD
:102CA000DF937C016A018B01C0E0D0E0CC15DD052B
:102CB00079F0D8016D918D01D701ED91FC910190D2
:102CC000F081E02DC7010995892B11F02196EECFF7
:102CD000CE01DF91CF911F910F91FF90EF90DF9088
:102CE000CF9008956115710579F0FB0101900020E6
:102CF000E9F73197AF01461B570BDC01ED91FC91D1
:102D00000280F381E02D099480E090E00895EACFFD
:102D1000DC01ED91FC910190F081E02D09946EEAC7
:102D200072E0E0CF0F931F93CF93DF93EC01DADFD4
:102D30008C01CE01F4DF800F911FDF91CF911F91A5
:102D40000F9108958F929F92AF92BF92EF92FF9250
:102D50000F931F93CF93DF93CDB7DEB7A1970FB635
:102D6000F894DEBF0FBECDBF7C01FA01CB0119A2E2
:102D7000422F50E0423051050CF42AE08E010F5DE5
:102D80001F4F822E912CA12CB12CBF01A5019401C3
:102D9000F5D1F901CA01015011096A30DCF4605D16
:102DA000D8016C93232B242B252B79F7B801C7016D
:102DB00099DFA1960FB6F894DEBF0FBECDBFDF91AD
:102DC000CF911F910F91FF90EF90BF90AF909F9088
:102DD0008F900895695CE4CFCF92DF92EF92FF92DB
:102DE0000F931F93CF93DF93EC016A017B012115B1
:102DF000310579F4E881F9810190F081E02D642FAB
:102E0000DF91CF911F910F91FF90EF90DF90CF90C6
:102E100009942A303105D9F477FF18C06DE278DFC4
:102E20008C0144275527BA014C195D096E097F09A9
:102E30002AE0CE0187DF800F911FDF91CF911F9194
:102E40000F91FF90EF90DF90CF9008952AE0B701A7
:102E5000A601CE01DF91CF911F910F91FF90EF90CE
:102E6000DF90CF906FCF9A01AB01770F660B770B96
:102E7000B3CF0F931F93CF93DF93EC01F4DF8C015B
:102E8000CE014DDF800F911FDF91CF911F910F91E8
:102E900008950F931F93CF93DF93EC019DDF8C0177
:102EA000CE013DDF800F911FDF91CF911F910F91D8
:102EB00008952115310541F4DC01ED91FC9101905B
:102EC000F081E02D642F09943DCF9A01462F50E008
:102ED00060E070E0EECF0F931F93CF93DF93EC0190
:102EE000F4DF8C01CE011BDF800F911FDF91CF91AA
:102EF0001F910F910895A1C1089570DDFDDF0E941B
:102F00006202C7EBD7E10E948C012097E1F32FD03A
:102F1000FACFFC01918D228D892F90E0805C9F4F2C
:102F2000821B91098F7399270895FC01918D828DE1
:102F3000981731F0828DE80FF11D858D90E008958E
:102F40008FEF9FEF0895FC01918D828D981761F0AE
:102F5000828DDF01A80FB11D5D968C91928D9F5FD0
:102F60009F73928F90E008958FEF9FEF089583E114
:102F700096E1892B41F080E090E0892B21F053DE2F
:102F800081110C9400000895FC01848DDF01A80FCD
:102F9000B11DA35ABF4F2C91848D90E001968F7381
:102FA0009927848FA689B7892C93A089B1898C91A0
:102FB00080648C93938D848D981306C00288F38966
:102FC000E02D80818F7D80830895CF93DF93EC0186
:102FD000888D882351F0EA89FB89808185FD08C0AE
:102FE000A889B9898C9186FF03C0DF91CF9108959C
:102FF0000FB607FCF2CF808185FFEFCFE889F98912
:10300000808185FFE8CFCE01BFDFE5CFEF92FF9251
:103010000F931F93CF93DF93EC01F62E81E0888FFF
:103020009B8D8C8D981305C0E889F989808185FD79
:103030002BC00B8D10E00F5F1F4F0F731127E02E79
:103040008C8DE8120BC00FB607FCFACFE889F9891E
:10305000808185FFF5CFCE0197DFF2CF8B8DFE010A
:10306000E80FF11DE35AFF4FF0820B8FEA89FB89CD
:1030700080818062808381E090E0DF91CF911F9119
:103080000F91FF90EF900895EE89FF896083E889A2
:10309000F98980818064EECFCF92DF92EF92FF9228
:1030A0001F93CF93DF93EC016A017B01122FE88914
:1030B000F98982E080834115514E6105710599F0CF
:1030C00060E079E08DE390E0A701960157D02150B0
:1030D000310941095109569547953795279521158D
:1030E00080E1380790F0E889F989108260E874E897
:1030F0008EE190E0A701960141D0215031094109AC
:1031000051095695479537952795EC85FD85308370
:10311000EE85FF852083188EEC89FD891083EA896E
:10312000FB89808180618083EA89FB898081886056
:103130008083EA89FB89808180688083EA89FB89B2
:1031400080818F7D8083DF91CF911F91FF90EF90E1
:10315000DF90CF90089597FB072E16F4009406D0C9
:1031600077FD08D050D007FC05D03EF490958195AE
:103170009F4F0895709561957F4F0895A1E21A2E93
:10318000AA1BBB1BFD010DC0AA1FBB1FEE1FFF1F0B
:10319000A217B307E407F50720F0A21BB30BE40B5B
:1031A000F50B661F771F881F991F1A9469F76095A2
:1031B0007095809590959B01AC01BD01CF0108955C
:1031C000052E97FB16F400940FD057FD05D0D6DFDF
:1031D00007FC02D046F408C05095409530952195E3
:1031E0003F4F4F4F5F4F0895909580957095619533
:1031F0007F4F8F4F9F4F089569279627692778271C
:10320000872778270895AA1BBB1B51E107C0AA1F77
:10321000BB1FA617B70710F0A61BB70B881F991F77
:103220005A95A9F780959095BC01CD010895EE0FB0
:10323000FF1F0590F491E02D09940F931F93CF93F6
:10324000DF938230910510F482E090E0E091780500
:10325000F091790520E030E0A0E0B0E0309719F17E
:10326000408151810281138148175907C8F08417A2
:10327000950769F4109731F012960C9312971396F4
:103280001C9327C0009378051093790522C021155F
:10329000310519F04217530718F49A01BD01EF01E7
:1032A000DF01F801DBCF21153105F9F0281B390BBF
:1032B0002430310580F48A819B816115710521F0EC
:1032C000FB019383828304C09093790580937805F2
:1032D000FE01329644C0FE01E20FF31F81939193E9
:1032E00022503109398328833AC0209176053091E4
:1032F0007705232B41F42091020130910301309393
:103300007705209376052091000130910101211568
:10331000310541F42DB73EB74091040150910501AC
:10332000241B350BE0917605F0917705E217F30742
:10333000A0F42E1B3F0B2817390778F0AC014E5F25
:103340005F4F2417350748F04E0F5F1F50937705E6
:10335000409376058193919302C0E0E0F0E0CF01C5
:10336000DF91CF911F910F910895CF93DF93009735
:1033700009F481C0FC01329713821282A091780572
:10338000B0917905109781F420813181820F931FCC
:1033900020917605309177052817390751F5F0937C
:1033A0007705E093760567C0ED0120E030E0CE17A9
:1033B000DF0740F44A815B819E0141155105F1F020
:1033C000EA01F5CFD383C28340815181840F951FD9
:1033D000C817D90759F488819981840F951F0296DF
:1033E000918380838A819B81938382832115310518
:1033F00029F4F0937905E09378053DC0E901FB835A
:10340000EA8349915991C40FD51FEC17FD0761F468
:1034100080819181840F951F0296E90199838883A9
:10342000828193819B838A83E0E0F0E012968D9104
:103430009C911397009719F0FD01DC01F7CF8D9156
:103440009C9111979D012E5F3F4F820F931F2091FA
:103450007605309177052817390769F4309729F4F4
:10346000109279051092780502C013821282B093EF
:103470007705A0937605DF91CF910895FB01DC01DC
:1034800005900D920020E1F70895FB01DC01415009
:10349000504030F08D910190801919F40020B9F757
:1034A000881B990B0895FB01DC014150504048F006
:1034B00001900D920020C9F701C01D92415050406B
:1034C000E0F7089511E0C2E6D1E003C0FE01AFDEEF
:0C34D0002196C336D107D1F7F894FFCF46
:1034DC0000007A0520002C01000054494D453A00AB
:1034EC0047534D20536869656C6420696E6974009C
:1034FC004552524F523A20434F554C44204E4F5454
:10350C0020494E495449414C495A452047534D2076
:10351C004D4F44554C4520004552524F523A205382
:10352C00594E432054494D4520004552524F523A72
:10353C0020444554544143482047505253200043A3
:10354C004C4F434B004552524F523A20434F554C2F
:10355C0044204E4F5420415454414348204750522C
:10356C005320001F1C1F1E1F1E1F1F1E1F1E1F442B
:10357C00423A2047534D5F53544154453D47534DB8
:10358C005F4F46465F5354415445005D00434F4ED8
:10359C004649524D204641494C454420534F434BDC
:1035AC005F524543563A205B005D204E3A00444240
:1035BC002D534E443A205B0044423A2047534D5F12
:1035CC0053544154453D47534D5F49505F5354410B
:1035DC0054450044423A2047534D5F53544154459F
:1035EC003D47534D5F4F4E5F535441544500444249
:1035FC003A2047534D5F53544154453D47534D5F1B
:10360C0050494E5F53544154450044423A2047536D
:10361C004D5F53544154453D47534D5F47505253B2
:10362C005F53544154450044423A2047534D5F5335
:10363C00544154453D47534D5F5443505F5354419F
:10364C00544500534F434B5F534E443A2000B00453
:10365C00000060090000C012000080250000004B33
:10366C0000000096000000E1000000C20100000014
:10367C000000E31149165C12C211441243120D0AE8
:10368C000000000000061849168917A3179517E5C6
:02369C00170015
:00000001FF
