:1000000063C1000089C1000087C100000C9468141E
:100010000C9468140C9468147FC100007DC100002A
:100020007BC1000079C1000077C1000075C10000EC
:1000300073C1000071C100006FC100006DC10000FC
:100040000C94E41569C100000C9465170C94971783
:1000500063C1000061C100005FC100005DC100001C
:100060005BC1000059C1000041542B434950535417
:100070004154555300434C4F5345204F4B0041547E
:100080002B434950434C4F5345004552524F520069
:100090004F4B0053454E44204F4B0041542B434996
:1000A0005053454E4400434F4E4E454354204F4B12
:1000B0000041542B43495053544152543D22544320
:1000C00050222C223137382E36322E362E3434221E
:1000D0002C373737370041542B4349504D55583D45
:1000E00030002B4349504D55583A2031002B43499D
:1000F000504D55583A20300041542B4349504D55EE
:10010000583F0041542B43494943520041542B432B
:100110005354543D22696E7465726E65742E766F09
:100120006461666F6E652E7074222C22222C22224E
:100130000053485554204F4B0041542B43495053D2
:100140004855540041542B4349505345525645524B
:100150003D30002B4349505345525645523A2030CA
:100160000041542B4349505345525645523F00419C
:10017000542B434744434F4E543D312C2249502287
:100180002C22696E7465726E65742E766F6461667A
:100190006F6E652E7074220041542B4349504D4FB1
:1001A00044453D30002B4349504D4F44453A2031A2
:1001B000002B4349504D4F44453A20300041542BC9
:1001C0004349504D4F44453F0041542B434946530A
:1001D000520041542B43474154543D300041542B6D
:1001E00043474154543D31002B43474154543A2036
:1001F00031002B43474154543A20300041542B43A3
:10020000474154543F0041542B43495552433D30DC
:10021000002B43495552433A2030002B4349555255
:10022000433A20310041542B43495552433F00414A
:10023000542B4350494E3D30303438002B43504905
:100240004E3A2053494D2050494E002B4350494EC1
:100250003A2052454144590041542B4350494E3FA6
:1002600000415400000000080002010000030407E0
:10027000000000000000000001020408102040807F
:1002800001020408102001020408102004040404E0
:100290000404040402020202020203030303030330
:1002A00000000000230026002900000000002500B7
:1002B00028002B0000000000240027002A001A0458
:1002C0004F04C5171D04550411241FBECFEFD8E0FD
:1002D000DEBFCDBF13E0A0E0B1E0EEE6F8E302C080
:1002E00005900D92AA31B107D9F725E0AAE1B3E054
:1002F00001C01D92A03DB207E1F711E0C2E6D1E0D6
:1003000004C02197FE010E94C41ACF35D107C9F756
:100310000E9423190C942B1C73CE08950F931F93E6
:10032000CF93DF93CDB7DEB760970FB6F894DEBFFB
:100330000FBECDBF6AE071E08FE295E00E942E18FB
:100340000E940C104AE050E0BC018FE295E00E9450
:10035000EB1861E070E0CE0106960E94A61063E102
:1003600071E08FE295E00E942E180E940C104AE086
:1003700050E0BC018FE295E00E94EB188FE193E022
:1003800004D501E010E0039709F067C085E090E034
:100390000E9463179E878D87CE010D960E942810BC
:1003A0006D857E859E01215F3F4F45E050E08FE1E6
:1003B00093E00E94C00F6CE171E08FE295E00E9433
:1003C0002E180E940C104AE050E0BC018FE295E02C
:1003D0000E94EB1864E271E08FE295E00E942E1813
:1003E0006F8578894AE050E08FE295E00E9412190B
:1003F0008F8598890E9463179C878B874F855889C2
:1004000070E060E00E94041CBE01655F7F4F8FE1D9
:1004100093E0C1D4009789F12AE0289F8001299FA9
:10042000100D11240C5F1F4F8D859E85009711F0D4
:100430000E9464178B859C85009711F00E946417B9
:100440006DE271E08FE295E00E943F184AE050E0D3
:10045000B8018FE295E00E94EB18CE0106960E944B
:10046000AB10C80160960FB6F894DEBF0FBECDBFCB
:10047000DF91CF911F910F9108954F8558896B851A
:100480007C85CE0106960E94AE11009749F02AE0C5
:10049000289F8001299F100D11240B5F1F4FC4CF8F
:1004A00085E0FE013696DE01119601900D928A9547
:1004B000E1F7CE010196C5D18C01CE0101960E94D3
:1004C000AB100115110551F02AE0209FC001219FBA
:1004D000900D11248C010A5F1F4FA6CF1DD260938F
:1004E0001A0370931B0380931C0390931D039CCFEE
:1004F0000F931F93CF93DF93CDB7DEB7CD5AD14083
:100500000FB6F894DEBF0FBECDBF26E040E855E23F
:1005100060E070E08FE295E00E94FF19CE01019645
:10052000E9D2FE013196AFE1B3E081918D9383E092
:10053000AF39B807D1F7DE01AF57BF4FEFE9F3E0AE
:100540008D91819384E0EF31F807D1F7DE01AF5F41
:10055000BE4FEFE1F4E08D91819384E0EF39F8072D
:10056000D1F7CF57DE4F88819981C158D140909300
:10057000A00480939F04CD57DE4F88819981C35892
:10058000D1409093A2048093A104CB57DE4F888181
:100590009981C558D1409093A4048093A304C9576E
:1005A000DE4F88819981C758D1409093A6048093EB
:1005B000A504C757DE4F88819981C958D1409093CF
:1005C000A8048093A704C557DE4F88819981CB5832
:1005D000D1409093AA048093A904C357DE4F888129
:1005E0009981CD58D1409093AC048093AB04CF5601
:1005F000DE4F88819981C159D1409093B004809396
:10060000AF04CD56DE4F88819981AA81BB81C35941
:10061000D1408093B1049093B204A093B304B093FB
:10062000B404C956DE4F88819981AA81BB81C7591C
:10063000D1408093B5049093B604A093B704B093CF
:10064000B804C556DE4F8881CB59D1408093B90498
:10065000C456DE4F8881CC59D1408093BA04C3562A
:10066000DE4F88819981CD59D1409093BC0480930D
:10067000BB04C156DE4F8881CF59D1408093BD0461
:10068000C056DE4F88819981C05AD1409093BF04F3
:100690008093BE04CE55DE4F88819981C25AD140E5
:1006A0009093C1048093C004CC55DE4F8881C45A16
:1006B000D1408093C204CB55DE4F88819981C55AC1
:1006C000D1409093C4048093C304C955DE4F888100
:1006D0009981C75AD1409093C6048093C504C755E9
:1006E000DE4F88819981C95AD1409093C804809384
:1006F000C704C555DE4F88819981CB5AD14090936C
:10070000CA048093C904C355DE4F9881CD5AD140A5
:100710008091CB0490FB80F991FB81F98093CB040D
:10072000CE0181579E4F0E94E01462E371E08FE298
:1007300095E00E943F188FE193E0FBD78C01892B55
:10074000A1F062E471E08FE295E00E942E184AE089
:1007500050E0B8018FE295E00E94EB1860E177E28B
:1007600080E090E00E945F16E6CF6CE171E08FE2DE
:1007700095E00E942E180E940C104AE050E0BC0147
:100780008FE295E00E94EB188FE193E00E94EF0C5E
:100790008C01892B89F16AE671E08FE295E00E9475
:1007A0002E184AE050E0B8018FE295E00E94EB1865
:1007B0008FE193E00E94200E8C01892B69F068EA9A
:1007C00071E08FE295E00E942E184AE050E0B801F7
:1007D0008FE295E00E94EB1880911E03882329F296
:1007E000C355DE4F0FB6F894DEBF0FBECDBFDF910D
:1007F000CF911F910F91089591DD8C01892B69F0A4
:1008000068E871E08FE295E00E942E184AE050E01F
:10081000B8018FE295E00E94EB186EE971E08FE27B
:1008200095E00E943F1864E670E080E090E00E944E
:100830005F16BECF8FE193E05DC18DEA94E00C942A
:10084000E014CF93DF9300D000D01F92CDB7DEB776
:10085000FC018091CC0481111FC095E0DE0111964E
:1008600001900D929A95E1F7BE016F5F7F4F8DEC7D
:1008700094E00E944C12CE0101960E94AB1081E0E0
:100880008093CC0490E080E00F900F900F900F9039
:100890000F90DF91CF91089581E090E0F5CF61E076
:1008A00070E08DEC94E00C94A6108DEC94E00C9428
:1008B000AB100F931F936093DE047093DF0480935B
:1008C000E0049093E104009106011091070120914A
:1008D000080130910901DC01CB01800F911FA21F9B
:1008E000B31F8093D6049093D704A093D804B093F9
:1008F000D90482E090E09093D5048093D4040E94C0
:100900002E166093DA047093DB048093DC049093DA
:10091000DD041F910F910895CF92DF92EF92FF9225
:100920000F931F930E942E16C090DA04D090DB0420
:10093000E090DC04F090DD048B019C010C191D0992
:100940002E093F098091DE049091DF04A091E0041C
:10095000B091E104083E134021053105D0F0019625
:10096000A11DB11D8093DE049093DF04A093E004E9
:10097000B093E104B701A60148515C4F6F4F7F4F20
:100980004093DA045093DB046093DC047093DD043D
:10099000C9CF4091D6045091D7046091D80470918A
:1009A000D90484179507A607B70768F0E091D20429
:1009B000F091D304309739F00995611571058105DF
:1009C000910581F076DF6091DE047091DF04809103
:1009D000E0049091E1041F910F91FF90EF90DF9060
:1009E000CF9008958091DE049091DF04A091E004FF
:1009F000B091E10440910601509107016091080116
:100A000070910901840F951FA61FB71F8093D6040C
:100A10009093D704A093D804B093D90481E090E0D8
:100A20002091D4043091D504232B11F490E080E080
:100A30009093D5048093D404C6CF8A579E4FFC016F
:100A40007183608362307105C1F038F461157105FE
:100A500059F06130710571F008956330710581F0CE
:100A60006430710581F008956DEB71E08FE295E0DF
:100A70000C943F1869ED71E0F9CF64EF71E0F6CFA7
:100A800060E172E0F3CF6BE272E0F0CFFC01E0587E
:100A9000FE4F1182108220E8FC0111922A95E9F79D
:100AA00088579E4FFC01118210820895FC01EE5779
:100AB000FE4F11821082E250F14020E8DF011D92CA
:100AC0002A95E9F786579E4FFC01118210820895FE
:100AD000FC01EC57FE4F11821082E458F10920E826
:100AE000DF011D922A95E9F784579E4FFC01118280
:100AF00010820895CF93DF93EC0120E048E067E097
:100B000082579E4F0E943415FE01EA57FE4F118214
:100B10001082CE01BBDFCE01C9DFCE01D9DF6DEB84
:100B200071E08FE295E0DF91CF910C943F18CF9266
:100B3000DF92EF92FF920F931F93CF93DF93EC011D
:100B400089017C0126E7E21A2EEFF20AF701808183
:100B500091819E0128573E4F6901892B09F071C090
:100B6000F90180819181019709F06BC0FB01DE01E1
:100B700090E080E02D914817590791F0319132179C
:100B800069F0CE0183DF82E090E0DF91CF911F9189
:100B90000F91FF90EF90DF90CF9008950196EACFEC
:100BA0002D3061F4FE01E40FF51F81818A3031F4AC
:100BB00082818D3019F483818A3029F0CE0166DF7D
:100BC00083E090E0E2CF4C5F5F4FFE01E40FF51F42
:100BD000BF019F012C1B3D0B81918D3019F080814D
:100BE0008A30B9F7FE01E058FE4F8081918102976B
:100BF0008217930729F0CE0149DF84E090E0C5CF4A
:100C0000C901841B950BAC016E019EE7C91A9EEFCA
:100C1000D90AF6015183408381E090E0F701918386
:100C20008083CE0180589F4F0E94191CCE012EDF79
:100C3000F60180819181F8019183808390E080E0CA
:100C4000A4CF67E472E08FE295E00E942E18F701CE
:100C500080819181892B31F06DE472E08FE295E023
:100C60000E942E18F60180819181019731F06FE486
:100C700072E08FE295E00E942E1881E090E085CF2F
:100C8000EF92FF920F931F93CF93DF93EC018B01B1
:100C9000DC01A657BE4F8D919C911197892B09F0CD
:100CA0004EC0FE01E857FE4F80819181019709F007
:100CB00046C0FE01CF018C1B9D0B21912D30D1F739
:100CC00020812A30B9F70296FE01E80FF91FBF0113
:100CD000AF014C1B5D0B21912D3019F020812A3082
:100CE000B9F7FE01E058FE4F2081318122503109D1
:100CF0002417350739F5481B590B7E018EE7E81A92
:100D00008EEFF80AF7015183408381E090E08D93E4
:100D10009C93CE0180589F4F0E94191CCE01B6DED5
:100D2000F70180819181F8019183808390E080E0D8
:100D3000DF91CF911F910F91FF90EF90089581E087
:100D400090E0F6CF83E090E0F3CFCF93DF93EC0118
:100D5000FB01DC01A657BE4F8D919C911197019725
:100D600089F418974D915C91BE0160587F4F808146
:100D700091810E94191CCE0199DE90E080E0DF9104
:100D8000CF91089581E090E0FACF8A579E4FFC0101
:100D9000808191810895AF92BF92CF92DF92EF92BE
:100DA000FF920F931F93CF93DF93EC015B01FC0144
:100DB000E457FE4F80819181019759F57E01F394AC
:100DC0006E01ECE7CE1AEEEFDE0AF601008111812A
:100DD000970141E552E06DE373E08FE592E00E94F8
:100DE0002E13F60140815181B701F5018081918177
:100DF0000E94FB1BCE016CDE90E080E0DF91CF9182
:100E00001F910F91FF90EF90DF90CF90BF90AF9028
:100E1000089581E090E0F2CF2F923F924F925F923F
:100E20006F927F928F929F92AF92BF92CF92DF92FA
:100E3000EF92FF920F931F93CF93DF93EC01CB01BF
:100E40006A011E0128E7221A2EEF320AD1012D91E4
:100E50003C91232B09F097C06AE070E00E945F1A72
:100E60002B01770F660877088AE0882E912CF12CE9
:100E7000E12C8E0102571E4F5E01B0E8AB1ABEEFA7
:100E8000BB0AEC14FD046CF4C8010E941414892BF5
:100E9000B9F5C301B2010E945F16E1E08E1A910814
:100EA00081F75E01F0E8AF1AFEEFBF0AD5010D91A0
:100EB0001C919E0146E952E064E372E08FE592E006
:100EC0000E942E13F501808191818038910509F0EF
:100ED00043C0CE01DBDD82E090E0DF91CF911F9136
:100EE0000F91FF90EF90DF90CF90BF90AF909F90C9
:100EF0008F907F906F905F904F903F902F900895CC
:100F0000C8010E941414892B41F2F501808191815E
:100F10008038910508F0C1CFEC14FD040CF0BDCF72
:100F2000C8010E947E13D501ED91FC9111979F019C
:100F30002F5F3F4F2D933C93EC0FFD1F808322309A
:100F40003105F0F28A30E1F6319780818D30C1F6BB
:100F5000BFEFEB1AFB0AD4CF892B29F4CE0196DD23
:100F600083E090E0BACFCE14DF0429F0CE018EDD0D
:100F700084E090E0B2CF81E090E0D1018D939C932A
:100F800090E080E0AACF81E090E0A7CFCF92DF92FF
:100F9000EF92FF920F931F93CF93DF9300D000D077
:100FA000CDB7DEB78C016B017A0142E050E0B901A8
:100FB00033DF0097B1F02AE0289F8001299F100DB0
:100FC00011240F5F1F4FC8010F900F900F900F90CB
:100FD000DF91CF911F910F91FF90EF90DF90CF9015
:100FE0000895BE016D5F7F4FC8014ADE009749F04A
:100FF0002AE0289F8001299F100D11240E5F1F4FAA
:10100000E2CF8B819C810E9463179A838983BE0102
:101010006F5F7F4FC80199DE009749F02AE0289F53
:101020008001299F100D11240D5F1F4FCCCFC701E8
:101030000E9463177C01B6010E94F41B4B815C8106
:10104000B70189819A810E940B1C8C01892B11F0B8
:1010500004E010E0E114F10419F0C7010E946417E4
:1010600089819A81009709F4AECF0E946417ABCFB3
:101070002F923F924F925F926F927F928F929F92A8
:10108000AF92BF92CF92DF92EF92FF920F931F9396
:10109000CF93DF9300D01F92CDB7DEB79B838A83B7
:1010A000CB016A807B8028E7621A2EEF720AF30177
:1010B00020813181232B09F0CDC0EA81FB81EA57E1
:1010C000FE4F208131812430310509F0C6C06AE02D
:1010D00070E00E945F1A4B01770FAA08BB088AE0F4
:1010E000E82EF12C412C312C1982512C0A811B81C4
:1010F00002571E4FCA80DB80F0E8CF1AFEEFDF0AEE
:10110000C8010E941414892B59F5C501B4010E942D
:101110005F16212C21E0E21AF10811F0222081F360
:10112000EA80FB8040E8E41A4EEFF40AF701008100
:1011300011812A813B8142EA52E068E872E08FE542
:1011400092E00E942E13F7018081918180389105F1
:1011500009F068C08A819B8199DC84E090E01BC023
:10116000552079F1C8010E947E138F3F910509F443
:1011700057C0EA81FB81E058FE4F008111812A812E
:101180003B8146E952E066E672E08FE592E00E941C
:101190002E1383E090E00F900F900F90DF91CF918E
:1011A0001F910F91FF90EF90DF90CF90BF90AF9085
:1011B0009F908F907F906F905F904F903F902F9077
:1011C00008952981211104C0C8010E947E13382E80
:1011D000C8010E941414892BD9F0F60180819181F5
:1011E00080389105A8F4431498F4C8010E947E1336
:1011F000F60120813181A9014F5F5F4F5183408308
:101200004A815B81240F351FF90180834394E0CF2D
:1012100081E0431080E0212C582EF1E0F9837ACF51
:10122000252C78CF892B31F48A819B812FDC85E0B6
:1012300090E0B1CF211006C08A819B8127DC86E037
:1012400090E0A9CF81E090E0F3019183808390E06A
:1012500080E0A1CF81E090E09ECF82E090E09BCF44
:10126000AF92BF92CF92DF92EF92FF920F931F93B4
:10127000CF93DF93EC015B017C0184E7E81A8EEFEA
:10128000F80AF7018081918101E010E0019781F077
:1012900060E177E2CE01ECDE8C01892BA9F02AE037
:1012A000209FC001219F900D11248C010E5F1F4FC4
:1012B000C801DF91CF911F910F91FF90EF90DF90C8
:1012C000CF90BF90AF90089581E090E0F7019183B7
:1012D00080836E01F0E8CF1AFEEFDF0AF60140814D
:1012E0005181BE01CE0193950E94FB1B7E01FCE75C
:1012F000EF1AFEEFFF0AF60180819181F7019183D9
:101300008083CE01C3DBF70180819181F501918358
:101310008083CECFEF92FF920F931F93CF93DF93F3
:10132000FB0101900020E9F7EB019F0121503109F9
:1013300079018C0102571E4FCE15DF0529F0699106
:10134000C8010E949F13F8CF6DE0C8010E949F134F
:101350006AE0C801DF91CF911F910F91FF90EF904C
:101360000C949F132F923F924F925F926F927F92B5
:101370008F929F92AF92BF92CF92DF92EF92FF92A5
:101380000F931F93CF93DF9300D000D0CDB7DEB77C
:101390006C011B015A0149012701CA010E94631710
:1013A0007C01C8010E9463173C01B101C7010E9482
:1013B000F41BB401C3010E94F41B860102571E4FA7
:1013C000C8010E941414892B21F0C8010E947E13C9
:1013D000F7CF850197014CEA52E06BE871E08FE5A9
:1013E00092E00E94D012B701C60194DF43E050E0C2
:1013F000B201C60111DD009709F061C09E012F5FA7
:101400003F4FA501B701C60192DB009709F04EC01E
:1014100089819A810E9463179C838B83BE016D5FD3
:101420007F4FC60192DC009791F12AE0289F80014E
:10143000299F100D11240E5F1F4FE114F10419F0C4
:10144000C7010E9464176114710419F0C3010E945E
:1014500064178B819C81009711F00E946417C8016A
:101460000F900F900F900F90DF91CF911F910F91E0
:10147000FF90EF90DF90CF90BF90AF909F908F90B4
:101480007F906F905F904F903F902F90089549818B
:101490005A81B3018B819C810E940B1C31E020E0BA
:1014A000892B09F430E0032F122FC7CF2AE0289FA1
:1014B0008001299F100D11240D5F1F4FBECF2AE020
:1014C000289F8001299F100D11240C5F1F4FB5CF5D
:1014D000CF92DF92EF92FF920F931F93CF93DF9300
:1014E0006C01FC01EA57FE4F80819181C1E0D0E0A0
:1014F0000497C9F498E8E92E93E1F92E02E010E090
:1015000020E930E04CE050E068E670E0C6012ADFF8
:10151000EC01892B91F02AE02C9FC0012D9F900DAA
:101520001124EC012296CE01DF91CF911F910F91F2
:10153000FF90EF90DF90CF90089520E137E24AE0EE
:1015400050E066EA70E0C60121DD892BC1F088E831
:10155000E82E83E1F82E08E010E025E730E04BE0CC
:1015600050E06EE770E0C601FDDE009741F02AE032
:10157000289FE001299FD00D11242396D4CF63E04A
:1015800070E0C6015ADACFCF2F923F924F925F920E
:101590006F927F928F929F92AF92BF92CF92DF9283
:1015A000EF92FF920F931F93CF93DF93CDB7DEB7E8
:1015B0002A970FB6F894DEBF0FBECDBF4C017E83D5
:1015C0006D833A0138872F83280187011601BA8677
:1015D000A986CA010E9463177C01C2010E94631799
:1015E0005C01C6010E9463176C016D817E81C70199
:1015F0000E94F41B6F817885C5010E94F41BB8011D
:10160000C6010E94F41B840102571E4FC8010E94AC
:101610001414892B21F0C8010E947E13F7CF830197
:10162000970147EB52E06BEC71E08FE592E0B8D7A1
:10163000B701C4016FDE43E050E069857A85C401DB
:10164000EBDB892B09F063C09E012F5F3F4FA301A5
:10165000B701C4016CDA009709F05DC089819A81F5
:101660000E9463179C838B83BE016D5F7F4FC40113
:101670006CDB0097D9F12AE0289F4001299F900C4C
:10168000112483E0880E911CE114F10419F0C701C4
:101690000E946417A114B10419F0C5010E946417D7
:1016A000C114D10419F0C6010E9464178B819C817A
:1016B000009711F00E946417C4012A960FB6F8949F
:1016C000DEBF0FBECDBFDF91CF911F910F91FF9075
:1016D000EF90DF90CF90BF90AF909F908F907F90D2
:1016E0006F905F904F903F902F9008950B811C81D9
:1016F000A201B801C5010E940B1C4C01892B21F2EB
:10170000A101B801C6010E940B1C892B71F092E067
:10171000892E912CB9CF2AE0289F4001299F900C57
:10172000112484E0880E911CAFCF88248394912CDF
:10173000ABCF6F927F928F929F92AF92BF92CF92D8
:10174000DF92EF92FF920F931F93CF93DF93CDB76A
:10175000DEB76F970FB6F894DEBF0FBECDBF4C015A
:101760005C018AE7A81A8EEFB80AF501118210828F
:101770006DEB71E08FE295E00E943F1820E048E0B9
:1017800067E0CE0101960E9434156401F2E7CF1A9A
:10179000FEEFDF0A8B819C81F601938382838D812A
:1017A0009E81AF81B88584839583A683B78389851D
:1017B0009A85AB85BC8580879187A287B3878D8505
:1017C00084878E8585878F8598899787868789897D
:1017D000808B8A899B89928B818B8C899D89948B44
:1017E000838B8E89858B8F89988D978B868B898D3E
:1017F0009A8D918F808F8B8D9C8D938F828F8D8D05
:101800009E8D958F848F9F8D868D90FB80F991FBA7
:1018100081F9868FCE0101960E94E01440E659E0DE
:1018200060E070E0C6010E945D15A8E8EA2EA3E121
:10183000FA2E02E010E020E930E042E050E061E6FC
:1018400072E0C4018FDD892B21F461E070E0C401F6
:10185000F4D8F7EC6F2EF2E07F2EF50180819181B4
:10186000019711F1F30141915191619171913F0102
:10187000C6010E945D15E8E8EE2EE3E1FE2E02E0CF
:1018800010E020E930E042E050E061E672E0C4019F
:1018900069DD892B21F461E070E0C401CED8F7EE58
:1018A0006F16F2E07F06C9F6F5018081918121E093
:1018B00030E0019711F558E8A52E53E1B52E6EE002
:1018C000C62ED12C7CE3E72E72E0F72E0CE010E060
:1018D0002BE432E048E050E068E572E0C40154DEF9
:1018E0000097D1F181309105F1F04AE0489F9001D5
:1018F000499F300D11242E5F3F4FC9016F960FB6DF
:10190000F894DEBF0FBECDBFDF91CF911F910F9135
:10191000FF90EF90DF90CF90BF90AF909F908F900F
:101920007F906F90089548E8E42E43E1F42E02E0A2
:1019300010E020E930E04CE050E06FE272E0C401DA
:1019400011DD009749F04AE0489F9001499F300D12
:1019500011242D5F3F4FD1CF98E8A92E93E1B92EE6
:1019600029E0C22ED12C31E1E32E32E0F32E09E042
:1019700010E02BE132E049E050E065E272E0C401A2
:1019800003DE009761F08130910511F14AE0489F34
:101990009001499F300D11242C5F3F4FAECF88E856
:1019A000E82E83E1F82E02E010E020E930E04AE082
:1019B00050E066E072E0C401D5DC009749F04AE0EF
:1019C000489F9001499F300D11242B5F3F4F95CFC9
:1019D00062E070E0C40131D830E020E08ECF8F9219
:1019E0009F92AF92BF92CF92DF92EF92FF920F93AE
:1019F0001F93CF93DF934C01FC01EA57FE4F808188
:101A00009181C1E0D0E0029709F5A8E8AA2EA3E1F0
:101A1000BA2EB9E0CB2ED12CC8EEEC2EC1E0FC2EB4
:101A200009E010E022EF31E049E050E06CEF71E0B6
:101A3000C401AADD0097C1F08130910569F12AE067
:101A4000289FE001299FD00D11242296CE01DF911D
:101A5000CF911F910F91FF90EF90DF90CF90BF90AB
:101A6000AF909F908F900895F0E1EF2EF7E2FF2E58
:101A700002E010E020E930E04AE050E06DED71E076
:101A8000C40170DC009741F02AE0289FE001299F03
:101A9000D00D11242396DACF68E8A62E63E1B62E86
:101AA0007BE0C72ED12CE5EAEE2EE1E0FE2E0BE026
:101AB00010E021EB31E04BE050E06DEB71E0C40150
:101AC00063DD009719F18130910541F02AE0289FEC
:101AD000E001299FD00D11242496B8CF58E8E52EB7
:101AE00053E1F52E02E010E020E930E04CE050E058
:101AF00068E971E0C40136DC009741F02AE0289FD4
:101B0000E001299FD00D11242596A0CF48E8E42EAE
:101B100043E1F42E02E010E020E930E048E250E03A
:101B20006FE671E0C4011EDCEC01892B49F02AE06C
:101B30002C9FC0012D9F900D1124EC01269686CF7D
:101B400038E8E32E33E1F32E05E010E02AE830E038
:101B500048E050E069EC71E0C40104DC009761F0FA
:101B60008130910509F460C02AE0289FE001299F97
:101B7000D00D112427966ACF28E8E22E23E1F22E19
:101B80000DE010E023E531E04DE050E061E671E06A
:101B9000C401E8DB0097F1F08130910541F02AE0C3
:101BA000289FE001299FD00D112428964FCF98E857
:101BB000E92E93E1F92E02E010E020E930E04EE05A
:101BC00050E064E471E0C401CDDBC9E0D0E0892BD2
:101BD00009F43CCF88E8E82E83E1F82E02E010E01B
:101BE00020E930E044E250E06CE071E0C401BADB8F
:101BF000CAE0D0E0892B09F029CF20E930E048E0A5
:101C000050E063E071E0C401ADDBEC01892B91F49D
:101C100005E010E02AE830E048E050E069EC71E0CF
:101C2000C401A0DB019749F463E070E0C4010E94A5
:101C30001D050CCFCBE0D0E009CFCCE0D0E006CF43
:101C40008F929F92AF92BF92CF92DF92EF92FF92CC
:101C50000F931F93CF93DF934C01FC01EA57FE4F84
:101C600080819181C1E0D0E00397C9F440E1E42E86
:101C700047E2F42E07E010E021E331E04AE050E0D3
:101C800069E371E0C4016EDBEC01892BB1F02AE05D
:101C90002C9FC0012D9F900D1124EC012296CE01A6
:101CA000DF91CF911F910F91FF90EF90DF90CF9038
:101CB000BF90AF909F908F90089598E8A92E93E1E0
:101CC000B92E29E0C22ED12C38EEE32E31E0F32ECE
:101CD00009E010E022EF31E049E050E06CEF71E004
:101CE000C40152DC009719F18130910541F02AE0DE
:101CF000289FE001299FD00D11242396D0CF80E1A9
:101D0000E82E87E2F82E02E010E020E930E04AE019
:101D100050E062ED71E0C40125DB009741F02AE05C
:101D2000289FE001299FD00D11242496B8CF62E0AE
:101D300070E0C4010E941D05B2CF8F929F92AF92B6
:101D4000BF92CF92DF92EF92FF920F931F93CF93A8
:101D5000DF934C01FC01EA57FE4F80819181C1E085
:101D6000D0E00397B9F450E1E52E57E2F52E07E0F5
:101D700010E021E331E04AE050E069E371E0C401A2
:101D8000F1DA0097A9F02AE0289FE001299FD00D01
:101D900011242296CE01DF91CF911F910F91FF90D8
:101DA000EF90DF90CF90BF90AF909F908F9008956D
:101DB00028E8A22E23E1B22E3AE0C32ED12C42EE27
:101DC000E42E40E0F42E0AE010E02DEE30E04AE090
:101DD00050E068EF70E0C401D7DB009719F1813063
:101DE000910541F02AE0289FE001299FD00D1124A0
:101DF0002396D0CF98E8E92E93E1F92E02E010E087
:101E000020E930E04BE050E066ED70E0C401AADA72
:101E1000009741F02AE0289FE001299FD00D11246E
:101E20002496B8CF88E8E82E83E1F82E02E010E08F
:101E300020E930E044E250E061EB70E0C40192DA66
:101E4000009741F02AE0289FE001299FD00D11243E
:101E50002596A0CF20E137E24AE050E066EA70E044
:101E6000C40194D8EC01892B49F02AE02C9FC001D1
:101E70002D9F900D1124EC0126968CCF64E070E02C
:101E8000C4010E941D0586CF8F929F92AF92BF9290
:101E9000CF92DF92EF92FF920F931F93CF93DF9336
:101EA0007C014B018A01FC01EA57FE4F8081918140
:101EB000049709F062C08AE090E00E946317EC0189
:101EC0006BE970E00E94F41BBE01C70123DA84E6CF
:101ED000A82EB12C670182E7C81A8EEFD80AC60176
:101EE000A3D4892B09F03AC064E670E080E090E06A
:101EF000E6D690E038C0992391F3940142EC52E089
:101F00006BE471E08FE592E0A9D36AE1C60117D4D2
:101F100020E137E247E050E063E970E0C70136D8DE
:101F20008C01892B49F02AE0209FC001219F900D50
:101F300011248C010D5F1F4F209711F0CE01C4D7E3
:101F4000C801DF91CF911F910F91FF90EF90DF902B
:101F5000CF90BF90AF909F908F900895C601CED341
:101F600091E08E3331F681E0A81AB10809F0C3CFB1
:101F70009111C3CF02E010E0DFCF01E010E0E0CF2D
:101F8000CF92DF92EF92FF920F931F93CF93DF9345
:101F9000EC017B016A018901D0DE009789F04AE0FB
:101FA000489F9001499F300D1124C9010196DF918E
:101FB000CF911F910F91FF90EF90DF90CF900895F8
:101FC000A601B701CE0160DF009749F04AE0489FC3
:101FD0009001499F300D1124C9010296E8CFB80144
:101FE000CE013ED98C01CE010115110549F070DA00
:101FF0002AE0209FC001219F900D11240396D7CF86
:1020000067DA0097A1F24AE0489F9001499F300D9E
:102010001124C9010496CBCFCF93DF9300D0CDB765
:10202000DEB72091CC053091CD05CE01019621156A
:10203000310559F4805D95409A83898389819A811D
:102040000F900F90DF91CF910895821B930BF4CFE7
:10205000FC01A081B18184E991E88D939C93A081DA
:10206000B18181E012968C93A081B18182E01396B8
:102070008C930190F081E02D148290E080E008952F
:102080000F931F93CF93DF93EC018B01FB018081B2
:10209000918199838883828193819B838A838481C0
:1020A0008C83F4E08F9FC00111240DD79E838D8314
:1020B0004C8124E0429FA0011124F80165817681C2
:1020C000DF91CF911F910F910C94FB1BFC01858137
:1020D0009681009709F0F8C608958F929F92AF926B
:1020E000BF92CF92DF92EF92FF921F93CF93DF9335
:1020F000EC014A015B018C8190E00196880F991FE9
:10210000880F991FE0D66C011C8184E0189F700134
:1021100011246D817E81A701C6010E94FB1BF6017F
:10212000EE0DFF1D80829182A282B382DE82CD827B
:102130001F5F1C83DF91CF911F91FF90EF90DF9085
:10214000CF90BF90AF909F908F900895FC017183C6
:102150006083128208950F931F93CF93DF938C01B6
:10216000FC01C381D4812097E9F0FE0132972081E0
:10217000318147E0429FC001439F900D1124C80F59
:10218000D91F9E01F80183819481279782179307B5
:1021900019F0CE019BDFF5CF0297DF91CF911F9110
:1021A0000F9192C6DF91CF911F910F910895BF9229
:1021B000CF92DF92EF92FF920F931F93CF93DF9313
:1021C000EC016B010A8130E020E080E0081789F023
:1021D000EB81FC81E20FF31F60817181295F3F4F2A
:1021E000D6014D915C916417750709F456C08F5F55
:1021F000EDCF10E00F5F1F4F87E0B82EB09EC001FB
:10220000B19E900D112402965ED6FC0101931193AC
:102210007F010A810B9D800111246B817C81A801C3
:10222000CF010E94FB1B0E0D1F1DF601D8018B2D47
:1022300001900D928A95E1F7D60114968C91B4E045
:102240008B9FC00111243FD6F801968385838A8134
:10225000F7018B9DE00DF11D1124D60114964C91D0
:10226000B4E04B9FA0011124D60115966D917C918D
:10227000858196810E94FB1BFC82EB828A818F5FA5
:102280008A8390E080E0DF91CF911F910F91FF90C2
:10229000EF90DF90CF90BF90089581E090E0F3CF72
:1022A000AF92BF92CF92DF92EF92FF920F931F9364
:1022B000CF93DF9300D000D000D01F92CDB7DEB710
:1022C0007C016B0110E080E007E0D70112969C9141
:1022D0001297191778F5109F500111241396ED915C
:1022E000FC91EA0DFB1D40815181D6012D913C915D
:1022F000119742175307E1F412962D913C91828178
:1023000093818217930798F4B601CE010196B8DE47
:10231000F701A381B481AA0DBB1D87E0FE013196B0
:1023200001900D928A95E1F7CE010196CFDE81E012
:102330001F5FCBCF91E0892790E027960FB6F894E6
:10234000DEBF0FBECDBFDF91CF911F910F91FF90E8
:10235000EF90DF90CF90BF90AF9008952F923F9273
:102360004F925F926F927F928F929F92AF92BF92A5
:10237000CF92DF92EF92FF920F931F93CF93DF9351
:10238000CDB7DEB762970FB6F894DEBF0FBECDBFF4
:102390005C017B014A01FB018081F5018083FB0127
:1023A00081818F8702E010E0312C8F859889381663
:1023B000190608F04EC0F701E00FF11F20813181AE
:1023C00032272327322783819481998B3A8329836B
:1023D00090E09C838B831D8287E0FE013196DE01B5
:1023E000189601900D928A95E1F7CE0101966EDE66
:1023F0000B5F1F4F6701C00ED11E212C86010E19E5
:102400001F0989899A892816190698F4F60182818C
:10241000938120813181522E432E782E692EB30173
:10242000A201CE01089659DE2394F4E0CF0ED11C10
:10243000E5CFBE01685F7F4FCE01019621DEBE0170
:102440006F5F7F4FC501B3DECE0101963FDE33944F
:10245000ACCFCE0108963ADE81E090E00815190570
:1024600011F490E080E062960FB6F894DEBF0FBEE4
:10247000CDBFDF91CF911F910F91FF90EF90DF9033
:10248000CF90BF90AF909F908F907F906F905F9014
:102490004F903F902F9008957F928F929F92AF928E
:1024A000BF92CF92DF92EF92FF920F931F93CF9341
:1024B000DF9300D000D000D01F92CDB7DEB78C01E3
:1024C0007B01D12C87E0782ED70112968C91129740
:1024D000D81608F062C0D79C500111241396ED91D4
:1024E000FC91EA0DFB1D80809180C4010197059746
:1024F00010F0D394E9CFC12C80E0F8019281C91685
:1025000000F50380F481E02DC79CE00DF11D11243E
:10251000208131812815390591F4D70113966D91E9
:102520007C916A0D7B1DCE010196AADDBE016F5F15
:102530007F4FC801B5DECE010196C8DD81E0C394AE
:10254000DCCF8111D6CFF701638174816A0D7B1DC9
:10255000CE01019695DDBE016F5F7F4FC80127DE7A
:102560005C01CE010196B2DDAB2809F4C2CF81E057
:1025700090E027960FB6F894DEBF0FBECDBFDF9177
:10258000CF911F910F91FF90EF90DF90CF90BF9070
:10259000AF909F908F907F90089590E080E0E9CF7A
:1025A000CF92DF92EF92FF920F931F93CF93DF931F
:1025B0006B01EA017901BC018FE295E04FD567EE2E
:1025C00072E08FE295E04AD54AE050E0B6018FE232
:1025D00095E001D6BE018FE295E040D569EE72E04C
:1025E0008FE295E03BD5E7010E0D1F1DC017D10707
:1025F00041F1D880ED2C0D2C000CFF08C7010E9482
:10260000ED1B892BC9F480E3E81AF1088AE0E8168B
:10261000F10490F06EEE72E08FE295E01FD54AE093
:1026200050E068818FE295E0F2D56EEE72E08FE2C5
:1026300095E014D52196DACF6D2D8FE295E015D572
:10264000F9CF60EF72E08FE295E0DF91CF911F91BB
:102650000F91FF90EF90DF90CF9011C5CF92DF9256
:10266000EF92FF920F931F93CF93DF937B01D42FB1
:10267000C52FBC018FE295E0F1D467EE72E08FE2E6
:1026800095E0ECD44AE050E0B7018FE295E0A3D5A5
:102690006D2F7C2F8FE295E0E1D469EE72E08FE23E
:1026A00095E0DCD4ED2EFC2ED0E0C0E0680181E0A6
:1026B000C81AD108C017D10789F0F70161917F01CD
:1026C0004AE050E08FE295E0A2D5CC15DD0520F47C
:1026D00060E28FE295E0C9D42196ECCF60EF72E022
:1026E0008FE295E0DF91CF911F910F91FF90EF90D6
:1026F000DF90CF90C4C490E080E00895209124053D
:102700003091250528173907B9F49091E20480919A
:10271000E304981789F0E091E204F0E0EC51FB4FFC
:1027200080812091E20430E02F5F3F4F2F733327E9
:102730002093E20490E008958FEF9FEF0895EF92C9
:10274000FF920F931F93CF93DF93DC015C96ED9084
:10275000FC905D97E114F10479F481E090E0139628
:102760009C938E93129790E080E0DF91CF911F9120
:102770000F91FF90EF9008955196ED91FC91529733
:1027800050968C915097982F90950FB75E962C91FC
:102790005E97122F127021FD6095F894208111230D
:1027A00019F1282B2083E7012197F1F728E0462F24
:1027B00050E0308160FF1AC0382B3083E701219749
:1027C000F1F7BA0175956795215089F7112381F0CA
:1027D0008081892380830FBF5C968D919C910197A6
:1027E000F1F781E090E0C1CF2923DCCF3923E5CF99
:1027F0009081892BEFCF08952091240530912505F4
:102800002817390771F49091E2048091E304981736
:1028100041F0E091E204F0E0EC51FB4F808190E068
:1028200008958FEF9FEF089520912405309125059D
:102830002817390761F48091E3042091E20490E0C5
:10284000805C9F4F821B910960E470E038C690E085
:1028500080E00895E0912405F0912505E817F90737
:1028600069F4A389B4899C918589809589238C9387
:10287000109225051092240581E0089580E00895C6
:10288000CF93DF93EC018A8D9B8D892BF9F080919A
:102890002405909125058C179D07C1F0009709F03C
:1028A000D9DF8E8D8E7F8E8F1092E3041092E2041A
:1028B000D0932505C0932405EB89FC8980819D89EF
:1028C000892B808381E0DF91CF91089580E0FBCF59
:1028D0001F920F920FB60F9211242F933F934F9395
:1028E0005F936F937F938F939F93AF93BF93EF9378
:1028F000FF93E0912405F0912505309749F0A685D6
:10290000B7858585968D91FF14C09C918923A1F48C
:10291000FF91EF91BF91AF919F918F917F916F91B7
:102920005F914F913F912F910F900FBE0F901F908D
:1029300018959C91892361F7A389B4899C91858915
:10294000809589238C93868997890197F1F7608D0B
:10295000718DA685B785558538E020E0CB010197BC
:10296000F1F7822F90E095958795282F4C9145237C
:1029700009F02068315091F7868D81FD2095809176
:10298000E30490E001968F7399273091E2043817A1
:1029900099F0A091E304B0E0AC51BB4F2C9380932D
:1029A000E304828D938D0197F1F7A389B4898C910B
:1029B0009589892B8C93ACCF868D8160868FF1CFE2
:1029C00026EF32E0FC013183208344CF1F93CF9365
:1029D000DF93EC01162F6E8D6695617081E068279C
:1029E000812F43D261E0812F04D2812F90E0FC013E
:1029F000E858FD4FE491E88BFC01E457FD4FE4916A
:102A0000F0E0EE0FFF1FE655FD4F859194919A8BF4
:102A1000898BDF91CF911F9108951F93CF93DF93FF
:102A2000EC01162F60E0812FE4D18E8D81FD03C073
:102A300061E0812F1AD21C87812F90E0FC01E858B9
:102A4000FD4FE491ED87FC01E457FD4FE491F0E088
:102A5000EE0FFF1FE056FD4F859194919F878E8763
:102A6000DF91CF911F9108951F93CF93DF93EC01D6
:102A7000162F1B821A8288EE93E0A0E0B0E08C83D0
:102A80009D83AE83BF8386EF92E0998388831F8AFC
:102A90001E8A198E188E1B8E1A8E1D8E1C8E8E8D80
:102AA0008E7F20FB81F98E8F642FCE018FDF612F07
:102AB000CE01DF91CF911F91B0CFCF93DF93EC0187
:102AC0009A01AB011B8E1A8E198E188E1F8A1E8AD0
:102AD00060E079E08DE390E027D5F901C901039723
:102AE0002430310510F481E090E09D8F8C8F6C854F
:102AF000663108F052C0C9019695879584319105D9
:102B000008F44FC043979F8B8E8BC901059736976A
:102B100010F481E090E0998F888FC901880F991F88
:102B2000280F391F36952795369527952D30310575
:102B3000D8F12C5031093B8F2A8F9091680084E0A6
:102B4000683048F021E06E3008F420E081E001C0F8
:102B5000880F2A95EAF7892B809368009C852DE6DB
:102B600030E0983050F02BE630E09E3030F02CE62C
:102B700030E0963110F030E020E03C8B2B8B292F99
:102B800030E09830A0F481E001C0880F9A95EAF710
:102B90008D8B8C8D9D8D0197F1F7CE01DF91CF91BB
:102BA0006FCE81E090E0AFCF21E030E0C4CF9E3027
:102BB00040F42850310981E001C0880F2A95EAF7D6
:102BC000E7CF2E503109F7CF1F920F920FB60F9219
:102BD00011242F933F938F939F93AF93BF93809133
:102BE000270590912805A0912905B0912A053091DB
:102BF000260523E0230F2D3758F50196A11DB11DA1
:102C0000209326058093270590932805A0932905F6
:102C1000B0932A0580912B0590912C05A0912D054C
:102C2000B0912E050196A11DB11D80932B059093A7
:102C30002C05A0932D05B0932E05BF91AF919F91C8
:102C40008F913F912F910F900FBE0F901F9018956D
:102C500026E8230F0296A11DB11DD2CF2FB7F894FD
:102C600060912705709128058091290590912A058A
:102C70002FBF08953FB7F89480912B0590912C05B4
:102C8000A0912D05B0912E0526B5A89B05C02F3F1C
:102C900019F00196A11DB11D3FBFBA2FA92F982F82
:102CA0008827BC01CD01620F711D811D911D42E07D
:102CB000660F771F881F991F4A95D1F708958F9245
:102CC0009F92AF92BF92CF92DF92EF92FF926B01F1
:102CD0007C01D0DF4B015C01C114D104E104F1049B
:102CE000D9F0F0D0C7DF681979098A099B09683ED5
:102CF00073408105910580F321E0C21AD108E108F3
:102D0000F10888EE880E83E0981EA11CB11CC11446
:102D1000D104E104F10431F7FF90EF90DF90CF9000
:102D2000BF90AF909F908F900895789484B5826003
:102D300084BD84B5816084BD85B5826085BD85B55F
:102D4000816085BDEEE6F0E0808181608083E1E80E
:102D5000F0E0108280818260808380818160808346
:102D6000E0E8F0E0808181608083E1EBF0E0808149
:102D700084608083E0EBF0E0808181608083EAE71B
:102D8000F0E08081846080838081826080838081A4
:102D9000816080838081806880831092C100089563
:102DA000833081F028F4813099F08230A9F00895C1
:102DB0008730A9F08830C9F08430B1F48091800068
:102DC0008F7D03C0809180008F778093800008956D
:102DD00084B58F7784BD089584B58F7DFBCF8091B6
:102DE000B0008F778093B00008958091B0008F7D00
:102DF000F9CFCF93DF9390E0FC01E858FD4F249189
:102E000084579D4FFC0184918823C9F090E0880F7E
:102E1000991FFC01EC54FD4FA591B491FC01E655BE
:102E2000FD4FC591D49161110DC09FB7F8948C915D
:102E3000209582238C938881282328839FBFDF914C
:102E4000CF910895623051F49FB7F8943C91822F4E
:102E5000809583238C93E8812E2BEFCF8FB7F89446
:102E6000EC912E2B2C938FBFEACF1F93CF93DF9340
:102E7000162F282F30E0F901EC59FD4F8491F9010C
:102E8000E858FD4FD491F901E457FD4FC491CC238C
:102E900099F0811185DFEC2FF0E0EE0FFF1FE65572
:102EA000FD4FA591B4918FB7F894EC91111108C022
:102EB000D095DE23DC938FBFDF91CF911F910895D2
:102EC000DE2BF8CF089566C3FDC31F920F920FB695
:102ED0000F9211242F938F939F93EF93FF93E09181
:102EE0003F05F09140058081E0914505F091460550
:102EF00082FD1BC09081809148058F5F8F73209168
:102F00004905821741F0E0914805F0E0E15DFA4F94
:102F1000958F80934805FF91EF919F918F912F910D
:102F20000F900FBE0F901F9018958081F4CF1F92C5
:102F30000F920FB60F9211242F933F934F935F93ED
:102F40006F937F938F939F93AF93BF93EF93FF9371
:102F50008FE295E0CED1FF91EF91BF91AF919F911C
:102F60008F917F916F915F914F913F912F910F9032
:102F70000FBE0F901F9018958FE295E070D121E061
:102F8000892B09F420E0822F0895EFE2F5E0138207
:102F9000128288EE93E0A0E0B0E084839583A6835C
:102FA000B7838BE093E09183808385EC90E09587F5
:102FB000848784EC90E09787868780EC90E0918B03
:102FC000808B81EC90E0938B828B82EC90E0958BF0
:102FD000848B86EC90E0978B868B118E128E138EED
:102FE000148E0895AF92BF92CF92DF92EF92FF922C
:102FF0000F931F93CF93DF936C017B018B01040F21
:10300000151FEB015E01AE18BF08C017D10759F0BC
:103010006991D601ED91FC910190F081E02DC601FE
:103020000995892B79F7C501DF91CF911F910F91F8
:10303000FF90EF90DF90CF90BF90AF900895FB018D
:1030400001900020E9F73197AF01461B570BDC01D7
:10305000ED91FC910280F381E02D099461157105D9
:1030600009F0EDCF90E080E00895DC01ED91FC9156
:103070000190F081E02D099464E073E0E0CF0F93BC
:103080001F93CF93DF938C01D0E0C0E061157105F1
:1030900011F0D5DFEC01C801EFDF8C0F9D1FDF9130
:1030A000CF911F910F9108958F929F92AF92BF92EF
:1030B000EF92FF920F931F93CF93DF93CDB7DEB7BD
:1030C000A1970FB6F894DEBF0FBECDBF7C01FA0109
:1030D000CB0119A2223008F42AE08E010F5D1F4FA8
:1030E000822E912CB12CA12CBF01A5019401FAD103
:1030F000F901CA016A3004F5605DD8016E938D0153
:10310000232B242B252B81F790E080E0109719F0DA
:10311000BD01C70194DFA1960FB6F894DEBF0FBEC4
:10312000CDBFDF91CF911F910F91FF90EF90BF9096
:10313000AF909F908F900895695CDFCFCF92DF9220
:10314000EF92FF920F931F93CF93DF93EC016A01ED
:103150007B012115310579F4E881F9810190F08135
:10316000E02D642FDF91CF911F910F91FF90EF9091
:10317000DF90CF9009942A303105D9F42AE0F7FE88
:1031800018C06DE272DF8C0144275527BA014C1933
:103190005D096E097F092AE0CE0186DF800F911F4D
:1031A000DF91CF911F910F91FF90EF90DF90CF9023
:1031B0000895B701A601CE01DF91CF911F910F9124
:1031C000FF90EF90DF90CF906FCF9A01AB01770F18
:1031D000660B770BB3CF0F931F93CF93DF93EC0165
:1031E000F4DF8C01CE0148DF800F911FDF91CF917A
:1031F0001F910F9108952115310541F4DC01ED91E6
:10320000FC910190F081E02D642F09944DCF9A013B
:10321000462F50E070E060E0EECF9A01AB0170E025
:1032200060E0E9CF0F931F93CF93DF93EC01F5DFBD
:103230008C01CE0121DF800F911FDF91CF911F9173
:103240000F910895089571DDFDDF0E947802CCE6AC
:10325000D9E10E948D012097E1F33ED0FACFFC0125
:10326000918D228D892F90E0805C9F4F821B910968
:103270008F7399270895FC01918D828D981731F0F5
:10328000828DE80FF11D858D90E008958FEF9FEFFF
:103290000895FC01918D828D981761F0A28DAE0F7B
:1032A000BF2FB11D5D968C91928D9F5F9F73928F02
:1032B00090E008958FEF9FEF0895FC01538D448DAA
:1032C000252F30E0842F90E0821B930B541710F0D1
:1032D000CF960895019708958CEB97E1892B41F0E3
:1032E00080E090E0892B21F047DE81110C940000F2
:1032F0000895FC01A48DA80FB92FB11DA35ABF4F8B
:103300002C91848D90E001968F739927848FA689E4
:10331000B7892C93A089B1898C9180648C93938D0B
:10332000848D981306C00288F389E02D80818F7DFB
:1033300080830895CF93DF93EC01888D8823B1F0CB
:10334000AA89BB89E889F9898C9185FD03C08081B0
:1033500086FD0CC00FB607FCF7CF8C9185FFF2CF2E
:10336000808185FFEDCFCE01C4DFEACFDF91CF9121
:103370000895EF92FF920F931F93CF93DF93EC0189
:10338000F62E81E0888F9B8D8C8D981316C0E8896E
:10339000F989808185FF11C0EE89FF896083E88902
:1033A000F98980818064808381E090E0DF91CF9112
:1033B0001F910F91FF90EF9008950B8D10E00F5F1C
:1033C0001F4F0F731127E02E8C8D8E110BC00FB67F
:1033D00007FCFACFE889F989808185FFF5CFCE0116
:1033E00088DFF2CFEB8DEC0FFD2FF11DE35AFF4F7D
:1033F000F0820B8FEA89FB8980818062D4CFCF92E3
:10340000DF92EF92FF921F93CF93DF93EC016A015B
:103410007B01122FE889F98982E08083C11481EE53
:10342000D806E104F10499F060E079E08DE390E0E2
:10343000A701960157D021503109410951095695EC
:10344000479537952795211580E1380790F0E88951
:10345000F989108260E874E88EE190E0A701960196
:1034600041D0215031094109510956954795379569
:103470002795EC85FD853083EE85FF852083188EAA
:10348000EC89FD891083EA89FB89808180618083D2
:10349000EA89FB89808188608083EA89FB89808151
:1034A00080688083EA89FB8980818F7D8083DF91BA
:1034B000CF911F91FF90EF90DF90CF90089597FBF1
:1034C000072E16F4009406D077FD08D049D007FCEB
:1034D00005D03EF4909581959F4F08957095619524
:1034E0007F4F0895A1E21A2EAA1BBB1BFD010DC040
:1034F000AA1FBB1FEE1FFF1FA217B307E407F507A4
:1035000020F0A21BB30BE40BF50B661F771F881F7F
:10351000991F1A9469F760957095809590959B0115
:10352000AC01BD01CF010895052E97FB16F4009460
:103530000FD057FD05D0D6DF07FC02D046F408C0F7
:1035400050954095309521953F4F4F4F5F4F0895CF
:1035500090958095709561957F4F8F4F9F4F0895FF
:10356000AA1BBB1B51E107C0AA1FBB1FA617B707A9
:1035700010F0A61BB70B881F991F5A95A9F78095C5
:103580009095BC01CD010895EE0FFF1F0590F491B9
:10359000E02D09940F931F93CF93DF938230910511
:1035A00010F482E090E0E091CE05F091CF0520E0AC
:1035B00030E0A0E0B0E0309719F140815181028104
:1035C000138148175907C8F08417950769F41097B5
:1035D00031F012960C93129713961C9327C0009308
:1035E000CE051093CF0522C02115310519F04217E1
:1035F000530718F49A01BD01EF01DF01F801DBCF99
:1036000021153105F9F0281B390B2430310580F4E0
:103610008A819B816115710521F0FB01938382836F
:1036200004C09093CF058093CE05FE01329644C02E
:10363000FE01E20FF31F81939193225031093983E8
:1036400028833AC02091CC053091CD05232B41F43D
:1036500020910201309103013093CD052093CC05D8
:1036600020910001309101012115310541F42DB760
:103670003EB74091040150910501241B350BE091A8
:10368000CC05F091CD05E217F307A0F42E1B3F0BFC
:103690002817390778F0AC014E5F5F4F24173507C4
:1036A00048F04E0F5F1F5093CD054093CC0581939A
:1036B000919302C0E0E0F0E0CF01DF91CF911F9144
:1036C0000F910895CF93DF93009709F481C0FC0117
:1036D000329713821282A091CE05B091CF05109738
:1036E00081F420813181820F931F2091CC0530918C
:1036F000CD052817390751F5F093CD05E093CC059A
:1037000067C0ED0120E030E0CE17DF0740F44A81CA
:103710005B819E0141155105F1F0EA01F5CFD3839C
:10372000C28340815181840F951FC817D90759F46E
:1037300088819981840F951F0296918380838A8165
:103740009B81938382832115310529F4F093CF0562
:10375000E093CE053DC0E901FB83EA83499159918D
:10376000C40FD51FEC17FD0761F480819181840F90
:10377000951F0296E90199838883828193819B83B7
:103780008A83E0E0F0E012968D919C911397009768
:1037900019F0FD01DC01F7CF8D919C9111979D01EE
:1037A0002E5F3F4F820F931F2091CC053091CD05A6
:1037B0002817390769F4309729F41092CF05109231
:1037C000CE0502C013821282B093CD05A093CC0522
:1037D000DF91CF91089585FD3BC08062911138C083
:1037E00081568A51E0F70895FB01DC0105900D92A6
:1037F0000020E1F70895FB01DC0102C001900D9269
:1038000041505040D8F70895DC0101C06D934150FC
:103810005040E0F70895FB01DC014150504030F08A
:103820008D910190801919F40020B9F7881B990B2C
:103830000895FB01DC014150504048F001900D9289
:103840000020C9F701C01D9241505040E0F7089593
:1038500099278827089511E0C2E6D1E003C0FE0150
:0E38600093DE2196C436D107D1F7F894FFCF3E
:10386E000000D00520002C0100004D454D4F52594F
:10387E00313D004D454D4F5259323D004D454D4F56
:10388E0052593D00525350204C454E20004845524F
:10389E00450047534D20536869656C6420696E6915
:1038AE0074004552524F523A20434F554C44204ECD
:1038BE004F5420494E495449414C495A452047538B
:1038CE004D204D4F44554C4520004552524F523AD3
:1038DE0020434F554C44204E4F54204154544143A5
:1038EE0048204750525320004552524F523A2047DB
:1038FE004554204C415354205343484520005748CB
:10390E0041545361736466004552524F523A2044FB
:10391E004554544143482047505253200044423AA4
:10392E002047534D5F53544154453D47534D5F4FD0
:10393E0046465F53544154450044423A2047534D46
:10394E005F53544154453D47534D5F4F4E5F535463
:10395E004154450044423A2047534D5F535441541D
:10396E00453D47534D5F50494E5F535441544500BA
:10397E0044423A2047534D5F53544154453D4753BB
:10398E004D5F49505F53544154450044423A2047DD
:10399E00534D5F53544154453D47534D5F5443502F
:1039AE005F5354415445005448495320003100326E
:1039BE0000534F434B455420425546464552002F27
:1039CE00686F6D652F6A6C722F446F63756D656ECF
:1039DE0074732F6262642F61726475696E6F2F6CDF
:1039EE0069622F67736D4172642F67736D5F6172C9
:1039FE00642E63707000524543565F4255464645ED
:103A0E005200524543565F4255464600434D4420B0
:103A1E0042554646455200434D445F425546464543
:103A2E0052004441544100B004000060090000C03F
:103A3E0012000080250000004B00000096000000E0
:103A4E00E1000000C201003A00203A205B005C0059
:103A5E005D00000000009F13F2177B13FB1314147C
:103A6E007E13FC130D0A0000000000B919F2175D59
:0A3A7E00199A192F1949193B190074
:00000001FF
