:1000000063C0000089C0000087C00000F3C6000084
:10001000F1C60000EFC600007FC000007DC00000F8
:100020007BC0000079C0000077C0000075C00000F0
:1000300073C0000071C000006FC000006DC0000000
:100040000C94860869C000000C94550B0C94870B27
:1000500063C0000061C000005FC000005DC0000020
:100060005BC0000059C00000000000080002010051
:100070000003040700000000000000000102040863
:100080001020408001020408102001020408102002
:10009000040404040404040402020202020203032E
:1000A00003030303000000002300260029000000D2
:1000B0000000250028002B0000000000240027007D
:1000C0002A00F401B50BF70111241FBECFEFD8E0D1
:1000D000DEBFCDBF12E0A0E0B1E0E0E2F3E202C09B
:1000E00005900D92A836B107D9F724E0A8E6B2E052
:1000F00001C01D92A539B207E1F710E0C3E6D0E0D8
:1001000004C02197FE010E94D70EC136D107C9F75E
:100110000E94440D0C94841173CFCF93DF93EC01B4
:1001200061E371E084EF93E00E942E0CCA30D105A8
:100130002CF460E384EF93E00E942F0C4AE050E03F
:10014000BE0184EF93E0DF91CF910C94EA0C60D371
:100150004AE050E0BC0184EF93E00E94EA0C5ED3D9
:10016000DCDF62D3DADF6AEF71E084EF93E00E94B4
:100170002E0C60D34AE050E0BC0184EF93E00E9473
:10018000EA0C6AEF71E084EF93E00E942E0C58D3E2
:100190004AE050E0BC0184EF93E00E94EA0C6AEF71
:1001A00071E084EF93E00E942E0C50D34AE050E0BF
:1001B000BC0184EF93E00E94EA0C84EF93E00C947E
:1001C000360C1F93CF93DF93CDB7DEB7C752D14024
:1001D0000FB6F894DEBF0FBECDBF26E040E855E273
:1001E00060E070E084EF93E00E94130ECE01019670
:1001F0002FD3DE011196EAE6F2E08D91819383E040
:10020000EA36F807D1F7CF5FDE4F88819981C15078
:10021000D14090936B0380936A03CB5FDE4F88815C
:100220009981C550D14090936F0380936E03C95F4D
:10023000DE4F88819981AA81BB81C750D1408093CC
:10024000700390937103A0937203B0937303C55F1F
:10025000DE4F88819981AA81BB81CB50D1408093A8
:10026000740390937503A0937603B0937703C15FF3
:10027000DE4F8881CF50D14080937803C05FDE4F3E
:100280008881C051D14080937903CF5EDE4F888151
:100290009981C151D14090937B0380937A03CD5EC5
:1002A000DE4F8881C351D14080937C03CC5EDE4F0A
:1002B00088819981C451D14090937E0380937D03BE
:1002C000CA5EDE4F88819981C651D14090938003E8
:1002D00080937F03C85EDE4F8881C851D1408093F0
:1002E0008103C75EDE4F88819981C951D1409093C7
:1002F000830380938203C55EDE4F88819981CB5151
:10030000D1409093850380938403C35EDE4F888140
:100310009981CD51D1409093870380938603C15E2C
:10032000DE4F88819981CF51D1409093890380938A
:100330008803CF5DDE4F9881C152D14080918A03FE
:1003400090FB80F99695917090FB81F980938A03D8
:10035000CE018D5F9E4FC2D56AE071E084EF93E0DD
:100360000E94490C8AE692E05BD3009711F14AE0C3
:10037000BC01CE018E5D9E4F0E94B40A6AE171E01D
:10038000CE0101960E946E0ABE016E5D7E4FCE01C7
:1003900001960E94440BBC0184EF93E00E94390C4B
:1003A000CE0101960E94060ACE018E5D9E4F0E94EC
:1003B000060A11E01093690263E371E084EF93E0B1
:1003C0000E94490CC4DE80916902882399F310933E
:1003D0008B03C95DDE4F0FB6F894DEBF0FBECDBFF5
:1003E000DF91CF911F9108958AE692E031C28CE6A9
:1003F00093E074C5CF93DF9300D000D000D0CDB789
:10040000DEB780918B038823B9F084EF93E00E94DC
:10041000500D1816190684F464EF73E0CE010196AE
:100420000E942C0DBE016F5F7F4F84EF93E00E940E
:10043000390CCE010196EAD780916802811113C070
:10044000EDD169E371E084EF93E00E94490C81E013
:100450008093680226960FB6F894DEBF0FBECDBF1C
:10046000DF91CF910895DAD1F5CF6F927F928F927D
:100470009F92AF92BF92CF92DF92EF92FF920F9333
:100480001F93CF93DF936B017C01EA018CE3882EED
:10049000912CA12CB12CC701B601A50194010E9499
:1004A000850E6883CA01B901A50194010E94850ED9
:1004B0006983C701B60120E13EE040E050E00E94C0
:1004C000850ECA01B90128E130E040E050E00E9409
:1004D000850E6A83C701B60120E831E541E050E0AE
:1004E0000E94850E69017A01CA01B9016C5F7F4FD4
:1004F0008F4F9F4F27E030E040E050E00E94850E94
:100500006F5F6B83812C912C540140E094E6692E3F
:10051000712C00E911E0242F30E02E54384FF901FE
:10052000E370FF273097F9F4C901B3010E94720EFE
:10053000892B31F4C901B8010E94720E892B99F4FC
:100540008EE691E0A0E0B0E0880E991EAA1EBB1EC8
:10055000D501C401AA27BB27C816D906EA06FB069F
:1005600038F04F5FD8CF8DE691E0A0E0B0E0ECCF5F
:100570004E83309709F04CC0C90164E670E00E94D8
:10058000720E892B39F4C90160E971E00E94720E84
:10059000892BF1F58EE691E0A0E0B0E0881A990A87
:1005A000AA0ABB0AC818D908EA08FB08C90164E608
:1005B00070E00E94720E8C01C90160E971E00E9436
:1005C000720EAEE4B1E020E04C9150E060E070E0EB
:1005D0001196C416D506E606F70638F0C41AD50AF1
:1005E000E60AF70A2F5F2C30C1F42F5F2D83C394E6
:1005F000CC82DF91CF911F910F91FF90EF90DF9010
:10060000CF90BF90AF909F908F907F906F90089504
:100610008DE691E0A0E0B0E0C1CF2130A9F630979F
:1006200039F40115110511F4009711F44DE1CDCF06
:100630004CE1CBCFCF92DF92EF92FF926B017C0126
:1006400080919C0390919D03A0919E03B0919F0384
:100650008C159D05AE05BF0569F040EA53E0C70162
:10066000B60103DFC0929C03D0929D03E0929E03EB
:10067000F0929F03FF90EF90DF90CF900895DADF24
:100680008091A60390E08E54984F08950F931F9386
:10069000609398037093990380939A0390939B03BC
:1006A0000091060110910701209108013091090184
:1006B000DC01CB01800F911FA21FB31F8093900319
:1006C00090939103A0939203B093930382E090E000
:1006D00090938F0380938E0363D5609394037093FC
:1006E000950380939603909397031F910F9108951C
:1006F000CF92DF92EF92FF920F931F9351D5C0904C
:100700009403D0909503E0909603F09097038B01AB
:100710009C010C191D092E093F09809198039091A5
:100720009903A0919A03B0919B03083E13402105C1
:100730003105D0F00196A11DB11D809398039093CF
:100740009903A0939A03B0939B03B701A601485164
:100750005C4F6F4F7F4F409394035093950360938A
:10076000960370939703CACF4091900350919103E1
:10077000609192037091930384179507A607B707BA
:1007800068F0E0918C03F0918D03309739F0099572
:10079000611571058105910581F078DF60919803FD
:1007A0007091990380919A0390919B031F910F91EF
:1007B000FF90EF90DF90CF900895809198039091F3
:1007C0009903A0919A03B0919B0340910601509127
:1007D00007016091080170910901840F951FA61F00
:1007E000B71F8093900390939103A0939203B093CB
:1007F000930381E090E020918E0330918F03232BAF
:1008000011F480E090E090938F0380938E03C6CF25
:100810006FDF10DF8091A20390E0089569DF0ADFA7
:100820008091A10390E0089563DF04DF8091A0032D
:1008300090E008955DDFFEDE8091A40390E00895CE
:1008400057DFF8DE8091A50390E0089551DF17CFC0
:10085000CF93DF93EC0120E048E067E08E5F9E4F8E
:1008600091D3D39519821882DF91CF9108959F92E9
:10087000AF92BF92CF92DF92EF92FF920F931F93AE
:10088000CF93DF938C016B015A01E9017C012EEFBC
:10089000E21AF20AC7015AD2892B29F4BE01DD0FF0
:1008A000880B990BAED4C70151D2892B99F46AE514
:1008B00071E084EF93E0EDD782E090E0DF91CF919B
:1008C0001F910F91FF90EF90DF90CF90BF90AF906E
:1008D0009F900895E801D3951982188280E091E0F5
:1008E000F8019C01119221503040E1F7C7012ED24E
:1008F000892B31F0888199818F3F9105D9F0D4F00F
:10090000488159814115F1E05F0741F46BE771E0DF
:1009100084EF93E0BED781E090E0D0CFF501518322
:100920004083B801F601808191810E94D61080E059
:1009300090E0C4CFC70170D1982E67E971E084EFD1
:1009400093E08CD7692D092C000C770B4AE050E01E
:1009500084EF93E00E94F00C888199819C012F5FC5
:100960003F4F39832883800F911FFC019082BECFB7
:10097000CF92DF92EF92FF920F931F93CF93DF936B
:10098000CDB7DEB760970FB6F894DEBF0FBECDBF10
:100990008C017A0169018E5F9E4F6BD79601AE0183
:1009A000415F5F4FBE01635F7F4FC80160DF8C0115
:1009B0004AE0BC01CE010796D7D56FE971E0CE01C0
:1009C00001968CD5BE01695F7F4FCE0101965CD642
:1009D000BC0184EF93E04DD7CE01019617D5CE012F
:1009E000079614D5012BD1F4B7018D859E850E9401
:1009F000C61021E0892B09F020E0822F90E060965C
:100A00000FB6F894DEBF0FBECDBFDF91CF911F911F
:100A10000F91FF90EF90DF90CF90089521E0EDCF00
:100A20004F925F926F927F92AF92BF92CF92DF927E
:100A3000EF92FF920F931F93CF93DF93CDB7DEB763
:100A400062970FB6F894DEBF0FBECDBF8C016EEA81
:100A500071E084EF93E01DD74AE060E875E2CE01D3
:100A6000079682D563EC71E0CE01019637D5BE01C1
:100A7000695F7F4FCE01019607D6BC0184EF93E0FA
:100A8000F8D6CE010196C2D4CE010796BFD4680134
:100A90008EEFC81AD80A40E855E260E070E0C6015F
:100AA0009AD261EE71E0CE01019618D528E833E1C3
:100AB00044EE51E0BE016F5F7F4FC80159DF5C011A
:100AC000CE010196A3D485E2E82E82E0F82EA1148F
:100AD000B10409F442C0F7014190519061907190C6
:100AE0007F012AE0B301A201CE01079667D567EE28
:100AF00071E0CE010196F2D4BE01695F7F4FCE0155
:100B00000196C2D5BC0184EF93E0B3D6CE01019625
:100B10007DD4CE0107967AD4B301A201C6015BD27F
:100B200061EE71E0CE010196D9D428E833E144EEBC
:100B300051E0BE016F5F7F4FC8011ADF3C01CE015B
:100B4000019664D4672849F0F5E4EF16F2E0FF0659
:100B500009F0BDCF01E010E043C06CEF71E084EF1D
:100B600093E097D66CE072E0CE010D96B7D461E1C8
:100B700072E0CE010796B2D4BE01635F7F4FCE0113
:100B8000079682D5BC01CE010196D1D428E833E185
:100B900044EE51E0BE016F5F7F4FC801E9DE7C018A
:100BA000CE01019633D4CE01079630D4CE010D96F6
:100BB0002DD4EF2859F56AE172E0CE0101968ED46A
:100BC00024EF31E044EE51E0BE016F5F7F4FC8017A
:100BD000CFDE8C01CE01019619D401151105C9F49F
:100BE000C80162960FB6F894DEBF0FBECDBFDF918D
:100BF000CF911F910F91FF90EF90DF90CF90BF901A
:100C0000AF907F906F905F904F90089502E010E05A
:100C1000E7CF03E010E0E4CF2091E9033091EA034D
:100C200028173907B9F49091A7038091A803981762
:100C300089F0E091A703F0E0E755FC4F8081209117
:100C4000A70330E02F5F3F4F2F7333272093A70375
:100C500090E008958FEF9FEF0895FF920F931F93F9
:100C6000CF93DF93DC015C964D915C915D974115CC
:100C7000510571F481E090E013969C938E93129746
:100C800080E090E0DF91CF911F910F91FF90089548
:100C90005196ED91FC91529750968C915097982FC8
:100CA00090951FB75E962C915E97022F027021FDE2
:100CB0006095F89420810023C1F0282B2083EA015D
:100CC0002197F1F739E0F32EFA94FF2099F0262FBF
:100CD00030E060FF0CC06081682B6083EA012197DF
:100CE000F1F7B90175956795EFCF2923E7CF6081BB
:100CF0006923F3CF002369F08081982390831FBF7D
:100D00005C968D919C915D970197F1F781E090E061
:100D1000B9CF9081892B8083F2CF08952091E90388
:100D20003091EA032817390771F49091A703809155
:100D3000A803981741F0E091A703F0E0E755FC4FB6
:100D4000808190E008958FEF9FEF08952091E9034F
:100D50003091EA032817390761F48091A8032091A4
:100D6000A70390E0805C9F4F821B910960E470E0D4
:100D7000B9C780E090E00895E091E903F091EA03BB
:100D8000E817F90769F4A389B4899C91858980954E
:100D900089238C931092EA031092E90381E008956D
:100DA00080E00895CF93DF93EC018A8D9B8D892B92
:100DB000F9F08091E9039091EA03C817D907C1F0CF
:100DC000009709F0D9DF8E8D8E7F8E8F1092A80349
:100DD0001092A703D093EA03C093E903EB89FC893F
:100DE00080819D89892B808381E0DF91CF91089557
:100DF00080E0FBCF1F920F920FB60F9211242F931A
:100E00003F934F935F938F939F93AF93BF93EF93D2
:100E1000FF93E091E903F091EA03309749F0868D62
:100E2000A685B785958581FF12C08C91892391F4A1
:100E3000FF91EF91BF91AF919F918F915F914F91F2
:100E40003F912F910F900FBE0F901F9018958C918E
:100E5000892371F7A389B4899C9185898095892319
:100E60008C93868997890197F1F739E020E031501A
:100E700089F0808D918D0197F1F7822F90E0959503
:100E80008795282FA685B7854C915585452379F3FD
:100E90002068EDCF868D81FD20958091A80390E09C
:100EA00001968F7399273091A703381799F0A09175
:100EB000A803B0E0A755BC4F2C938093A803828D64
:100EC000938D0197F1F7A389B4898C919589892B2A
:100ED0008C93AECF868D8160868FF1CF29E432E08E
:100EE000FC013183208348CF1F93CF93DF93EC0124
:100EF000162F6E8D6695617081E06827812F58D21C
:100F000061E0812F19D2812F90E0FC01E458FF4F5E
:100F1000E491E88BFC01E057FF4FE491F0E0EE0F25
:100F2000FF1FE255FF4F859194919A8B898BDF913A
:100F3000CF911F9108951F93CF93DF93EC01162F4C
:100F400060E0812FF9D18E8D81FD03C061E0812F9A
:100F50002FD21C87812F90E0FC01E458FF4FE491D1
:100F6000ED87FC01E057FF4FE491F0E0EE0FFF1F2B
:100F7000EC55FF4F859194919F878E87DF91CF919C
:100F80001F9108951F93CF93DF93EC01162F1B82BF
:100F90001A8288EE93E0A0E0B0E08C839D83AE835C
:100FA000BF8389E492E0998388831F8A1E8A198E01
:100FB000188E1B8E1A8E1D8E1C8E8E8D8E7F20FBA2
:100FC00081F98E8F642FCE018FDF612FCE01DF91EB
:100FD000CF911F91B0CFCF93DF93EC019A01AB017A
:100FE0001B8E1A8E198E188E1F8A1E8A60E079E079
:100FF0008DE390E0ACD6F9012430310508F460C0EF
:10100000C90103979D8F8C8F6C8570E066317105E7
:101010000CF052C0C901969587958431910508F46A
:1010200052C043979F8B8E8B369708F44FC0C901EF
:101030000597998F888FC901880F991F280F391F2D
:1010400036952795369527952D30310508F441C002
:101050002C5031093B8F2A8F209168006830710530
:10106000DCF131E06E3071050CF430E081E090E0AD
:1010700001C0880F3A95EAF7822B809368004C856F
:10108000842F90E08830910554F18E30910554F111
:101090008631910554F120E030E03C8B2B8B883079
:1010A000910534F581E001C0880F4A95EAF78D8BF0
:1010B0008C8D9D8D0197F1F7CE01DF91CF9172CE8E
:1010C00081E090E09FCF81E090E0ACCF81E090E0C4
:1010D000B0CF21E030E0BECF84E090E0CDCF2DE670
:1010E00030E0DBCF2BE630E0D8CF2CE630E0D5CFB8
:1010F0009C010E9744F42850310981E001C0880F0B
:101100002A95EAF7D4CF2E503109F7CF1F920F92CC
:101110000FB60F9211242F933F938F939F93AF930A
:10112000BF938091EC039091ED03A091EE03B091F9
:10113000EF033091EB0323E0230F2D3758F5019691
:10114000A11DB11D2093EB038093EC039093ED035D
:10115000A093EE03B093EF038091F0039091F1031D
:10116000A091F203B091F3030196A11DB11D8093EC
:10117000F0039093F103A093F203B093F303BF91B4
:10118000AF919F918F913F912F910F900FBE0F9034
:101190001F90189526E8230F0296A11DB11DD2CFEE
:1011A0002FB7F8946091EC037091ED038091EE03FA
:1011B0009091EF032FBF08953FB7F8948091F0030B
:1011C0009091F103A091F203B091F30326B5A89B8F
:1011D00005C02F3F19F00196A11DB11D3FBFBA2FC9
:1011E000A92F982F8827BC01CD01620F711D811D89
:1011F000911D42E0660F771F881F991F4A95D1F70E
:1012000008958F929F92AF92BF92CF92DF92EF920A
:10121000FF926B017C01D0DF4B015C01C114D10452
:10122000E104F10449F4FF90EF90DF90CF90BF907C
:10123000AF909F908F900895E8D0BEDF681979092C
:101240008A099B09683E73408105910538F321E0C6
:10125000C21AD108E108F10888EE880E83E0981ED2
:10126000A11CB11CC114D104E104F10431F7D6CFA3
:10127000789484B5826084BD84B5816084BD85B571
:10128000826085BD85B5816085BDEEE6F0E0808138
:1012900081608083E1E8F0E0108280818260808359
:1012A000808181608083E0E8F0E0808181608083DC
:1012B000E1EBF0E0808184608083E0EBF0E080810E
:1012C00081608083EAE7F0E08081846080838081B0
:1012D0008260808380818160808380818068808358
:1012E0001092C1000895833081F028F4813099F084
:1012F0008230A9F008958730A9F08830C9F0843091
:10130000B1F4809180008F7D03C0809180008F7741
:1013100080938000089584B58F7784BD089584B547
:101320008F7DFBCF8091B0008F778093B0000895C0
:101330008091B0008F7DF9CFCF93DF9390E0FC01D7
:10134000E458FF4F249180579F4FFC0184918823DC
:10135000C9F090E0880F991FFC01E854FF4FA59158
:10136000B491FC01E255FF4FC591D49161110DC0BC
:101370009FB7F8948C91209582238C9388812823A1
:1013800028839FBFDF91CF910895623051F49FB7BA
:10139000F8943C91822F809583238C93E8812E2BA7
:1013A000EFCF8FB7F894EC912E2B2C938FBFEACF11
:1013B0001F93CF93DF93162F282F30E0F901E859C0
:1013C000FF4F8491F901E458FF4FD491F901E057A0
:1013D000FF4FC491CC2399F0811185DFEC2FF0E011
:1013E000EE0FFF1FE255FF4FA591B4918FB7F89410
:1013F000EC91111108C0D095DE23DC938FBFDF91F3
:10140000CF911F910895DE2BF8CF0895FC018081C4
:1014100091816BC5CF93DF93EC018881998100970F
:1014200009F063D5198218821D821C821B821A82E0
:10143000DF91CF9108950F931F93CF93DF93EC012A
:101440008B016F5F7F4F88819981D8D5009751F0CC
:10145000998388831B830A8381E0DF91CF911F9159
:101460000F91089580E0F9CFCF93DF93EC0188814D
:101470009981892B49F08A819B818617970720F0F3
:1014800081E0DF91CF910895CE01D5DF8823C9F3A4
:101490008C819D81892BA1F7E881F9811082F0CFA1
:1014A000EF92FF920F931F93CF93DF93EC017B0199
:1014B0008A01BA01D9DF81110AC0CE01ABDFCE01AA
:1014C000DF91CF911F910F91FF90EF9008951D83B1
:1014D0000C83B7018881998162D6F1CFFC0111821A
:1014E000108213821282158214826115710549F0EF
:1014F000FB0101900020E9F73197AF01461B570B24
:10150000CFCF0895CF93DF93EC01FB0186179707A8
:1015100041F0608171816115710539F04481558117
:10152000BFDFCE01DF91CF91089574DFFACFFC01C8
:10153000118210821382128215821482E3CFCF931C
:10154000DF93EC016115710569F0FB01019000204A
:10155000E9F73197AF01461B570BA2DFCE01DF91B0
:10156000CF91089557DFFACF0F931F93CF93DF9357
:10157000CDB7DEB762970FB6F894DEBF0FBECDBF12
:101580008C01CB01F8011182108213821282158224
:10159000148250E0BE016F5F7F4F17D6BE016F5FB0
:1015A0007F4FC801CCDF62960FB6F894DEBF0FBE46
:1015B000CDBFDF91CF911F910F9108950F931F938E
:1015C000CF93DF93CDB7DEB7A1970FB6F894DEBF08
:1015D0000FBECDBF8C01CB01BA01F8011182108280
:1015E000138212821582148230E0AE014F5F5F4F8A
:1015F00000D6BE016F5F7F4FC801A1DFA1960FB675
:10160000F894DEBF0FBECDBFDF91CF911F910F9138
:101610000895EF92FF920F931F93CF93DF93EC0106
:101620007B01672B41F480E0DF91CF911F910F91F7
:10163000FF90EF9008954115510591F00C811D81A7
:10164000040F151FB80110DF882369F32881398141
:101650008C819D81B701820F931FA1D51D830C83BF
:1016600081E0E2CFCF93DF9300D0CDB7DEB76983BF
:101670001A8241E050E0BE016F5F7F4FCADF0F90DA
:101680000F90DF91CF910895CF93DF93EC01FB0191
:101690004481558160817181BCDF811102C0CE011E
:1016A000B9DECE01DF91CF9108951F920F920FB650
:1016B0000F9211242F938F939F93EF93FF93E091B9
:1016C0000404F09105048081E0910A04F0910B0478
:1016D00082FD1BC0908180910D048F5F8F732091DC
:1016E0000E04821741F0E0910D04F0E0EC50FC4F45
:1016F000958F80930D04FF91EF919F918F912F9182
:101700000F900FBE0F901F9018958081F4CF1F92FD
:101710000F920FB60F9211242F933F934F935F9325
:101720006F937F938F939F93AF93BF93EF93FF93A9
:1017300084EF93E0F0D1FF91EF91BF91AF919F9132
:101740008F917F916F915F914F913F912F910F906A
:101750000FBE0F901F90189584EF93E0A1D121E068
:10176000892B09F420E0822F0895E4EFF3E013823F
:10177000128288EE93E0A0E0B0E084839583A68394
:10178000B7838CE592E09183808385EC90E0958728
:10179000848784EC90E09787868780EC90E0918B3B
:1017A000808B81EC90E0938B828B82EC90E0958B28
:1017B000848B86EC90E0978B868B118E128E138E25
:1017C000148E0895CF92DF92EF92FF920F931F93A2
:1017D000CF93DF937C016A018B01C0E0D0E0CC1590
:1017E000DD0579F0D8016D918D01D701ED91FC9166
:1017F0000190F081E02DC7010995892B11F0219608
:10180000EECFCE01DF91CF911F910F91FF90EF901E
:10181000DF90CF9008956115710579F0FB0101907B
:101820000020E9F73197AF01461B570BDC01ED9122
:10183000FC910280F381E02D099480E090E008950E
:10184000DB0114964D915C9115976D917C91DC01B3
:10185000ED91FC910280F381E02D0994DCCFDC0155
:10186000ED91FC910190F081E02D099465E572E025
:10187000D2CF0F931F93CF93DF93EC01E1DF8C0165
:10188000CE01F4DF800F911FDF91CF911F910F9157
:1018900008950F931F93CF93DF93EC01BCDF8C016E
:1018A000CE01E4DF800F911FDF91CF911F910F9147
:1018B00008958F929F92AF92BF92EF92FF920F93F3
:1018C0001F93CF93DF93CDB7DEB7A1970FB6F894F0
:1018D000DEBF0FBECDBF7C01FA01CB0119A2422FA2
:1018E00050E0423051050CF42AE08E010F5D1F4F8D
:1018F000822E912CA12CB12CBF01A501940105D2FF
:10190000F901CA01015011096A30DCF4605DD801A7
:101910006C93232B242B252B79F7B801C7017BDF90
:10192000A1960FB6F894DEBF0FBECDBFDF91CF9169
:101930001F910F91FF90EF90BF90AF909F908F906D
:101940000895695CE4CFCF92DF92EF92FF920F93FC
:101950001F93CF93DF93EC016A017B0121153105C1
:1019600079F4E881F9810190F081E02D642FDF9115
:10197000CF911F910F91FF90EF90DF90CF9009943E
:101980002A303105D9F477FF18C06DE268DF8C0189
:1019900044275527BA014C195D096E097F092AE0D1
:1019A000CE0187DF800F911FDF91CF911F910F91A3
:1019B000FF90EF90DF90CF9008952AE0B701A60145
:1019C000CE01DF91CF911F910F91FF90EF90DF90AB
:1019D000CF906FCF9A01AB01770F660B770BB3CF28
:1019E0000F931F93CF93DF93EC01F4DF8C01CE01B3
:1019F0003DDF800F911FDF91CF911F910F910895CF
:101A00000F931F93CF93DF93EC01CADB688779872D
:101A10008A879B87E881F9810680F781E02DCE01D6
:101A2000099597FF14C0BCDB088519852A853B857D
:101A3000601B710B820B930B0C811D812E813F81EA
:101A4000601771078207930728F38FEF9FEFDF91ED
:101A5000CF911F910F9108950F931F93CF93DF9311
:101A6000EC018B0167E572E039DDC801C9DF97FD44
:101A700004C0682FCE01F6DDF8CFCE01DF91CF9103
:101A80001F910F9108950895F3DBFDDF0E94E1009F
:101A9000CEE7DDE00E94FA012097E1F32FD0FACFE4
:101AA000FC01918D228D892F90E0805C9F4F821BDD
:101AB00091098F7399270895FC01918D828D981754
:101AC00031F0828DE80FF11D858D90E008958FEF44
:101AD0009FEF0895FC01918D828D981761F0828DA2
:101AE000DF01A80FB11D5D968C91928D9F5F9F7352
:101AF000928F90E008958FEF9FEF08958CEA9BE01E
:101B0000892B41F080E090E0892B21F025DE8111C6
:101B10000C9400000895FC01848DDF01A80FB11D15
:101B2000A35ABF4F2C91848D90E001968F73992713
:101B3000848FA689B7892C93A089B1898C91806400
:101B40008C93938D848D981306C00288F389E02DC1
:101B500080818F7D80830895CF93DF93EC01888D02
:101B6000882351F0EA89FB89808185FD08C0A88916
:101B7000B9898C9186FF03C0DF91CF9108950FB68C
:101B800007FCF2CF808185FFEFCFE889F98980815A
:101B900085FFE8CFCE01BFDFE5CFEF92FF920F9335
:101BA0001F93CF93DF93EC01F62E81E0888F9B8DFE
:101BB0008C8D981305C0E889F989808185FD2BC03B
:101BC0000B8D10E00F5F1F4F0F731127E02E8C8DD0
:101BD000E8120BC00FB607FCFACFE889F9898081BB
:101BE00085FFF5CFCE0197DFF2CF8B8DFE01E80F99
:101BF000F11DE35AFF4FF0820B8FEA89FB89808148
:101C00008062808381E090E0DF91CF911F910F91FE
:101C1000FF90EF900895EE89FF896083E889F98944
:101C200080818064EECFCF92DF92EF92FF921F937C
:101C3000CF93DF93EC016A017B01122FE889F989C8
:101C400082E080834115514E6105710599F060E095
:101C500079E08DE390E0A701960157D0215031093A
:101C6000410951095695479537952795211580E1EA
:101C7000380790F0E889F989108260E874E88EE10D
:101C800090E0A701960141D0215031094109510945
:101C90005695479537952795EC85FD853083EE85DC
:101CA000FF852083188EEC89FD891083EA89FB89E2
:101CB000808180618083EA89FB898081886080835C
:101CC000EA89FB89808180688083EA89FB89808139
:101CD0008F7D8083DF91CF911F91FF90EF90DF90F8
:101CE000CF90089597FB072E16F4009406D077FD49
:101CF00008D049D007FC05D03EF4909581959F4FC0
:101D00000895709561957F4F0895A1E21A2EAA1B40
:101D1000BB1BFD010DC0AA1FBB1FEE1FFF1FA2179B
:101D2000B307E407F50720F0A21BB30BE40BF50B98
:101D3000661F771F881F991F1A9469F76095709521
:101D4000809590959B01AC01BD01CF010895052EB2
:101D500097FB16F400940FD057FD05D0D6DF07FC93
:101D600002D046F408C050954095309521953F4FDC
:101D70004F4F5F4F089590958095709561957F4F77
:101D80008F4F9F4F0895AA1BBB1B51E107C0AA1F8D
:101D9000BB1FA617B70710F0A61BB70B881F991F0C
:101DA0005A95A9F780959095BC01CD010895EE0F45
:101DB000FF1F0590F491E02D09940F931F93CF938B
:101DC000DF938230910510F482E090E0E09193047B
:101DD000F091940420E030E0A0E0B0E0309719F1F9
:101DE000408151810281138148175907C8F0841737
:101DF000950769F4109731F012960C931297139689
:101E00001C9327C0009393041093940422C02115BF
:101E1000310519F04217530718F49A01BD01EF017B
:101E2000DF01F801DBCF21153105F9F0281B390B53
:101E30002430310580F48A819B816115710521F080
:101E4000FB019383828304C0909394048093930452
:101E5000FE01329644C0FE01E20FF31F819391937D
:101E600022503109398328833AC02091910430915E
:101E70009204232B41F4209102013091030130930D
:101E800092042093910420910001309101012115C9
:101E9000310541F42DB73EB7409104015091050141
:101EA000241B350BE0919104F0919204E217F307A3
:101EB000A0F42E1B3F0B2817390778F0AC014E5FBA
:101EC0005F4F2417350748F04E0F5F1F5093920461
:101ED000409391048193919302C0E0E0F0E0CF0140
:101EE000DF91CF911F910F910895CF93DF930097CA
:101EF00009F481C0FC01329713821282A0919304ED
:101F0000B0919404109781F420813181820F931F46
:101F100020919104309192042817390751F5F093DC
:101F20009204E093910467C0ED0120E030E0CE1709
:101F3000DF0740F44A815B819E0141155105F1F0B4
:101F4000EA01F5CFD383C28340815181840F951F6D
:101F5000C817D90759F488819981840F951F029673
:101F6000918380838A819B819383828321153105AC
:101F700029F4F0939404E09393043DC0E901FB83BA
:101F8000EA8349915991C40FD51FEC17FD0761F4FD
:101F900080819181840F951F0296E901998388833E
:101FA000828193819B838A83E0E0F0E012968D9199
:101FB0009C911397009719F0FD01DC01F7CF8D91EB
:101FC0009C9111979D012E5F3F4F820F931F20918F
:101FD0009104309192042817390769F4309729F455
:101FE000109294041092930402C013821282B09350
:101FF0009204A0939104DF91CF910895A0E0B0E006
:10200000E3E0F0E14EC1EC01009719F4CB01D5DE1D
:10201000B0C0FC01E60FF71F9C0122503109E21706
:10202000F30708F4A4C0D9010D911C91119706176C
:102030001707A8F00530110508F497C0C8010497E8
:102040008617970708F491C002501109061B170B59
:10205000019311936D937C93CF0147DF86C05B01A1
:10206000A01AB10A4C01800E911EA0919304B09168
:102070009404612C712CE12CF12C109709F446C0CA
:102080008D919C911197A815B905B1F56C0142E0AD
:10209000C40ED11CCA14DB0478F14C018A189B08C9
:1020A000640142E0C40ED11C1296BC9012971396A4
:1020B000AC91B5E0CB16D10440F0B282A3839182FB
:1020C0008082D9016D937C9309C00E5F1F4F800FF2
:1020D000911FF90191838083EB2DFA2FE114F10414
:1020E00031F0D7011396FC93EE9312973EC0F09314
:1020F0009404E093930439C06816790608F43C010F
:102100007D0112960D90BC91A02DB7CF80919104C6
:102110009091920488169906E1F466167706C8F441
:102120008091000190910101009741F48DB79EB715
:102130004091040150910501841B950BE817F907A4
:10214000B0F4F0939204E0939104F90171836083F9
:102150000CC0CB0132DE7C01009749F0A801BE0122
:102160000CD0CE01C2DEC70104C0CE0102C080E0A7
:1021700090E0CDB7DEB7EEE0B0C0FB01DC0102C0FD
:1021800001900D9241505040D8F70895FB01DC01B9
:102190008D91019080190110D9F3990B0895FB01DD
:1021A000DC0101900D920020E1F70895FB01DC01B4
:1021B0004150504048F001900D920020C9F701C0F5
:1021C0001D9241505040E0F708954532510518F4F2
:1021D000423008F004C0FB011082CB010895BB27F8
:1021E0004A3031F4992322F4BDE2909581959F4FB6
:1021F0002CC02532310518F4223008F004C0FA0151
:102200001082CA010895BB27FA01A62F6217710533
:1022100081059105330B30FB66F0AA27660F771F07
:10222000881F991FAA1FA21710F0A21B6395385090
:10223000A9F7A05DAA3308F0A95DA19336F7B11103
:10224000B1931082CA0119C0BB27FB015527AA27E9
:10225000880F991FAA1FA41710F0A41B8395505133
:10226000B9F7A05DAA3308F0A95DA193009779F7AB
:10227000B111B1931192CB0100C0DC01FC01672FB9
:1022800071917723E1F7329704C07C916D9370834D
:102290006291AE17BF07C8F308952F923F924F92F5
:1022A0005F926F927F928F929F92AF92BF92CF92E6
:1022B000DF92EF92FF920F931F93CF93DF93CDB7EF
:1022C000DEB7CA1BDB0B0FB6F894DEBF0FBECDBF67
:1022D00009942A88398848885F846E847D848C8438
:1022E0009B84AA84B984C884DF80EE80FD800C8141
:1022F0001B81AA81B981CE0FD11D0FB6F894DEBF24
:102300000FBECDBFED01089510E0C3E6D0E003C0DD
:10231000FE014DDD2196C436D107D1F7F894FFCFE9
:102320000000950420002C01000047534D20536805
:1023300069656C6420696E6974004552524F523A67
:1023400020696E69742067736D206D6F64756C65AC
:10235000203A00434C4F434B00694D2043484547CA
:102360004B494E47205245515545535453001F1C6D
:102370001F1E1F1E1F1F1E1F1E1F44423A204552B4
:10238000524F522C204E4F20524553504F4E5345E2
:10239000205245434549564544210044423A204590
:1023A00052524F522C2052454356204255464645E4
:1023B000522046554C4C0044423A202D2D2D0052BF
:1023C0004543565F535452494E47204E3A004442CB
:1023D0003A2053657474696E672062617564726136
:1023E00074650044423A20547279696E6720206413
:1023F000656661756C7420626175647261746520D4
:10240000004154004F4B0044423A20547279696EA7
:1024100067206261756472617465200044423A20ED
:1024200053657474696E672050494E0030303438FB
:102430000041542B4350494E3D0041542B434741EA
:1024400054543D3100B004000060090000C0120087
:102450000080250000004B00000096000000E10015
:102460000000C20100000000002D06E20BA6060CD1
:10247000068E068D060D0A0000000000CD0DE20B51
:08248000500D6A0D5C0DAC0D5E
:00000001FF
