:1000000069C100008FC100008DC100000C941B1558
:100010000C941B150C941B1585C1000083C10000B6
:1000200081C100007FC100007DC100007BC10000D4
:1000300079C1000077C1000075C1000073C10000E4
:100040000C9497166FC100000C9418180C944A1861
:1000500069C1000067C1000065C1000063C1000004
:1000600061C100005FC1000041542B43495053540B
:100070004154555300434C4F5345204F4B0041547E
:100080002B434950434C4F5345004552524F520069
:100090004F4B0053454E44204F4B0041542B434996
:1000A0005053454E440041542B43495053454E4410
:1000B0000D0A0D0A3E20434F4E4E454354204F4BF0
:1000C0000041542B43495053544152543D22544310
:1000D00050222C223137382E36322E362E3434220E
:1000E0002C373737370041542B4349504D55583D35
:1000F00030002B4349504D55583A2031002B43498D
:10010000504D55583A20300041542B4349504D55DD
:10011000583F0041542B43494943520041542B431B
:100120005354543D22696E7465726E65742E766FF9
:100130006461666F6E652E7074222C22222C22223E
:100140000053485554204F4B0041542B43495053C2
:100150004855540041542B4349505345525645523B
:100160003D30002B4349505345525645523A2030BA
:100170000041542B4349505345525645523F00418C
:10018000542B434744434F4E543D312C2249502277
:100190002C22696E7465726E65742E766F6461666A
:1001A0006F6E652E7074220041542B4349504D4FA1
:1001B00044453D30002B4349504D4F44453A203192
:1001C000002B4349504D4F44453A20300041542BB9
:1001D0004349504D4F44453F0041542B43494653FA
:1001E000520041542B43474154543D300041542B5D
:1001F00043474154543D31002B43474154543A2026
:1002000031002B43474154543A20300041542B4392
:10021000474154543F0041542B43495552433D30CC
:10022000002B43495552433A2030002B4349555245
:10023000433A20310041542B43495552433F00413A
:10024000542B4350494E3D30303438002B435049F5
:100250004E3A2053494D2050494E002B4350494EB1
:100260003A2052454144590041542B4350494E3F96
:1002700000415400000000080002010000030407D0
:10028000000000000000000001020408102040806F
:1002900001020408102001020408102004040404D0
:1002A0000404040402020202020203030303030320
:1002B00000000000230026002900000000002500A7
:1002C00028002B0000000000240027002A00FD0366
:1002D0007818000411241FBECFEFD8E0DEBFCDBFD9
:1002E00012E0A0E0B1E0E4EDF9E302C005900D9268
:1002F000AE3AB107D9F725E0AEEAB2E001C01D92EF
:10030000AA36B207E1F711E0C9E6D1E004C02197AF
:10031000FE010E947E1BC736D107C9F70E94D6197D
:100320000C94DE1C6DCE0895CF93DF93EC016FE744
:1003300072E089EC94E00E94E118CA30D1052CF4F7
:1003400060E389EC94E00E94E8184AE050E0BE01C6
:1003500089EC94E0DF91CF910C94981920D44AE075
:1003600050E0BC0189EC94E00E9498191ED4DCDFB7
:1003700022D4DADF6EE672E089EC94E00E94E118A4
:1003800020D44AE050E0BC0189EC94E00E94981926
:100390006EE672E089EC94E00E94E11818D44AE01D
:1003A00050E0BC0189EC94E00E9498196EE672E07E
:1003B00089EC94E00E94E11810D44AE050E0BC01BE
:1003C00089EC94E00E94981989EC94E00C94EF1861
:1003D0000F931F93CF93DF93CDB7DEB72A970FB656
:1003E000F894DEBF0FBECDBF84EB92E0B8D501E03C
:1003F00010E0039751F585E090E00E9416189E8367
:100400008D83CE0105960E94ED12009751F12AE0EE
:10041000289F8001299F100D11240E5F1F4F8D8191
:100420009E81009711F00E9417188F819885009780
:1004300011F00E9417180115110539F0A80161EC9F
:1004400070E08AE091E00E94C413C8012A960FB6BA
:10045000F894DEBF0FBECDBFDF91CF911F910F91FA
:1004600008956D817E819E01275F3F4F45E050E0FA
:1004700084EB92E00E949012009749F02AE0289FB6
:100480008001299F100D11240D5F1F4FC8CF898552
:100490009A850E94161898878F83BE01695F7F4FE7
:1004A00084EB92E062D5009749F02AE0289F800112
:1004B000299F100D11240C5F1F4FB1CF69857A85DC
:1004C000AE014F5F5F4F8F8198850E9404138C01AE
:1004D000892B51F02AE0209FC001219F900D11240B
:1004E0008C010B5F1F4F9BCF69817A818B819C812F
:1004F000605F714F8F4F9F4F8ED281E08093B20229
:10050000BDD26093AE027093AF028093B00290931D
:10051000B10224DF84CF1F93CF93DF93CDB7DEB733
:10052000CD5AD1400FB6F894DEBF0FBECDBF26E046
:1005300040E855E260E070E089EC94E00E94B21A75
:10054000CE010196A9D3FE013196A4EBB2E08191D0
:100550008D9383E0A433B807D1F7DE01AF57BF4FC7
:10056000E4E3F3E08D91819383E0E43BF807D1F776
:10057000DE01AF5FBE4FE4EBF3E08D91819384E049
:10058000E433F807D1F7CF57DE4F88819981C158FE
:10059000D1409093350480933404CD57DE4F888149
:1005A0009981C358D1409093370480933604CB5738
:1005B000DE4F88819981C558D1409093390480934A
:1005C0003804C957DE4F88819981C758D14090932C
:1005D0003B0480933A04C757DE4F88819981C958FC
:1005E000D14090933D0480933C04C557DE4F8881F1
:1005F0009981CB58D14090933F0480933E04C357D8
:10060000DE4F88819981CD58D140909341048093E9
:100610004004CF56DE4F88819981C159D1409093D3
:10062000450480934404CD56DE4F88819981AA8188
:10063000BB81C359D1408093460490934704A09353
:100640004804B0934904C956DE4F88819981AA8134
:10065000BB81C759D14080934A0490934B04A09327
:100660004C04B0934D04C556DE4F8881CB59D14020
:1006700080934E04C456DE4F8881CC59D14080937C
:100680004F04C356DE4F88819981CD59D140909354
:10069000510480935004C156DE4F8881CF59D14018
:1006A00080935204C056DE4F88819981C05AD14050
:1006B0009093540480935304CE55DE4F88819981E2
:1006C000C25AD1409093560480935504CC55DE4FC6
:1006D0008881C45AD14080935704CB55DE4F88811E
:1006E0009981C55AD1409093590480935804C955B3
:1006F000DE4F88819981C75AD14090935B048093E3
:100700005A04C755DE4F88819981C95AD1409093C8
:100710005D0480935C04C555DE4F88819981CB5A76
:10072000D14090935F0480935E04C355DE4F98815F
:10073000CD5AD1408091600490FB80F991FB81F902
:1007400080936004CE0181579E4F0E94931563E110
:1007500071E089EC94E00E94F21884EB92E0DED71D
:100760000097D1F511E084EB92E00E94E40CAC011B
:100770006EE270E0892BB9F48091B20281110AC057
:1007800027DE0097B9F1AC0166E370E08AE091E002
:100790000E94C41384EB92E00E94150E009739F07A
:1007A000AC0168E570E08AE091E00E94C41368EE55
:1007B00073E080E090E00E9412178091B3028823DA
:1007C00091F2C355DE4F0FB6F894DEBF0FBECDBF1A
:1007D000DF91CF911F910895AC0164E270E08AE04F
:1007E00091E00E94C41360E177E280E090E00E9413
:1007F0001217B3CF1093B302CDCF84EB92E04CC26B
:1008000082E494E00C9493156F927F928F929F9262
:10081000AF92BF92CF92DF92EF92FF920F931F930E
:10082000CF93DF936B017C01EA018CE3882E912C3E
:10083000A12CB12CC701A50194010E94251B68833E
:10084000CA01B901A50194010E94251B6983C70152
:10085000B60120E13EE040E050E00E94251BCA01C5
:10086000B90128E130E040E050E00E94251B6A8396
:10087000C701B60120E831E541E050E00E94251BA8
:1008800069017A01CA01B9016C5F7F4F8F4F9F4F99
:1008900027E030E040E050E00E94251B6F5F6B8353
:1008A000812C912C540140E094E6692E712C00E9D2
:1008B00011E0242F30E02E54384FF901E370FF2768
:1008C0003097F9F4C901B3010E94121B892B31F44E
:1008D000C901B8010E94121B892B99F48EE691E0A0
:1008E000A0E0B0E0880E991EAA1EBB1ED501C4016F
:1008F000AA27BB27C816D906EA06FB0638F04F5FC1
:10090000D8CF8DE691E0A0E0B0E0ECCF4E83C901F6
:1009100064E670E00E94121B8C01C90160E971E07D
:100920000E94121B309729F401151105E1F400977C
:10093000D1F04DE651E060E070E0841A950AA60A15
:10094000B70AC818D908EA08FB08A3E2B1E020E01A
:10095000213071F4309791F50115110511F40097CC
:1009600069F54DE106C04EE651E060E070E0E5CF8C
:100970004C9150E070E060E031E0320FC416D506D3
:10098000E606F70640F0C41AD50AE60AF70A1196F9
:10099000232F3C30E9F62F5F2D83C394CC82DF9167
:1009A000CF911F910F91FF90EF90DF90CF90BF906C
:1009B000AF909F908F907F906F9008954CE1D9CF2A
:1009C000CF92DF92EF92FF926B017C0180917104D4
:1009D00090917204A0917304B09174048C159D05DC
:1009E000AE05BF0561F045E754E0C7010DDFC092D9
:1009F0007104D0927204E0927304F0927404FF9038
:100A0000EF90DF90CF900895DBDF80917B0490E042
:100A10008E54984F08950F931F9360936D047093B5
:100A20006E0480936F0490937004009106011091FE
:100A300007012091080130910901DC01CB01800FF1
:100A4000911FA21FB31F8093650490936604A09327
:100A50006704B093680482E090E09093640480930C
:100A600063040E94E1166093690470936A048093A2
:100A70006B0490936C041F910F910895CF92DF92B5
:100A8000EF92FF920F931F930E94E116C0906904AA
:100A9000D0906A04E0906B04F0906C048B019C0190
:100AA0000C191D092E093F0980916D0490916E0467
:100AB000A0916F04B0917004083E134021053105E8
:100AC000D0F00196A11DB11D80936D0490936E042A
:100AD000A0936F04B0937004B701A60148515C4F16
:100AE0006F4F7F4F4093690450936A0460936B0487
:100AF00070936C04C9CF4091650450916604609175
:100B000067047091680484179507A607B70768F013
:100B1000E0916104F0916204309739F00995611514
:100B200071058105910581F076DF60916D0470910A
:100B30006E0480916F04909170041F910F91FF904B
:100B4000EF90DF90CF90089580916D0490916E04A6
:100B5000A0916F04B091700440910601509107017B
:100B60006091080170910901840F951FA61FB71F9E
:100B70008093650490936604A0936704B09368041F
:100B800081E090E02091630430916404232B11F400
:100B900090E080E09093640480936304C6CF6EDF9E
:100BA0000FDF8091770490E0089568DF09DF80917E
:100BB000760490E0089562DF03DF8091750490E091
:100BC00008955CDFFDDE8091790490E0089556DFA2
:100BD000F7DE80917A0490E0089550DF15CF8A57B0
:100BE0009E4FFC017183608362307105C1F038F45F
:100BF0006115710559F06130710571F00895633028
:100C0000710581F06430710581F008956FE271E043
:100C100089EC94E00C94F2186BE471E0F9CF66E68D
:100C200071E0F6CF62E871E0F3CF6DE971E0F0CFEB
:100C3000FC01E058FE4F1182108220E8FC01119265
:100C40002A95E9F788579E4FFC011182108208957A
:100C5000FC01EE57FE4F11821082E250F14020E875
:100C6000DF011D922A95E9F786579E4FFC011182FC
:100C700010820895FC01EC57FE4F11821082E45857
:100C8000F10920E8DF011D922A95E9F784579E4F6C
:100C9000FC01118210820895CF93DF93EC0120E0D4
:100CA00048E067E082579E4F0E94E715FE01EA5731
:100CB000FE4F11821082CE01BBDFCE01C9DFCE0113
:100CC000D9DF6FE271E089EC94E0DF91CF910C9471
:100CD000F218EF92FF920F931F93CF93DF93EC01E3
:100CE0008901DC01A657BE4F8D919C911197892BEC
:100CF00009F08CC0FE01E857FE4F80819181019779
:100D000009F084C07B01BE0190E080E0FB012191ED
:100D1000BF0148175907D1F0F70131917F01321710
:100D200099F0CE0185DF42E050E062E373E089EBA9
:100D300091E00E94C41382E090E0DF91CF911F9177
:100D40000F91FF90EF9008950196E0CF2D3061F460
:100D5000FE01E40FF51F81818A3031F482818D30EC
:100D600019F483818A3069F0CE0162DF43E050E0FC
:100D70006BE373E089EB91E00E94C41383E090E0A1
:100D8000DCCF4C5F5F4FFE01E40FF51FBF019F01F9
:100D90002C1B3D0B81918D3019F080818A30B9F781
:100DA000FE01E058FE4F80819181029782179307E0
:100DB00069F0CE013DDF44E050E06AE473E089EB86
:100DC00091E00E94C41384E090E0B7CFC901841B76
:100DD000950BAC017E019EE7E91A9EEFF90AF70137
:100DE0005183408381E090E08D939C93CE018058A5
:100DF0009F4F0E94CC1CCE011BDFF70180819181A7
:100E0000F8019183808390E080E097CF41E050E04B
:100E10006AE273E089EB91E00E94C41381E090E004
:100E20008CCFEF92FF920F931F93CF93DF93EC0140
:100E30008B01DC01A657BE4F8D919C911197892B98
:100E400009F059C0FE01E857FE4F8081918101975A
:100E500009F051C0FE01CF018C1B9D0B21912D305B
:100E6000D1F720812A30B9F70296FE01E80FF91F69
:100E7000BF01AF014C1B5D0B21912D3019F020817A
:100E80002A30B9F7FE01E058FE4F2081318122500F
:100E900031092417350789F043E050E060E773E03B
:100EA00089EB91E00E94C41383E090E0DF91CF9141
:100EB0001F910F91FF90EF900895481B590B7E01F1
:100EC0008EE7E81A8EEFF80AF7015183408381E03C
:100ED00090E08D939C93CE0180589F4F0E94CC1C34
:100EE000CE01A6DEF70180819181F8019183808394
:100EF00090E080E0DBCF41E050E06EE573E089EB0D
:100F000091E00E94C41381E090E0D0CFCF93DF93B3
:100F1000EC01FB01DC01A657BE4F8D919C9101971E
:100F200069F041E050E060EB73E089EB91E00E94F2
:100F3000C41381E090E0DF91CF910895DE01AE57B8
:100F4000BE4F4D915C91BE0160587F4F8081918171
:100F50000E94CC1CCE017CDE90E080E0ECCF8A5772
:100F60009E4FFC01808191810895AF92BF92CF92F4
:100F7000DF92EF92FF920F931F93CF93DF93EC01D9
:100F80005B01FC01E457FE4F808191810197A9F03C
:100F900041E050E06FEE73E089EB91E00E94C413F2
:100FA00081E090E0DF91CF911F910F91FF90EF9042
:100FB000DF90CF90BF90AF9008957E01F3946E01C3
:100FC000ECE7CE1AEEEFDE0AF601008111819701FF
:100FD00040EF51E06BEF73E089EB91E00E947713F3
:100FE000F60140815181B701F501808191810E9414
:100FF000B51CCE013FDE90E080E0D4CFEF92FF92AF
:101000000F931F93CF93DF93FB0101900020E9F72B
:10101000EB019F012150310979018C0102571E4FCC
:10102000CE15DF0529F06991C8010E945214F8CF4E
:101030006DE0C8010E9452146AE0C801DF91CF91AF
:101040001F910F91FF90EF900C9452144F925F926A
:101050006F927F928F929F92AF92BF92CF92DF92C8
:10106000EF92FF920F931F93CF93DF93EC01CB018D
:101070006A01FE01E857FE4F20813181232B09F0E0
:10108000AEC021E030E0318320836AE070E00E944E
:10109000121B2B01770F660877088AE0882E912CA7
:1010A000F12CE12C8E0102571E4F5E0180E8A81A38
:1010B0008EEFB80AEC14FD0474F4C8010E94C71442
:1010C000892B09F03DC0C301B2010E941217E1E073
:1010D0008E1A910879F75E01F0E8AF1AFEEFBF0AA9
:1010E000D5010D911C919E014EEF51E067E672E033
:1010F00089EB91E00E941913F5018081918180387C
:10110000910509F04AC0CE0193DD42E050E06EE661
:1011100072E089EB91E00E94C41382E090E0DF91DD
:10112000CF911F910F91FF90EF90DF90CF90BF90E4
:10113000AF909F908F907F906F905F904F900895A9
:10114000C8010E94C714892B09F4C1CFD5018D9124
:101150009C918038910508F0BACFEC14FD040CF096
:10116000B6CFC8010E943114D501ED91FC911197C1
:101170009F012F5F3F4F2D933C93EC0FFD1F80830A
:1011800022303105E8F28A30D9F6319780818D30EE
:10119000B9F6BFEFEB1AFB0AD3CF892B69F4CE0166
:1011A00047DD43E050E065E772E089EB91E00E94A3
:1011B000C41383E090E0B3CF90E080E0CE14DF046E
:1011C00009F4ADCFCE0134DD44E050E06CE772E0CD
:1011D00089EB91E00E94C41384E090E0A0CF81E00D
:1011E00090E09DCFCF92DF92EF92FF920F931F93EB
:1011F000CF93DF9300D000D0CDB7DEB78C016B0169
:101200007A0142E050E0B90121DF0097E9F02AE0DD
:10121000289F8001299F100D11240F5F1F4FA801E7
:1012200063E172E089EB91E00E94C413C8010F9062
:101230000F900F900F90DF91CF911F910F91FF9022
:10124000EF90DF90CF900895BE016D5F7F4FC80192
:10125000E8DD009761F02AE0289F8001299F100DAA
:1012600011240E5F1F4FA8016CE172E0DBCF8B8170
:101270009C810E9416189A838983BE016F5F7F4FFD
:10128000C80144DE0097B9F02AE0289F8001299F19
:10129000100D11240D5F1F4FA80161E372E089EB6F
:1012A00091E00E94C41389819A81009709F4BECF0E
:1012B0000E941718BBCFC7010E9416187C01B60107
:1012C0000E94AE1C4B815C81B70189819A810E948A
:1012D000BE1C8C01892B51F04AE250E069E372E0B8
:1012E00089EB91E00E94C41304E010E0E114F104E2
:1012F000D1F2C7010E941718D6CF2F923F924F927A
:101300005F926F927F928F929F92AF92BF92CF9295
:10131000DF92EF92FF920F931F93CF93DF9300D052
:1013200000D0CDB7DEB76C011B015A01490127017E
:10133000CA010E9416187C01C8010E9416183C01BF
:10134000B101C7010E94AE1CB401C3010E94AE1CD2
:10135000860102571E4FC8010E94C714892B21F035
:10136000C8010E943114F7CF850197014AE052E08D
:101370006BE971E089EB91E00E941913B701C60196
:101380003DDE43E050E0B201C60160DE009709F0A7
:1013900068C09E012F5F3F4FA501B701C60199DCD0
:1013A000009709F055C089819A810E9416189C8384
:1013B0008B83BE016D5F7F4FC601A8DD009799F05A
:1013C0002AE0289F8001299F100D11240E5F1F4FD6
:1013D0000115110589F0A8016FEB71E089EB91E02F
:1013E0000E94C4130BC049815A81B3018B819C8137
:1013F0000E94BE1C892BF1F510E000E0E114F1041D
:1014000019F0C7010E9417186114710419F0C30183
:101410000E9417188B819C81009711F00E94171869
:10142000C8010F900F900F900F90DF91CF911F91F7
:101430000F91FF90EF90DF90CF90BF90AF909F9073
:101440008F907F906F905F904F903F902F90089576
:101450002AE0289F8001299F100D11240D5F1F4F46
:10146000B7CF2AE0289F8001299F100D11240C5F1F
:101470001F4FAECF01E010E0AECFCF92DF92EF92E0
:10148000FF920F931F93CF93DF936C01FC01EA57F8
:10149000FE4F808191810497A1F041E050E06AE025
:1014A00071E089EB91E00E94C413C1E0D0E0CE016D
:1014B000DF91CF911F910F91FF90EF90DF90CF9030
:1014C000089598E8E92E93E1F92E02E010E020E972
:1014D00030E04CE050E068E670E0C6010EDFEC0161
:1014E000892B81F02AE02C9FC0012D9F900D1124A3
:1014F000EC012296AE0162E171E089EB91E00E947D
:10150000C413D5CF20E137E24AE050E066EB70E04B
:10151000C60168DE892BD9F488E8E82E83E1F82E2D
:1015200008E010E025E730E04BE050E06EE770E0C7
:10153000C601E3DE009759F02AE0289FE001299FC9
:10154000D00D11242396AE016CE171E0D6CF63E09B
:1015500070E0C60144DBABCF2F923F924F925F9277
:101560006F927F928F929F92AF92BF92CF92DF92B3
:10157000EF92FF920F931F93CF93DF93CDB7DEB718
:101580002A970FB6F894DEBF0FBECDBF4C017E8305
:101590006D833A0138872F83280187011601BA86A7
:1015A000A986CA010E9416187C01C2010E94161861
:1015B0005C01C6010E9416186C016D817E81C70115
:1015C0000E94AE1C6F817885C5010E94AE1CB801D7
:1015D000C6010E94AE1C840102571E4FC8010E9422
:1015E000C714892B21F0C8010E943114F7CF830161
:1015F00097014AE052E060EE71E089EB91E00E94D1
:101600001913B701C401FADC43E050E069857A851B
:10161000C4011CDD892B59F092E0892E912CA40184
:1016200061E072E089EB91E00E94C41325C09E0145
:101630002F5F3F4FA301B701C4014BDB009709F0B7
:1016400063C089819A810E9416189C838B83BE0196
:101650006D5F7F4FC4015ADC009709F43FC02AE058
:10166000289F4001299F900C112483E0880E911C33
:1016700082E0881691049CF6E114F10419F0C70188
:101680000E941718A114B10419F0C5010E9417187F
:10169000C114D10419F0C6010E9417188B819C81D6
:1016A000009711F00E941718C4012A960FB6F894FB
:1016B000DEBF0FBECDBFDF91CF911F910F91FF9085
:1016C000EF90DF90CF90BF90AF909F908F907F90E2
:1016D0006F905F904F903F902F9008950B811C81E9
:1016E000A201B801C5010E94BE1C4C01892B21F248
:1016F000A101B801C6010E94BE1C892B09F08CCF44
:1017000088248394912CB8CF2AE0289F4001299FF8
:10171000900C112484E0880E911CAACF6F927F92C6
:101720008F929F92AF92BF92CF92DF92EF92FF92F1
:101730000F931F93CF93DF93CDB7DEB76F970FB69D
:10174000F894DEBF0FBECDBF4C015C018AE7A81A3A
:101750008EEFB80AF501118210826FE271E089EC18
:1017600094E00E94F21820E048E067E0CE01019684
:101770000E94E7156401F2E7CF1AFEEFDF0A8B81C2
:101780009C81F601938382838D819E81AF81B88590
:1017900084839583A683B78389859A85AB85BC8529
:1017A00080879187A287B3878D8584878E8585877B
:1017B0008F859889978786878989808B8A899B8975
:1017C000928B818B8C899D89948B838B8E89858B61
:1017D0008F89988D978B868B898D9A8D918F808F2D
:1017E0008B8D9C8D938F828F8D8D9E8D958F848F09
:1017F0009F8D868D90FB80F991FB81F9868FCE01BC
:1018000001960E94931540E659E060E070E0C60141
:101810000E941016A8E8EA2EA3E1FA2E02E010E0DA
:1018200020E930E042E050E061E772E0C40165DDAC
:10183000892B21F461E070E0C401D1D9F6E36F2E69
:10184000F2E07F2EF50180819181019711F1F30182
:1018500041915191619171913F01C6010E94101611
:10186000E8E8EE2EE3E1FE2E02E010E020E930E0B1
:1018700042E050E061E772E0C4013FDD892B21F4D2
:1018800061E070E0C401ABD9F6E56F16F2E07F06C7
:10189000C9F6F5018081918121E030E0019711F5D1
:1018A00058E8A52E53E1B52E6EE0C62ED12C7CE46F
:1018B000E72E72E0F72E0CE010E02BE532E048E076
:1018C00050E068E672E0C40147DE0097D1F1813054
:1018D0009105F1F04AE0489F9001499F300D112495
:1018E0002E5F3F4FC9016F960FB6F894DEBF0FBE53
:1018F000CDBFDF91CF911F910F91FF90EF90DF90BF
:10190000CF90BF90AF909F908F907F906F900895F1
:1019100048E8E42E43E1F42E02E010E020E930E054
:101920004CE050E06FE372E0C401E7DC009749F05F
:101930004AE0489F9001499F300D11242D5F3F4F91
:10194000D1CF98E8A92E93E1B92E29E0C22ED12C4F
:1019500031E2E32E32E0F32E09E010E02BE232E038
:1019600049E050E065E372E0C401F6DD009761F004
:101970008130910511F14AE0489F9001499F300D57
:1019800011242C5F3F4FAECF88E8E82E83E1F82E7C
:1019900002E010E020E930E04AE050E066E172E069
:1019A000C401ABDC009749F04AE0489F9001499F91
:1019B000300D11242B5F3F4F95CF62E070E0C401E2
:1019C0000ED930E020E08ECF8F929F92AF92BF92DF
:1019D000CF92DF92EF92FF920F931F93CF93DF93FB
:1019E0004C01FC01EA57FE4F80819181C1E0D0E0BB
:1019F000029709F5A8E8AA2EA3E1BA2EB9E0CB2EEA
:101A0000D12CC8EFEC2EC1E0FC2E09E010E022E062
:101A100032E049E050E06CE072E0C4019DDD0097E7
:101A2000C1F08130910569F12AE0289FE001299FEA
:101A3000D00D11242296CE01DF91CF911F910F91ED
:101A4000FF90EF90DF90CF90BF90AF909F908F90DE
:101A50000895F0E1EF2EF7E2FF2E02E010E020E91A
:101A600030E04AE050E06DEE71E0C40146DC0097E2
:101A700041F02AE0289FE001299FD00D11242396F0
:101A8000DACF68E8A62E63E1B62E7BE0C72ED12C14
:101A9000E5EBEE2EE1E0FE2E0BE010E021EC31E074
:101AA0004BE050E06DEC71E0C40156DD009719F198
:101AB0008130910541F02AE0289FE001299FD00D57
:101AC00011242496B8CF58E8E52E53E1F52E02E014
:101AD00010E020E930E04CE050E068EA71E0C40139
:101AE0000CDC009741F02AE0289FE001299FD00DEF
:101AF00011242596A0CF48E8E42E43E1F42E02E01D
:101B000010E020E930E048E250E06FE771E0C40106
:101B1000F4DBEC01892B49F02AE02C9FC0012D9FBA
:101B2000900D1124EC01269686CF38E8E32E33E1A0
:101B3000F32E05E010E02AE830E048E050E069EDDF
:101B400071E0C401DADB009761F08130910509F49E
:101B500060C02AE0289FE001299FD00D112427961C
:101B60006ACF28E8E22E23E1F22E0DE010E023E612
:101B700031E04DE050E061E771E0C401BEDB009769
:101B8000F1F08130910541F02AE0289FE001299F82
:101B9000D00D112428964FCF98E8E92E93E1F92E25
:101BA00002E010E020E930E04EE050E064E571E052
:101BB000C401A3DBC9E0D0E0892B09F43CCF88E85D
:101BC000E82E83E1F82E02E010E020E930E044E264
:101BD00050E06CE171E0C40190DBCAE0D0E0892BF9
:101BE00009F029CF20E930E048E050E063E171E0FE
:101BF000C40183DBEC01892B91F405E010E02AE8B5
:101C000030E048E050E069ED71E0C40176DB019717
:101C100049F463E070E0C4010E94EF050CCFCBE013
:101C2000D0E009CFCCE0D0E006CF8F929F92AF9268
:101C3000BF92CF92DF92EF92FF920F931F93CF93B9
:101C4000DF934C01FC01EA57FE4F80819181C1E096
:101C5000D0E00397C9F440E1E42E47E2F42E07E018
:101C600010E021E431E04AE050E069E471E0C401B1
:101C700044DBEC01892BB1F02AE02C9FC0012D9FA1
:101C8000900D1124EC012296CE01DF91CF911F918E
:101C90000F91FF90EF90DF90CF90BF90AF909F900B
:101CA0008F90089598E8A92E93E1B92E29E0C22ECD
:101CB000D12C38EFE32E31E0F32E09E010E022E0E2
:101CC00032E049E050E06CE072E0C40145DC00978E
:101CD00019F18130910541F02AE0289FE001299F08
:101CE000D00D11242396D0CF80E1E82E87E2F82E84
:101CF00002E010E020E930E04AE050E062EE71E0FE
:101D0000C401FBDA009741F02AE0289FE001299FF7
:101D1000D00D11242496B8CF62E070E0C4010E9477
:101D2000EF05B2CF8F929F92AF92BF92CF92DF9288
:101D3000EF92FF920F931F93CF93DF934C01FC011F
:101D4000EA57FE4F80819181C1E0D0E00397B9F45A
:101D500050E1E52E57E2F52E07E010E021E431E0F6
:101D60004AE050E069E471E0C401C7DA0097A9F0E5
:101D70002AE0289FE001299FD00D11242296CE0150
:101D8000DF91CF911F910F91FF90EF90DF90CF9057
:101D9000BF90AF909F908F90089528E8A22E23E1E6
:101DA000B22E3AE0C32ED12C42EFE42E40E0F42EC6
:101DB0000AE010E02DEF30E04AE050E068E071E02A
:101DC000C401CADB009719F18130910541F02AE086
:101DD000289FE001299FD00D11242396D0CF98E8A9
:101DE000E92E93E1F92E02E010E020E930E04BE02B
:101DF00050E066EE70E0C40180DA009741F02AE01E
:101E0000289FE001299FD00D11242496B8CF88E89F
:101E1000E82E83E1F82E02E010E020E930E044E211
:101E200050E061EC70E0C40168DA009741F02AE00C
:101E3000289FE001299FD00D11242596A0CF20E1F5
:101E400037E24AE050E066EB70E0C401CBD9EC0128
:101E5000892B49F02AE02C9FC0012D9F900D112461
:101E6000EC0126968CCF64E070E0C4010E94EF057F
:101E700086CF6F927F928F929F92AF92BF92CF92B6
:101E8000DF92EF92FF920F931F93CF93DF93EC01BA
:101E9000CB013A01FE01E857FE4F20813181232B0F
:101EA000C1F041E050E069E872E089EB91E06CD468
:101EB00081E090E0DF91CF911F910F91FF90EF9023
:101EC000DF90CF90BF90AF909F908F907F906F905A
:101ED0000895DE01AA57BE4F2D913C912430310563
:101EE00051F042E050E06FE872E089EB91E04CD4B1
:101EF00082E090E0DFCF21E030E0318320836AE0B0
:101F000070E00E94121B4B01770FAA08BB088AE001
:101F1000E82EF12C8E0100581E4F6E0182E7C81A80
:101F20008EEFD80AF80180819181029758F4C6019A
:101F30002ED5892BC9F4C501B40174D7F1E0EF1A8D
:101F4000F10881F7F801808191810297E1F043E087
:101F500050E061EA72E089EB91E016D4CE010E9474
:101F6000180683E090E0A6CFC6017BD4F80120815B
:101F70003181A9014F5F5F4F518340832C0F3D1F7B
:101F8000F9018083DBCFE880F9809E2D8F2DF3014E
:101F900091838083F801008111819E0145E152E027
:101FA0006AEA72E089EB91E0A2D397014AE152E03C
:101FB0006BEA72E089EB91E015D4F3012081318165
:101FC0004EE152E06CEA72E089EB91E00BD4CE0175
:101FD0000E94180690E080E06DCF2F923F924F92C2
:101FE0005F926F927F928F929F92AF92BF92CF92A9
:101FF000DF92EF92FF920F931F93CF93DF9300D066
:1020000000D01F92CDB7DEB77C018B0188579E4F61
:102010009D838C83FC0180819181892B19F141E0A2
:1020200050E06BEB72E089EB91E0AED3CC24C3942B
:10203000D12CC6010F900F900F900F900F90DF9151
:10204000CF911F910F91FF90EF90DF90CF90BF90B5
:10205000AF909F908F907F906F905F904F903F9048
:102060002F900895F701EA57FE4F808191810497E0
:1020700059F042E050E061EC72E089EB91E084D3EA
:1020800052E0C52ED12CD5CFAE014F5F5F4FC701B7
:10209000F0DE6C01892B89F02AE02C9DC0012D9D7A
:1020A000900D11246C01F3E0CF0ED11CA60169EC58
:1020B00072E089EB91E068D3BCCF81E090E0EC81E5
:1020C000FD8191838083C8016AE070E00E94121B49
:1020D0002B01770F660877084AE0A42EB12C1B82EB
:1020E000212C870102571E4F4701F0E88F1AFEEF9F
:1020F0009F0AC8014CD4892B79F5C301B20192D64D
:10210000312C21E0A21AB10811F0332091F35701CC
:1021100040E8A41A4EEFB40AF5010081118197013D
:1021200047E252E067EF72E089EB91E0E0D2F5011F
:10213000808191818038910509F05FC0C7010E94BC
:10214000180645E050E06EEF72E089EB91E01CD399
:1021500025E0C22ED12C6DCF222009F1C80181D3F8
:102160008F3F910509F447C044E050E068ED72E00C
:1021700089EB91E009D3F701E058FE4F008111810E
:1021800097014BE952E069ED72E089EB91E0AFD243
:10219000C7010E94180634E0C32ED12C4ACFC801D3
:1021A000F6D34B81242F30E049815A81892BD9F015
:1021B000F4018081918180389105A8F424173507B6
:1021C00090F4C8014ED3F40120813181A9014F5F01
:1021D0005F4F518340832E0D3F1DF9018083FB81AA
:1021E000FF5FFB83DCCF81E04217530709F080E0FB
:1021F000312C282E86CF322C84CF892B71F4C70145
:102200000E94180646E050E065E073E089EB91E03B
:10221000BBD296E0C92ED12C0CCF31100EC0C70115
:102220000E94180647E050E06CE073E089EB91E013
:10223000ABD287E0C82ED12CFCCE81E090E0EC81BF
:10224000FD8191838083F5CEAF92BF92CF92DF92D2
:10225000EF92FF920F931F93CF93DF93EC015B01FB
:102260007C0184E7E81A8EEFF80AF70180819181FA
:102270000197A9F441E050E06CE671E089EB91E050
:1022800083D201E010E0C801DF91CF911F910F913F
:10229000FF90EF90DF90CF90BF90AF90089560E1F6
:1022A00077E2CE019ADE8C01892B81F02AE0209F13
:1022B000C001219F900D11248C010E5F1F4FA801BA
:1022C00064E771E089EB91E05FD2DDCF81E090E0DF
:1022D000F701918380836E01F0E8CF1AFEEFDF0AE9
:1022E000F60140815181BE01CE0193950E94B51C3B
:1022F0007E01FCE7EF1AFEEFFF0AF6018081918173
:10230000F70191838083CE010E941806F701808136
:102310009181F50191838083B6CFCF92DF92EF92C6
:10232000FF920F931F93CF93DF93EC01FC01E857CB
:10233000FE4F80819181892B99F041E050E066E861
:1023400073E089EB91E020D201E010E0C801DF9159
:10235000CF911F910F91FF90EF90DF90CF90089554
:102360000AE010E07E0182E7E81A8EEFF80A6E01BB
:10237000E0E8CE1AEEEFDE0AC70109D3892B09F097
:102380003AC064EF71E080E090E04CD50150110953
:1023900099F7FE01E058FE4F008111819E0147E24E
:1023A00052E067E973E089EB91E0A1D180E190E030
:1023B0003DD67C0166EA70E00E94AE1C40E150E030
:1023C000B701CE010E94BE1C8C01E114F10411F092
:1023D000C7012DD6CE010E9418060115110509F47A
:1023E000B5CF42E050E065EA73E089EB91E0CCD1F3
:1023F00002E010E0ABCFC701CAD2892B09F4C6CFE7
:10240000F60180819181409708F0C0CFC70129D2A1
:10241000F60120813181A9014F5F5F4F51834083D5
:102420002C0F3D1FF9018083E6CF8F929F92AF92D0
:10243000BF92CF92DF92EF92FF920F931F93CF93B1
:10244000DF937C014B015A01FC01EA57FE4F80816A
:1024500091810497B9F041E050E06CE271E089EBC2
:1024600091E092D1C1E0D0E0CE01DF91CF911F91F8
:102470000F91FF90EF90DF90CF90BF90AF909F9023
:102480008F9008958AE090E0D1D56C016BE970E0FF
:102490000E94AE1CB601C7010E94FE07C7013DDFC6
:1024A000892B09F03AC08501940141E352E06DE4C3
:1024B00071E089EB91E01BD1E401A80CB91C870104
:1024C00002571E4FAC16BD0621F06991C801EAD132
:1024D000F9CF6AE1C801E6D120E137E247E050E0F8
:1024E00063E970E0C7010E94F208EC01892B71F0EA
:1024F0002AE02C9FC0012D9F900D1124EC01239602
:10250000AE0161E671E089EB91E03ED1C114D104E6
:1025100009F4AACFC6018BD5A7CFC2E0D0E0F0CF97
:10252000CF92DF92EF92FF920F931F93CF93DF939F
:10253000EC017B016A018901F5DB0097B9F02AE023
:10254000289FE001299FD00D11242196AE016BEC4C
:1025500073E089EB91E018D1CE01DF91CF911F910B
:102560000F91FF90EF90DF90CF900895A601B701F3
:10257000CE015BDF009759F02AE0289FE001299FF8
:10258000D00D11242296AE0163ED73E0E2CFB801C5
:10259000CE015ADE8C01CE010115110569F00E94B1
:1025A0003D0A8AE0809FE001819FD00D112423968F
:1025B000AE016CED73E0CDCF0E943D0AEC01892B9A
:1025C00059F22AE02C9FC0012D9F900D1124EC019F
:1025D0002496AE0164EE73E0BCCFFC01A081B18112
:1025E00084E991E88D939C93A081B18181E012965A
:1025F0008C93A081B18113968C930190F081E02D92
:10260000148290E080E008956430710579F4FC0153
:1026100060817181828193810E94631BFA016083D2
:1026200071838283938390E080E0089581E090E05D
:102630000895CF92DF92EF92FF920F931F93CF9363
:10264000DF936B01EA017901BC0189EC94E0B9D513
:102650006FE772E089EC94E0B4D54AE050E0B6014F
:1026600089EC94E06BD6BE0189EC94E0AAD566E5CE
:1026700072E089EC94E0A5D5E7010E0D1F1DC0178F
:10268000D10741F1D880ED2C0D2C000CFF08C701BB
:102690000E94A71C892BC9F480E3E81AF1088AE09C
:1026A000E816F10490F06BE572E089EC94E089D5CE
:1026B0004AE050E0688189EC94E05CD66BE572E01A
:1026C00089EC94E07ED52196DACF6D2D89EC94E0EB
:1026D0007FD5F9CF6DE572E089EC94E0DF91CF9181
:1026E0001F910F91FF90EF90DF90CF907BC5CF921D
:1026F000DF92EF92FF920F931F93CF93DF936B01C3
:102700007A01D22FC32FBC0189EC94E05AD56FE730
:1027100072E089EC94E055D54AE050E0B60189ECCE
:1027200094E00CD6B70189EC94E04BD566E572E0F5
:1027300089EC94E046D5ED2EFC2ED0E0C0E0680197
:1027400081E0C81AD108C017D10789F0F70161915B
:102750007F014AE050E089EC94E00CD6CC15DD0511
:1027600020F460E289EC94E033D52196ECCF6DE55E
:1027700072E089EC94E0DF91CF911F910F91FF906F
:10278000EF90DF90CF902EC5EF92FF920F931F93A3
:10279000CF93DF937C018B01EA016FE572E089EC56
:1027A00094E00FD5B70189EC94E00BD56FE772E0A8
:1027B00089EC94E006D54AE050E0B80189EC94E059
:1027C000B7D569E672E089EC94E0FBD44AE050E0CA
:1027D000BE0189EC94E0DF91CF911F910F91FF90A2
:1027E000EF90ACC5CF92DF92EF92FF920F931F93C1
:1027F000CF93DF936C017B018A01E90160E772E00E
:1028000089EC94E0DED4B60189EC94E0DAD46FE789
:1028100072E089EC94E0D5D44AE050E0B70189EC4D
:1028200094E086D56BE772E089EC94E0CAD4B801F5
:1028300089EC94E0C6D461E872E089EC94E0C1D4FC
:102840004AE050E0BE0189EC94E0DF91CF911F9106
:102850000F91FF90EF90DF90CF9097C590E080E0D0
:1028600008952091BE043091BF0428173907B9F4A8
:1028700090917C0480917D04981789F0E0917C040C
:10288000F0E0E258FB4F808120917C0430E02F5F24
:102890003F4F2F73332720937C0490E008958FEFF0
:1028A0009FEF0895EF92FF920F931F93CF93DF93C3
:1028B000DC015C96ED90FC905D97E114F10479F4F5
:1028C00081E090E013969C938E93129790E080E0C5
:1028D000DF91CF911F910F91FF90EF900895519646
:1028E000ED91FC91529750968C915097982F90951E
:1028F0000FB75E962C915E97122F127021FD609596
:10290000F8942081112319F1282B2083E7012197C6
:10291000F1F728E0462F50E0308160FF1AC0382BD5
:102920003083E7012197F1F7BA017595679521503A
:1029300089F7112381F08081892380830FBF5C9602
:102940008D919C910197F1F781E090E0C1CF29230F
:10295000DCCF3923E5CF9081892BEFCF08952091EB
:10296000BE043091BF042817390771F490917C049C
:1029700080917D04981741F0E0917C04F0E0E258EA
:10298000FB4F808190E008958FEF9FEF0895209195
:10299000BE043091BF042817390761F480917D048B
:1029A00020917C0490E0805C9F4F821B910960E441
:1029B00070E038C690E080E00895E091BE04F091A8
:1029C000BF04E817F90769F4A389B4899C91858944
:1029D000809589238C931092BF041092BE0481E0ED
:1029E000089580E00895CF93DF93EC018A8D9B8D4D
:1029F000892BF9F08091BE049091BF048C179D073C
:102A0000C1F0009709F0D9DF8E8D8E7F8E8F1092E6
:102A10007D0410927C04D093BF04C093BE04EB8964
:102A2000FC8980819D89892B808381E0DF91CF9112
:102A3000089580E0FBCF1F920F920FB60F921124E2
:102A40002F933F934F935F936F937F938F939F93B6
:102A5000AF93BF93EF93FF93E091BE04F091BF0457
:102A6000309749F0A685B7858585968D91FF14C06E
:102A70009C918923A1F4FF91EF91BF91AF919F9118
:102A80008F917F916F915F914F913F912F910F9017
:102A90000FBE0F901F9018959C91892361F7A38911
:102AA000B4899C918589809589238C93868997899F
:102AB0000197F1F7608D718DA685B785558538E052
:102AC00020E0CB010197F1F7822F90E09595879553
:102AD000282F4C91452309F02068315091F7868DBD
:102AE00081FD209580917D0490E001968F73992758
:102AF00030917C04381799F0A0917D04B0E0A25881
:102B0000BB4F2C9380937D04828D938D0197F1F7B9
:102B1000A389B4898C919589892B8C93ACCF868DB0
:102B20008160868FF1CF2BE832E0FC013183208376
:102B300044CF1F93CF93DF93EC01162F6E8D6695D4
:102B4000617081E06827812F43D261E0812F04D238
:102B5000812F90E0FC01E857FD4FE491E88BFC01E8
:102B6000E456FD4FE491F0E0EE0FFF1FE654FD4FF9
:102B7000859194919A8B898BDF91CF911F910895C4
:102B80001F93CF93DF93EC01162F60E0812FE4D1E8
:102B90008E8D81FD03C061E0812F1AD21C87812FA9
:102BA00090E0FC01E857FD4FE491ED87FC01E4560D
:102BB000FD4FE491F0E0EE0FFF1FE055FD4F8591D2
:102BC00094919F878E87DF91CF911F9108951F93D6
:102BD000CF93DF93EC01162F1B821A8288EE93E0CD
:102BE000A0E0B0E08C839D83AE83BF838BE892E04E
:102BF000998388831F8A1E8A198E188E1B8E1A8EBF
:102C00001D8E1C8E8E8D8E7F20FB81F98E8F642F02
:102C1000CE018FDF612FCE01DF91CF911F91B0CF19
:102C2000CF93DF93EC019A01AB011B8E1A8E198EA4
:102C3000188E1F8A1E8A60E079E08DE390E027D528
:102C4000F901C90103972430310510F481E090E0C7
:102C50009D8F8C8F6C85663108F052C0C9019695A6
:102C600087958431910508F44FC043979F8B8E8BD5
:102C7000C9010597369710F481E090E0998F888F0D
:102C8000C901880F991F280F391F3695279536954A
:102C900027952D303105D8F12C5031093B8F2A8FE3
:102CA0009091680084E0683048F021E06E3008F4CC
:102CB00020E081E001C0880F2A95EAF7892B8093F4
:102CC00068009C852DE630E0983050F02BE630E02F
:102CD0009E3030F02CE630E0963110F030E020E00D
:102CE0003C8B2B8B292F30E09830A0F481E001C081
:102CF000880F9A95EAF78D8B8C8D9D8D0197F1F752
:102D0000CE01DF91CF916FCE81E090E0AFCF21E097
:102D100030E0C4CF9E3040F42850310981E001C03A
:102D2000880F2A95EAF7E7CF2E503109F7CF1F9287
:102D30000F920FB60F9211242F933F938F939F936F
:102D4000AF93BF938091C1049091C204A091C3043A
:102D5000B091C4043091C00423E0230F2D3758F5FF
:102D60000196A11DB11D2093C0048093C1049093CE
:102D7000C204A093C304B093C4048091C50490918D
:102D8000C604A091C704B091C8040196A11DB11D4D
:102D90008093C5049093C604A093C704B093C8045D
:102DA000BF91AF919F918F913F912F910F900FBE47
:102DB0000F901F90189526E8230F0296A11DB11DB4
:102DC000D2CF2FB7F8946091C1047091C204809162
:102DD000C3049091C4042FBF08953FB7F894809125
:102DE000C5049091C604A091C704B091C80426B54B
:102DF000A89B05C02F3F19F00196A11DB11D3FBF33
:102E0000BA2FA92F982F8827BC01CD01620F711D01
:102E1000811D911D42E0660F771F881F991F4A95FB
:102E2000D1F708958F929F92AF92BF92CF92DF9287
:102E3000EF92FF926B017C01D0DF4B015C01C1146A
:102E4000D104E104F104D9F0F0D0C7DF68197909A1
:102E50008A099B09683E73408105910580F321E052
:102E6000C21AD108E108F10888EE880E83E0981EA6
:102E7000A11CB11CC114D104E104F10431F7FF908D
:102E8000EF90DF90CF90BF90AF909F908F9008957C
:102E9000789484B5826084BD84B5816084BD85B535
:102EA000826085BD85B5816085BDEEE6F0E08081FC
:102EB00081608083E1E8F0E010828081826080831D
:102EC000808181608083E0E8F0E0808181608083A0
:102ED000E1EBF0E0808184608083E0EBF0E08081D2
:102EE00081608083EAE7F0E0808184608083808174
:102EF000826080838081816080838081806880831C
:102F00001092C1000895833081F028F4813099F047
:102F10008230A9F008958730A9F08830C9F0843054
:102F2000B1F4809180008F7D03C0809180008F7705
:102F300080938000089584B58F7784BD089584B50B
:102F40008F7DFBCF8091B0008F778093B000089584
:102F50008091B0008F7DF9CFCF93DF9390E0FC019B
:102F6000E857FD4F249184569D4FFC01849188239E
:102F7000C9F090E0880F991FFC01EC53FD4FA5911B
:102F8000B491FC01E654FD4FC591D49161110DC07F
:102F90009FB7F8948C91209582238C938881282365
:102FA00028839FBFDF91CF910895623051F49FB77E
:102FB000F8943C91822F809583238C93E8812E2B6B
:102FC000EFCF8FB7F894EC912E2B2C938FBFEACFD5
:102FD0001F93CF93DF93162F282F30E0F901EC5881
:102FE000FD4F8491F901E857FD4FD491F901E45662
:102FF000FD4FC491CC2399F0811185DFEC2FF0E0D7
:10300000EE0FFF1FE654FD4FA591B4918FB7F894D2
:10301000EC91111108C0D095DE23DC938FBFDF91B6
:10302000CF911F910895DE2BF8CF08956DC304C48E
:103030001F920F920FB60F9211242F938F939F938D
:10304000EF93FF93E091D904F091DA048081E0914D
:10305000DF04F091E00482FD1BC090818091E204C6
:103060008F5F8F732091E304821741F0E091E204B7
:10307000F0E0E753FB4F958F8093E204FF91EF91CF
:103080009F918F912F910F900FBE0F901F901895C9
:103090008081F4CF1F920F920FB60F9211242F93BD
:1030A0003F934F935F936F937F938F939F93AF93D0
:1030B000BF93EF93FF9389EC94E0CED1FF91EF9112
:1030C000BF91AF919F918F917F916F915F914F9140
:1030D0003F912F910F900FBE0F901F90189589EC84
:1030E00094E070D121E0892B09F420E0822F08952B
:1030F000E9ECF4E01382128288EE93E0A0E0B0E005
:1031000084839583A683B78380EA92E0918380834A
:1031100085EC90E09587848784EC90E0978786879C
:1031200080EC90E0918B808B81EC90E0938B828B94
:1031300082EC90E0958B848B86EC90E0978B868B6D
:10314000118E128E138E148E0895AF92BF92CF926D
:10315000DF92EF92FF920F931F93CF93DF936C0157
:103160007B018B01040F151FEB015E01AE18BF0838
:10317000C017D10759F06991D601ED91FC910190EA
:10318000F081E02DC6010995892B79F7C501DF9102
:10319000CF911F910F91FF90EF90DF90CF90BF9054
:1031A000AF900895FB0101900020E9F73197AF013E
:1031B000461B570BDC01ED91FC910280F381E02D61
:1031C00009946115710509F0EDCF90E080E0089554
:1031D000DC01ED91FC910190F081E02D099469E909
:1031E00072E0E0CF0F931F93CF93DF938C01D0E079
:1031F000C0E06115710511F0D5DFEC01C801EFDF0A
:103200008C0F9D1FDF91CF911F910F9108958F9289
:103210009F92AF92BF92EF92FF920F931F93CF9323
:10322000DF93CDB7DEB7A1970FB6F894DEBF0FBE20
:10323000CDBF7C01FA01CB0119A2223008F42AE0AB
:103240008E010F5D1F4F822E912CB12CA12CBF013E
:10325000A5019401FAD1F901CA016A3004F5605D53
:10326000D8016E938D01232B242B252B81F790E021
:1032700080E0109719F0BD01C70194DFA1960FB649
:10328000F894DEBF0FBECDBFDF91CF911F910F919C
:10329000FF90EF90BF90AF909F908F900895695CE2
:1032A000DFCFCF92DF92EF92FF920F931F93CF93D6
:1032B000DF93EC016A017B012115310579F4E88186
:1032C000F9810190F081E02D642FDF91CF911F9162
:1032D0000F91FF90EF90DF90CF9009942A30310545
:1032E000D9F42AE0F7FE18C06DE272DF8C014427A2
:1032F0005527BA014C195D096E097F092AE0CE01F4
:1033000086DF800F911FDF91CF911F910F91FF906A
:10331000EF90DF90CF900895B701A601CE01DF9125
:10332000CF911F910F91FF90EF90DF90CF906FCFD3
:103330009A01AB01770F660B770BB3CF0F931F93F7
:10334000CF93DF93EC01F4DF8C01CE0148DF800FD7
:10335000911FDF91CF911F910F9108952115310594
:1033600041F4DC01ED91FC910190F081E02D642F9E
:1033700009944DCF9A01462F50E070E060E0EECF07
:103380009A01AB0170E060E0E9CF0F931F93CF93F8
:10339000DF93EC01F5DF8C01CE0121DF800F911F5F
:1033A000DF91CF911F910F910895089571DDFDDF99
:1033B0000E948B02CFE1DAE10E9493012097E1F3B2
:1033C0003ED0FACFFC01918D228D892F90E0805C58
:1033D0009F4F821B91098F7399270895FC01918D4E
:1033E000828D981731F0828DE80FF11D858D90E068
:1033F00008958FEF9FEF0895FC01918D828D9817AE
:1034000061F0A28DAE0FBF2FB11D5D968C91928D94
:103410009F5F9F73928F90E008958FEF9FEF0895C5
:10342000FC01538D448D252F30E0842F90E0821BCA
:10343000930B541710F0CF960895019708958FE6D7
:1034400098E1892B41F080E090E0892B21F047DE64
:1034500081110C9400000895FC01A48DA80FB92FD0
:10346000B11DA35ABF4F2C91848D90E001968F73AC
:103470009927848FA689B7892C93A089B1898C91CB
:1034800080648C93938D848D981306C00288F38991
:10349000E02D80818F7D80830895CF93DF93EC01B1
:1034A000888D8823B1F0AA89BB89E889F9898C9134
:1034B00085FD03C0808186FD0CC00FB607FCF7CFE9
:1034C0008C9185FFF2CF808185FFEDCFCE01C4DFE7
:1034D000EACFDF91CF910895EF92FF920F931F9360
:1034E000CF93DF93EC01F62E81E0888F9B8D8C8D3E
:1034F000981316C0E889F989808185FF11C0EE898B
:10350000FF896083E889F98980818064808381E014
:1035100090E0DF91CF911F910F91FF90EF90089570
:103520000B8D10E00F5F1F4F0F731127E02E8C8D56
:103530008E110BC00FB607FCFACFE889F98980819C
:1035400085FFF5CFCE0188DFF2CFEB8DEC0FFD2F9D
:10355000F11DE35AFF4FF0820B8FEA89FB898081CE
:103560008062D4CFCF92DF92EF92FF921F93CF93DE
:10357000DF93EC016A017B01122FE889F98982E06F
:103580008083C11481EED806E104F10499F060E073
:1035900079E08DE390E0A701960157D021503109E1
:1035A000410951095695479537952795211580E191
:1035B000380790F0E889F989108260E874E88EE1B4
:1035C00090E0A701960141D02150310941095109EC
:1035D0005695479537952795EC85FD853083EE8583
:1035E000FF852083188EEC89FD891083EA89FB8989
:1035F000808180618083EA89FB8980818860808303
:10360000EA89FB89808180688083EA89FB898081DF
:103610008F7D8083DF91CF911F91FF90EF90DF909E
:10362000CF90089597FB072E16F4009406D077FDEF
:1036300008D050D007FC05D03EF4909581959F4F5F
:103640000895709561957F4F0895A1E21A2EAA1BE7
:10365000BB1BFD010DC0AA1FBB1FEE1FFF1FA21742
:10366000B307E407F50720F0A21BB30BE40BF50B3F
:10367000661F771F881F991F1A9469F760957095C8
:10368000809590959B01AC01BD01CF010895052E59
:1036900097FB16F400940FD057FD05D0D6DF07FC3A
:1036A00002D046F408C050954095309521953F4F83
:1036B0004F4F5F4F089590958095709561957F4F1E
:1036C0008F4F9F4F08956927962769277827872767
:1036D00078270895AA1BBB1B51E107C0AA1FBB1F77
:1036E000A617B70710F0A61BB70B881F991F5A958E
:1036F000A9F780959095BC01CD010895EE0FFF1FAD
:103700000590F491E02D09940F931F93CF93DF93CD
:103710008230910510F482E090E0E0916805F0912C
:10372000690520E030E0A0E0B0E0309719F1408179
:1037300051810281138148175907C8F084179507F2
:1037400069F4109731F012960C93129713961C930C
:1037500027C0009368051093690522C02115310523
:1037600019F04217530718F49A01BD01EF01DF0168
:10377000F801DBCF21153105F9F0281B390B243076
:10378000310580F48A819B816115710521F0FB016F
:103790009383828304C09093690580936805FE013A
:1037A000329644C0FE01E20FF31F819391932250A1
:1037B0003109398328833AC0209166053091670525
:1037C000232B41F4209102013091030130936705CE
:1037D00020936605209100013091010121153105EA
:1037E00041F42DB73EB74091040150910501241BCF
:1037F000350BE0916605F0916705E217F307A0F439
:103800002E1B3F0B2817390778F0AC014E5F5F4F36
:103810002417350748F04E0F5F1F509367054093FC
:1038200066058193919302C0E0E0F0E0CF01DF9163
:10383000CF911F910F910895CF93DF93009709F4D3
:1038400081C0FC01329713821282A0916805B09169
:103850006905109781F420813181820F931F209197
:103860006605309167052817390751F5F09367050C
:10387000E093660567C0ED0120E030E0CE17DF077A
:1038800040F44A815B819E0141155105F1F0EA0146
:10389000F5CFD383C28340815181840F951FC81710
:1038A000D90759F488819981840F951F02969183D5
:1038B00080838A819B81938382832115310529F43A
:1038C000F0936905E09368053DC0E901FB83EA8355
:1038D00049915991C40FD51FEC17FD0761F4808100
:1038E0009181840F951F0296E901998388838281D3
:1038F00093819B838A83E0E0F0E012968D919C9106
:103900001397009719F0FD01DC01F7CF8D919C9181
:1039100011979D012E5F3F4F820F931F20916605E7
:10392000309167052817390769F4309729F4109208
:1039300069051092680502C013821282B093670570
:10394000A0936605DF91CF91089585FD34C0806214
:10395000911131C081568A51E0F70895FB01DC01D5
:1039600005900D920020E1F70895FB01DC0102C0F3
:1039700001900D9241505040D8F70895FB01DC01B1
:103980004150504030F08D910190801919F4002081
:10399000B9F7881B990B0895FB01DC014150504099
:1039A00048F001900D920020C9F701C01D924150CE
:1039B0005040E0F7089599278827089511E0C9E657
:1039C000D1E003C0FE019ADE2196CA36D107D1F7B5
:0439D000F894FFCF99
:1039D40000006A0520002C010000626264612E630D
:1039E40070700047534D20536869656C6420696E9C
:1039F4006974001F1C1F1E1F1E1F1F1E1F1E1F4435
:103A0400423A2047534D5F53544154453D47534D2B
:103A14005F4F46465F53544154450044423A204761
:103A2400534D5F53544154453D47534D5F4F4E5F93
:103A340053544154450044423A2047534D5F535434
:103A44004154453D47534D5F50494E5F5354415493
:103A5400450044423A2047534D5F53544154453D39
:103A640047534D5F49505F53544154450044423AD3
:103A74002047534D5F53544154453D47534D5F5484
:103A840043505F5354415445002F686F6D652F6A4E
:103A94006C722F446F63756D656E74732F6262640C
:103AA4002F61726475696E6F2F6C69622F67736D15
:103AB4004172642F67736D5F6172642E637070006E
:103AC400534F434B455420425546464552005245B8
:103AD40043565F42554646455200434D445F425566
:103AE40046464552004644415300746D700072735B
:103AF400705F73697A6500524543565F4255464686
:103B0400004441544100B004000060090000C012A8
:103B1400000080250000004B00000096000000E13A
:103B2400000000C20100203A205B005C005D0045FB
:103B340052524F5220696E200020636F646520004A
:103B44004E4F5449465920696E2000206D73673AE0
:103B5400002076616C2000000000005214A5182E8D
:103B640014AE14C7143114AF140D0A000000000081
:0E3B74006C1AA518101A4D1AE219FC19EE1958
:00000001FF
