:1000000069C100008FC100008DC100000C94B014C4
:100010000C94B0140C94B01485C1000083C100008E
:1000200081C100007FC100007DC100007BC10000D4
:1000300079C1000077C1000075C1000073C10000E4
:100040000C942C166FC100000C94AD170C94DF17A4
:1000500069C1000067C1000065C1000063C1000004
:1000600061C100005FC1000041542B43495053540B
:100070004154555300434C4F5345204F4B0041547E
:100080002B434950434C4F5345004552524F520069
:100090004F4B0053454E44204F4B0041542B434996
:1000A0005053454E440041542B43495053454E4410
:1000B0000D0A0D0A3E20434F4E4E454354204F4BF0
:1000C0000041542B43495053544152543D22544310
:1000D00050222C223137382E36322E362E3434220E
:1000E0002C373737370041542B4349504D55583D35
:1000F00030002B4349504D55583A2031002B43498D
:10010000504D55583A20300041542B4349504D55DD
:10011000583F0041542B43494943520041542B431B
:100120005354543D22696E7465726E65742E766FF9
:100130006461666F6E652E7074222C22222C22223E
:100140000053485554204F4B0041542B43495053C2
:100150004855540041542B4349505345525645523B
:100160003D30002B4349505345525645523A2030BA
:100170000041542B4349505345525645523F00418C
:10018000542B434744434F4E543D312C2249502277
:100190002C22696E7465726E65742E766F6461666A
:1001A0006F6E652E7074220041542B4349504D4FA1
:1001B00044453D30002B4349504D4F44453A203192
:1001C000002B4349504D4F44453A20300041542BB9
:1001D0004349504D4F44453F0041542B43494653FA
:1001E000520041542B43474154543D300041542B5D
:1001F00043474154543D31002B43474154543A2026
:1002000031002B43474154543A20300041542B4392
:10021000474154543F0041542B43495552433D30CC
:10022000002B43495552433A2030002B4349555245
:10023000433A20310041542B43495552433F00413A
:10024000542B4350494E3D30303438002B435049F5
:100250004E3A2053494D2050494E002B4350494EB1
:100260003A2052454144590041542B4350494E3F96
:1002700000415400000000080002010000030407D0
:10028000000000000000000001020408102040806F
:1002900001020408102001020408102004040404D0
:1002A0000404040402020202020203030303030320
:1002B00000000000230026002900000000002500A7
:1002C00028002B0000000000240027002A00F9036A
:1002D0000D18FC0311241FBECFEFD8E0DEBFCDBF49
:1002E00012E0A0E0B1E0E4EDF8E302C005900D9269
:1002F000A838B107D9F725E0A8E8B2E001C01D92FF
:10030000A434B207E1F711E0C9E6D1E004C02197B7
:10031000FE010E94FE1AC736D107C9F70E9456197E
:100320000C945E1C6DCE0895CF93DF93EC0163E1D6
:1003300071E083EA94E00E947618CA30D1052CF46B
:1003400060E383EA94E00E947D184AE050E0BE0139
:1003500083EA94E0DF91CF910C942D191CD44AE0EC
:1003600050E0BC0183EA94E00E942D191AD4DCDF2E
:100370001ED4DADF6EE572E083EA94E00E9476181C
:100380001CD44AE050E0BC0183EA94E00E942D199D
:100390006EE572E083EA94E00E94761814D44AE095
:1003A00050E0BC0183EA94E00E942D196EE572E0F2
:1003B00083EA94E00E9476180CD44AE050E0BC0135
:1003C00083EA94E00E942D1983EA94E00C94841847
:1003D0000F931F93CF93DF93CDB7DEB72A970FB656
:1003E000F894DEBF0FBECDBF8EE892E0B4D501E039
:1003F00010E0039739F585E090E00E94AB179E83EB
:100400008D83CE0105960E94BE12009739F12AE035
:10041000289F8001299F100D11240E5F1F4F8D8191
:100420009E81009711F00E94AC178F8198850097EC
:1004300011F00E94AC17A8016EEB70E08AE091E029
:100440000E949513C8012A960FB6F894DEBF0FBE1E
:10045000CDBFDF91CF911F910F9108956D817E8166
:100460009E01275F3F4F45E050E08EE892E00E94FA
:100470006112009749F02AE0289F8001299F100D02
:1004800011240D5F1F4FCBCF89859A850E94AB1732
:1004900098878F83BE01695F7F4F8EE892E061D5B8
:1004A000009749F02AE0289F8001299F100D112410
:1004B0000C5F1F4FB4CF69857A85AE014F5F5F4FE8
:1004C0008F8198850E94D5128C01892B51F02AE0EA
:1004D000209FC001219F900D11248C010B5F1F4FA5
:1004E0009ECF69817A818B819C81605F714F8F4F34
:1004F0009F4F8DD281E080938C02BCD260938802A2
:100500007093890280938A0290938B0227DF87CFB2
:100510001F93CF93DF93CDB7DEB7CD5AD1400FB63F
:10052000F894DEBF0FBECDBF26E040E855E260E0A4
:1005300070E083EA94E00E94321ACE010196A8D3BB
:10054000FE013196AEE8B2E081918D9383E0AE304A
:10055000B807D1F7DE01AF57BF4FEEE0F3E08D9162
:10056000819383E0EE38F807D1F7DE01AF5FBE4F2D
:10057000EEE8F3E08D91819384E0EE30F807D1F757
:10058000CF57DE4F88819981C158D14090930F0495
:1005900080930E04CD57DE4F88819981C358D14096
:1005A0009093110480931004CB57DE4F888199817A
:1005B000C558D1409093130480931204C957DE4F5D
:1005C00088819981C758D140909315048093140471
:1005D000C757DE4F88819981C958D140909317043D
:1005E00080931604C557DE4F88819981CB58D1403E
:1005F0009093190480931804C357DE4F8881998122
:10060000CD58D14090931B0480931A04CF56DE4FEF
:1006100088819981C159D14090931F0480931E0411
:10062000CD56DE4F88819981AA81BB81C359D140C3
:100630008093200490932104A0932204B093230478
:10064000C956DE4F88819981AA81BB81C759D140A3
:100650008093240490932504A0932604B093270448
:10066000C556DE4F8881CB59D14080932804C456AB
:10067000DE4F8881CC59D14080932904C356DE4F88
:1006800088819981CD59D14090932B0480932A047D
:10069000C156DE4F8881CF59D14080932C04C0567B
:1006A000DE4F88819981C05AD14090932E04809367
:1006B0002D04CE55DE4F88819981C25AD140909346
:1006C000300480932F04CC55DE4F8881C45AD1402A
:1006D00080933104CB55DE4F88819981C55AD14032
:1006E0009093330480933204C955DE4F88819981F9
:1006F000C75AD1409093350480933404C755DE4FD8
:1007000088819981C95AD1409093370480933604E7
:10071000C555DE4F88819981CB5AD14090933904D9
:1007200080933804C355DE4F9881CD5AD1408091D3
:100730003A0490FB80F991FB81F980933A04CE0151
:1007400081579E4F0E94281565E171E083EA94E08D
:100750000E9487188EE892E0DCD70097E1F511E05F
:100760008EE892E00E94DF0CAC016EE270E0892B13
:10077000C9F480918C0281110CC02ADE009749F0E7
:10078000AC0166E370E08AE091E00E94951310935B
:100790008D028EE892E00E94100E009739F0AC01B5
:1007A00066E570E08AE091E00E94951368EE73E0E0
:1007B00080E090E00E94A71680918D02882381F24C
:1007C000C355DE4F0FB6F894DEBF0FBECDBFDF912D
:1007D000CF911F910895AC0164E270E08AE091E04E
:1007E0000E94951360E177E280E090E00E94A716F6
:1007F000B1CF8EE892E04CC28CE194E00C942815C5
:100800006F927F928F929F92AF92BF92CF92DF9220
:10081000EF92FF920F931F93CF93DF936B017C01B5
:10082000EA018CE3882E912CA12CB12CC701A501E3
:1008300094010E94A51A6883CA01B901A501940117
:100840000E94A51A6983C701B60120E13EE040E09D
:1008500050E00E94A51ACA01B90128E130E040E049
:1008600050E00E94A51A6A83C701B60120E831E56D
:1008700041E050E00E94A51A69017A01CA01B9015C
:100880006C5F7F4F8F4F9F4F27E030E040E050E09C
:100890000E94A51A6F5F6B83812C912C540140E05C
:1008A00094E6692E712C00E911E0242F30E02E54DB
:1008B000384FF901E370FF273097F9F4C901B3010C
:1008C0000E94921A892B31F4C901B8010E94921A30
:1008D000892B99F48EE691E0A0E0B0E0880E991E95
:1008E000AA1EBB1ED501C401AA27BB27C816D9065C
:1008F000EA06FB0638F04F5FD8CF8DE691E0A0E026
:10090000B0E0ECCF4E83C90164E670E00E94921A19
:100910008C01C90160E971E00E94921A309729F4B4
:1009200001151105E1F40097D1F04DE651E060E0CA
:1009300070E0841A950AA60AB70AC818D908EA0806
:10094000FB08A5E2B1E020E0213071F4309791F589
:100950000115110511F4009769F54DE106C04EE649
:1009600051E060E070E0E5CF4C9150E070E060E075
:1009700031E0320FC416D506E606F70640F0C41A79
:10098000D50AE60AF70A1196232F3C30E9F62F5FC5
:100990002D83C394CC82DF91CF911F910F91FF9053
:1009A000EF90DF90CF90BF90AF909F908F907F900F
:1009B0006F9008954CE1D9CFCF92DF92EF92FF92E2
:1009C0006B017C0180914B0490914C04A0914D04EB
:1009D000B0914E048C159D05AE05BF0561F04FE446
:1009E00054E0C7010DDFC0924B04D0924C04E0925A
:1009F0004D04F0924E04FF90EF90DF90CF90089559
:100A0000DBDF8091550490E08E54984F08950F934A
:100A10001F93609347047093480480934904909314
:100A20004A040091060110910701209108013091BC
:100A30000901DC01CB01800F911FA21FB31F80931E
:100A40003F0490934004A0934104B093420482E099
:100A500090E090933E0480933D040E94761660934C
:100A600043047093440480934504909346041F917B
:100A70000F910895CF92DF92EF92FF920F931F9301
:100A80000E947616C0904304D0904404E090450440
:100A9000F09046048B019C010C191D092E093F0999
:100AA0008091470490914804A0914904B0914A0470
:100AB000083E134021053105D0F00196A11DB11D5E
:100AC0008093470490934804A0934904B0934A0448
:100AD000B701A60148515C4F6F4F7F4F40934304CD
:100AE000509344046093450470934604C9CF4091E9
:100AF0003F04509140046091410470914204841776
:100B00009507A607B70768F0E0913B04F0913C0415
:100B1000309739F00995611571058105910581F0CE
:100B200076DF609147047091480480914904909168
:100B30004A041F910F91FF90EF90DF90CF9008959E
:100B40008091470490914804A0914904B0914A04CF
:100B500040910601509107016091080170910901CF
:100B6000840F951FA61FB71F80933F0490934004E6
:100B7000A0934104B093420481E090E020913D04B1
:100B800030913E04232B11F490E080E090933E04DA
:100B900080933D04C6CF6EDF0FDF8091510490E05B
:100BA000089568DF09DF8091500490E0089562DFC6
:100BB00003DF80914F0490E008955CDFFDDE8091BB
:100BC000530490E0089556DFF7DE8091540490E0DE
:100BD000089550DF15CF8A579E4FFC0171836083C3
:100BE00062307105C1F038F46115710559F061305A
:100BF000710571F008956330710581F064307105FD
:100C000081F0089561E371E083EA94E00C94871821
:100C10006DE471E0F9CF68E671E0F6CF64E871E069
:100C2000F3CF6FE971E0F0CFFC01E058FE4F118285
:100C3000108220E8FC0111922A95E9F788579E4F0F
:100C4000FC01118210820895FC01EE57FE4F1182C3
:100C50001082E250F14020E8DF011D922A95E9F769
:100C600086579E4FFC01118210820895FC01EC57BB
:100C7000FE4F11821082E458F10920E8DF011D9235
:100C80002A95E9F784579E4FFC011182108208953E
:100C9000CF93DF93EC0120E048E067E082579E4F5E
:100CA0000E947C15FE01EA57FE4F11821082CE0190
:100CB000BBDFCE01C9DFCE01D9DF61E371E083EA9A
:100CC00094E0DF91CF910C948718EF92FF920F93ED
:100CD0001F93CF93DF93EC018901DC01A657BE4F30
:100CE0008D919C911197892B09F08CC0FE01E857DA
:100CF000FE4F80819181019709F084C07B01BE0184
:100D000090E080E0FB012191BF0148175907D1F025
:100D1000F70131917F01321799F0CE0185DF42E072
:100D200050E06AE273E08BEB91E00E94951382E061
:100D300090E0DF91CF911F910F91FF90EF90089578
:100D40000196E0CF2D3061F4FE01E40FF51F8181A3
:100D50008A3031F482818D3019F483818A3069F0D0
:100D6000CE0162DF43E050E063E373E08BEB91E0A0
:100D70000E94951383E090E0DCCF4C5F5F4FFE0153
:100D8000E40FF51FBF019F012C1B3D0B81918D309E
:100D900019F080818A30B9F7FE01E058FE4F80815A
:100DA000918102978217930769F0CE013DDF44E0FD
:100DB00050E062E473E08BEB91E00E94951384E0D5
:100DC00090E0B7CFC901841B950BAC017E019EE773
:100DD000E91A9EEFF90AF7015183408381E090E020
:100DE0008D939C93CE0180589F4F0E944C1CCE0146
:100DF0001BDFF70180819181F8019183808390E06E
:100E000080E097CF41E050E062E273E08BEB91E04D
:100E10000E94951381E090E08CCFEF92FF920F93A8
:100E20001F93CF93DF93EC018B01DC01A657BE4FDC
:100E30008D919C911197892B09F059C0FE01E857BB
:100E4000FE4F80819181019709F051C0FE01CF01D1
:100E50008C1B9D0B21912D30D1F720812A30B9F7C1
:100E60000296FE01E80FF91FBF01AF014C1B5D0B9D
:100E700021912D3019F020812A30B9F7FE01E05878
:100E8000FE4F20813181225031092417350789F026
:100E900043E050E068E673E08BEB91E00E9495132D
:100EA00083E090E0DF91CF911F910F91FF90EF9041
:100EB0000895481B590B7E018EE7E81A8EEFF80A59
:100EC000F7015183408381E090E08D939C93CE01A4
:100ED00080589F4F0E944C1CCE01A6DEF7018081F6
:100EE0009181F8019183808390E080E0DBCF41E045
:100EF00050E066E573E08BEB91E00E94951381E092
:100F000090E0D0CFCF93DF93EC01FB01DC01A6573B
:100F1000BE4F8D919C91019769F041E050E068EAE5
:100F200073E08BEB91E00E94951381E090E0DF91FC
:100F3000CF910895DE01AE57BE4F4D915C91BE0139
:100F400060587F4F808191810E944C1CCE017CDED5
:100F500090E080E0ECCF8A579E4FFC018081918128
:100F60000895AF92BF92CF92DF92EF92FF920F93CC
:100F70001F93CF93DF93EC015B01FC01E457FE4F1D
:100F8000808191810197A9F041E050E067EE73E024
:100F90008BEB91E00E94951381E090E0DF91CF917F
:100FA0001F910F91FF90EF90DF90CF90BF90AF9087
:100FB00008957E01F3946E01ECE7CE1AEEEFDE0A9F
:100FC000F60100811181970142EF51E063EF73E078
:100FD0008BEB91E00E944813F60140815181B701EB
:100FE000F501808191810E94351CCE013FDE90E0A9
:100FF00080E0D4CFEF92FF920F931F93CF93DF93B4
:10100000FB0101900020E9F7EB019F01215031091C
:1010100079018C0102571E4FCE15DF0529F0699129
:10102000C8010E94E713F8CF6DE0C8010E94E713E2
:101030006AE0C801DF91CF911F910F91FF90EF906F
:101040000C94E7134F925F926F927F928F929F92D0
:10105000AF92BF92CF92DF92EF92FF920F931F93C6
:10106000CF93DF93EC01CB016A01FE01E857FE4FFD
:1010700020813181232B09F0AEC021E030E03183A3
:1010800020836AE070E00E94921A2B01770F6608B5
:1010900077088AE0882E912CF12CE12C8E010257E2
:1010A0001E4F5E0180E8A81A8EEFB80AEC14FD040A
:1010B00074F4C8010E945C14892B09F03DC0C3017F
:1010C000B2010E94A716E1E08E1A910879F75E013D
:1010D000F0E8AF1AFEEFBF0AD5010D911C919E01F9
:1010E00040E052E067E672E08BEB91E00E94EA128A
:1010F000F501808191818038910509F04AC0CE01C7
:1011000093DD42E050E06EE672E08BEB91E00E94EE
:10111000951382E090E0DF91CF911F910F91FF90A6
:10112000EF90DF90CF90BF90AF909F908F907F9087
:101130006F905F904F900895C8010E945C14892BB6
:1011400009F4C1CFD5018D919C918038910508F0AB
:10115000BACFEC14FD040CF0B6CFC8010E94C61340
:10116000D501ED91FC9111979F012F5F3F4F2D937A
:101170003C93EC0FFD1F808322303105E8F28A306A
:10118000D9F6319780818D30B9F6BFEFEB1AFB0AA3
:10119000D3CF892B69F4CE0147DD43E050E065E70A
:1011A00072E08BEB91E00E94951383E090E0B3CF67
:1011B00090E080E0CE14DF0409F4ADCFCE0134DD41
:1011C00044E050E06CE772E08BEB91E00E949513F5
:1011D00084E090E0A0CF81E090E09DCFCF92DF92BD
:1011E000EF92FF920F931F93CF93DF9300D000D025
:1011F000CDB7DEB78C016B017A0142E050E0B90156
:1012000021DF0097E9F02AE0289F8001299F100D37
:1012100011240F5F1F4FA80163E172E08BEB91E097
:101220000E949513C8010F900F900F900F90DF91BF
:10123000CF911F910F91FF90EF90DF90CF90089585
:10124000BE016D5F7F4FC801E8DD009761F02AE0C5
:10125000289F8001299F100D11240E5F1F4FA801A8
:101260006CE172E0DBCF8B819C810E94AB179A838B
:101270008983BE016F5F7F4FC80144DE0097B9F0DC
:101280002AE0289F8001299F100D11240D5F1F4F18
:10129000A80161E372E08BEB91E00E9495138981D4
:1012A0009A81009709F4BECF0E94AC17BBCFC7014B
:1012B0000E94AB177C01B6010E942E1C4B815C8101
:1012C000B70189819A810E943E1C8C01892B51F0C3
:1012D00042E050E069E372E08BEB91E00E949513ED
:1012E00004E010E0E114F104D1F2C7010E94AC1750
:1012F000D6CF2F923F924F925F926F927F928F92B2
:101300009F92AF92BF92CF92DF92EF92FF920F9394
:101310001F93CF93DF9300D000D0CDB7DEB76C0121
:101320001B015A0149012701CA010E94AB177C0128
:10133000C8010E94AB173C01B101C7010E942E1CDD
:10134000B401C3010E942E1C860102571E4FC80122
:101350000E945C14892B21F0C8010E94C613F7CFAC
:10136000850197014CE052E06BE971E08BEB91E075
:101370000E94EA12B701C6013DDE43E050E0B2012F
:10138000C60160DE009709F068C09E012F5F3F4FE5
:10139000A501B701C60199DC009709F055C0898104
:1013A0009A810E94AB179C838B83BE016D5F7F4F38
:1013B000C601A8DD009799F02AE0289F8001299FA7
:1013C000100D11240E5F1F4F0115110589F0A801A2
:1013D0006FEB71E08BEB91E00E9495130BC049819C
:1013E0005A81B3018B819C810E943E1C892BF1F5AF
:1013F00010E000E0E114F10419F0C7010E94AC17FD
:101400006114710419F0C3010E94AC178B819C8197
:10141000009711F00E94AC17C8010F900F900F9029
:101420000F90DF91CF911F910F91FF90EF90DF9080
:10143000CF90BF90AF909F908F907F906F905F9074
:101440004F903F902F9008952AE0289F8001299F78
:10145000100D11240D5F1F4FB7CF2AE0289F800188
:10146000299F100D11240C5F1F4FAECF01E010E03B
:10147000AECFCF92DF92EF92FF920F931F93CF9355
:10148000DF936C01FC01EA57FE4F80819181049744
:10149000A1F041E050E06AE071E08BEB91E00E9446
:1014A0009513C1E0D0E0CE01DF91CF911F910F9154
:1014B000FF90EF90DF90CF90089598E8E92E93E1A8
:1014C000F92E02E010E020E930E04CE050E068E660
:1014D00070E0C6010EDFEC01892B81F02AE02C9F21
:1014E000C0012D9F900D1124EC012296AE0162E106
:1014F00071E08BEB91E00E949513D5CF20E137E2AC
:101500004AE050E066EB70E0C60168DE892BD9F452
:1015100088E8E82E83E1F82E08E010E025E730E0C7
:101520004BE050E06EE770E0C601E3DE009759F053
:101530002AE0289FE001299FD00D11242396AE01B7
:101540006CE171E0D6CF63E070E0C60144DBABCF65
:101550002F923F924F925F926F927F928F929F92C3
:10156000AF92BF92CF92DF92EF92FF920F931F93B1
:10157000CF93DF93CDB7DEB72A970FB6F894DEBFCF
:101580000FBECDBF4C017E836D833A0138872F8318
:10159000280187011601BA86A986CA010E94AB17E5
:1015A0007C01C2010E94AB175C01C6010E94AB170F
:1015B0006C016D817E81C7010E942E1C6F81788530
:1015C000C5010E942E1CB801C6010E942E1C840178
:1015D00002571E4FC8010E945C14892B21F0C801DC
:1015E0000E94C613F7CF830197014CE052E060EEF2
:1015F00071E08BEB91E0EED7B701C401FBDC43E077
:1016000050E069857A85C4011DDD892B59F092E08F
:10161000892E912CA40161E072E08BEB91E00E9495
:10162000951325C09E012F5F3F4FA301B701C40151
:101630004CDB009709F063C089819A810E94AB1747
:101640009C838B83BE016D5F7F4FC4015BDC009781
:1016500009F43FC02AE0289F4001299F900C1124E3
:1016600083E0880E911C82E0881691049CF6E114B8
:10167000F10419F0C7010E94AC17A114B10419F0CC
:10168000C5010E94AC17C114D10419F0C6010E9413
:10169000AC178B819C81009711F00E94AC17C4019C
:1016A0002A960FB6F894DEBF0FBECDBFDF91CF9163
:1016B0001F910F91FF90EF90DF90CF90BF90AF9070
:1016C0009F908F907F906F905F904F903F902F9062
:1016D00008950B811C81A201B801C5010E943E1C26
:1016E0004C01892B21F2A101B801C6010E943E1CC8
:1016F000892B09F08CCF88248394912CB8CF2AE0D1
:10170000289F4001299F900C112484E0880E911C91
:10171000AACF6F927F928F929F92AF92BF92CF92F9
:10172000DF92EF92FF920F931F93CF93DF93CDB78A
:10173000DEB76F970FB6F894DEBF0FBECDBF4C017A
:101740005C018AE7A81A8EEFB80AF50111821082AF
:1017500061E371E083EA94E00E94871820E048E0AA
:1017600067E0CE0101960E947C156401F2E7CF1A72
:10177000FEEFDF0A8B819C81F601938382838D814A
:101780009E81AF81B88584839583A683B78389853D
:101790009A85AB85BC8580879187A287B3878D8525
:1017A00084878E8585878F8598899787868789899D
:1017B000808B8A899B89928B818B8C899D89948B64
:1017C000838B8E89858B8F89988D978B868B898D5E
:1017D0009A8D918F808F8B8D9C8D938F828F8D8D25
:1017E0009E8D958F848F9F8D868D90FB80F991FBC8
:1017F00081F9868FCE0101960E94281540E659E0B6
:1018000060E070E0C6010E94A515A8E8EA2EA3E1F9
:10181000FA2E02E010E020E930E042E050E061E71B
:1018200072E0C40166DD892B21F461E070E0C4013F
:10183000D2D9F6E26F2EF2E07F2EF5018081918100
:10184000019711F1F30141915191619171913F0122
:10185000C6010E94A515E8E8EE2EE3E1FE2E02E0A7
:1018600010E020E930E042E050E061E772E0C401BE
:1018700040DD892B21F461E070E0C401ACD9F6E4CD
:101880006F16F2E07F06C9F6F5018081918121E0B3
:1018900030E0019711F558E8A52E53E1B52E6EE022
:1018A000C62ED12C7CE4E72E72E0F72E0CE010E07F
:1018B0002BE532E048E050E068E672E0C40148DE23
:1018C0000097D1F181309105F1F04AE0489F9001F5
:1018D000499F300D11242E5F3F4FC9016F960FB6FF
:1018E000F894DEBF0FBECDBFDF91CF911F910F9156
:1018F000FF90EF90DF90CF90BF90AF909F908F9030
:101900007F906F90089548E8E42E43E1F42E02E0C2
:1019100010E020E930E04CE050E06FE372E0C401F9
:10192000E8DC009749F04AE0489F9001499F300D5C
:1019300011242D5F3F4FD1CF98E8A92E93E1B92E06
:1019400029E0C22ED12C31E2E32E32E0F32E09E061
:1019500010E02BE232E049E050E065E372E0C401C0
:10196000F7DD009761F08130910511F14AE0489F61
:101970009001499F300D11242C5F3F4FAECF88E876
:10198000E82E83E1F82E02E010E020E930E04AE0A2
:1019900050E066E172E0C401ACDC009749F04AE037
:1019A000489F9001499F300D11242B5F3F4F95CFE9
:1019B00062E070E0C4010FD930E020E08ECF8F925A
:1019C0009F92AF92BF92CF92DF92EF92FF920F93CE
:1019D0001F93CF93DF934C01FC01EA57FE4F8081A8
:1019E0009181C1E0D0E0029709F5A8E8AA2EA3E111
:1019F000BA2EB9E0CB2ED12CC8EFEC2EC1E0FC2ED4
:101A000009E010E022E032E049E050E06CE072E0F2
:101A1000C4019EDD0097C1F08130910569F12AE093
:101A2000289FE001299FD00D11242296CE01DF913D
:101A3000CF911F910F91FF90EF90DF90CF90BF90CB
:101A4000AF909F908F900895F0E1EF2EF7E2FF2E78
:101A500002E010E020E930E04AE050E06DEE71E095
:101A6000C40147DC009741F02AE0289FE001299F4C
:101A7000D00D11242396DACF68E8A62E63E1B62EA6
:101A80007BE0C72ED12CE5EBEE2EE1E0FE2E0BE045
:101A900010E021EC31E04BE050E06DEC71E0C4016E
:101AA00057DD009719F18130910541F02AE0289F18
:101AB000E001299FD00D11242496B8CF58E8E52ED7
:101AC00053E1F52E02E010E020E930E04CE050E078
:101AD00068EA71E0C4010DDC009741F02AE0289F1C
:101AE000E001299FD00D11242596A0CF48E8E42ECF
:101AF00043E1F42E02E010E020E930E048E250E05B
:101B00006FE771E0C401F5DBEC01892B49F02AE0B5
:101B10002C9FC0012D9F900D1124EC01269686CF9D
:101B200038E8E32E33E1F32E05E010E02AE830E058
:101B300048E050E069ED71E0C401DBDB009761F043
:101B40008130910509F460C02AE0289FE001299FB7
:101B5000D00D112427966ACF28E8E22E23E1F22E39
:101B60000DE010E023E631E04DE050E061E771E088
:101B7000C401BFDB0097F1F08130910541F02AE00C
:101B8000289FE001299FD00D112428964FCF98E877
:101B9000E92E93E1F92E02E010E020E930E04EE07A
:101BA00050E064E571E0C401A4DBC9E0D0E0892B1A
:101BB00009F43CCF88E8E82E83E1F82E02E010E03B
:101BC00020E930E044E250E06CE171E0C40191DBD7
:101BD000CAE0D0E0892B09F029CF20E930E048E0C5
:101BE00050E063E171E0C40184DBEC01892B91F4E6
:101BF00005E010E02AE830E048E050E069ED71E0EF
:101C0000C40177DB019749F463E070E0C4010E94EE
:101C1000EB050CCFCBE0D0E009CFCCE0D0E006CF95
:101C20008F929F92AF92BF92CF92DF92EF92FF92EC
:101C30000F931F93CF93DF934C01FC01EA57FE4FA4
:101C400080819181C1E0D0E00397C9F440E1E42EA6
:101C500047E2F42E07E010E021E431E04AE050E0F2
:101C600069E471E0C40145DBEC01892BB1F02AE0A5
:101C70002C9FC0012D9F900D1124EC012296CE01C6
:101C8000DF91CF911F910F91FF90EF90DF90CF9058
:101C9000BF90AF909F908F90089598E8A92E93E100
:101CA000B92E29E0C22ED12C38EFE32E31E0F32EED
:101CB00009E010E022E032E049E050E06CE072E040
:101CC000C40146DC009719F18130910541F02AE00A
:101CD000289FE001299FD00D11242396D0CF80E1C9
:101CE000E82E87E2F82E02E010E020E930E04AE03A
:101CF00050E062EE71E0C401FCDA009741F02AE0A6
:101D0000289FE001299FD00D11242496B8CF62E0CE
:101D100070E0C4010E94EB05B2CF8F929F92AF9208
:101D2000BF92CF92DF92EF92FF920F931F93CF93C8
:101D3000DF934C01FC01EA57FE4F80819181C1E0A5
:101D4000D0E00397B9F450E1E52E57E2F52E07E015
:101D500010E021E431E04AE050E069E471E0C401C0
:101D6000C8DA0097A9F02AE0289FE001299FD00D4A
:101D700011242296CE01DF91CF911F910F91FF90F8
:101D8000EF90DF90CF90BF90AF909F908F9008958D
:101D900028E8A22E23E1B22E3AE0C32ED12C42EF46
:101DA000E42E40E0F42E0AE010E02DEF30E04AE0AF
:101DB00050E068E071E0C401CBDB009719F181309D
:101DC000910541F02AE0289FE001299FD00D1124C0
:101DD0002396D0CF98E8E92E93E1F92E02E010E0A7
:101DE00020E930E04BE050E066EE70E0C40181DABB
:101DF000009741F02AE0289FE001299FD00D11248F
:101E00002496B8CF88E8E82E83E1F82E02E010E0AF
:101E100020E930E044E250E061EC70E0C40169DAAE
:101E2000009741F02AE0289FE001299FD00D11245E
:101E30002596A0CF20E137E24AE050E066EB70E063
:101E4000C401CCD9EC01892B49F02AE02C9FC001B8
:101E50002D9F900D1124EC0126968CCF64E070E04C
:101E6000C4010E94EB0586CF6F927F928F929F9262
:101E7000AF92BF92CF92DF92EF92FF920F931F9398
:101E8000CF93DF93EC01CB013A01FE01E857FE4FFF
:101E900020813181232BC1F041E050E066E872E0FF
:101EA0008BEB91E042D481E090E0DF91CF911F91E4
:101EB0000F91FF90EF90DF90CF90BF90AF909F90E9
:101EC0008F907F906F900895DE01AA57BE4F2D919D
:101ED0003C912430310551F042E050E06CE872E072
:101EE0008BEB91E022D482E090E0DFCF21E030E084
:101EF000318320836AE070E00E94921A4B01770FD1
:101F0000AA08BB088AE0E82EF12C8E0100581E4F6B
:101F10006E0182E7C81A8EEFD80AF801808191819C
:101F2000029758F4C601C8D4892BC9F4C501B4017D
:101F30000ED7F1E0EF1AF10881F7F8018081918165
:101F40000297E1F043E050E06EE972E08BEB91E044
:101F5000ECD3CE010E94140683E090E0A6CFC60128
:101F600015D4F80120813181A9014F5F5F4F518362
:101F700040832C0F3D1FF9018083DBCF888199813D
:101F8000982789279827F30191838083CE010E94A7
:101F9000140690E080E089CF2F923F924F925F929B
:101FA0006F927F928F929F92AF92BF92CF92DF9269
:101FB000EF92FF920F931F93CF93DF9300D000D047
:101FC0001F92CDB7DEB77C018B0188579E4F9D8352
:101FD0008C83FC0180819181892B19F141E050E0D3
:101FE00064EB72E08BEB91E0A0D3CC24C394D12CB2
:101FF000C6010F900F900F900F900F90DF91CF912F
:102000001F910F91FF90EF90DF90CF90BF90AF9016
:102010009F908F907F906F905F904F903F902F9008
:102020000895F701EA57FE4F80819181049759F096
:1020300042E050E06AEB72E08BEB91E076D352E045
:10204000C52ED12CD5CFAE014F5F5F4FC7010CDF3E
:102050006C01892B89F02AE02C9DC0012D9D900DEB
:1020600011246C01F3E0CF0ED11CA60162EC72E0EA
:102070008BEB91E05AD3BCCF81E090E0EC81FD8105
:1020800091838083C8016AE070E00E94921A2B015C
:10209000770F660877084AE0A42EB12C1B82212C0A
:1020A000870102571E4F4701F0E88F1AFEEF9F0A83
:1020B000C80102D4892B79F5C301B20148D6312C6D
:1020C00021E0A21AB10811F0332091F3570140E842
:1020D000A41A4EEFB40AF50100811181970147E17E
:1020E00052E06FEE72E08BEB91E0D2D2F50180818D
:1020F00091818038910509F051C0C7010E941406F2
:1021000045E050E066EF72E08BEB91E00ED325E006
:10211000C22ED12C6DCF222099F0C80137D38F3F2A
:102120009105D1F1C7010E94140644E050E062ED30
:1021300072E08BEB91E0F9D234E0C32ED12C58CF72
:10214000C801BAD34B81242F30E049815A81892BB1
:10215000D9F0F4018081918180389105A8F4241789
:10216000350790F4C80112D3F40120813181A9010F
:102170004F5F5F4F518340832E0D3F1DF9018083D8
:10218000FB81FF5FFB83DCCF81E04217530709F03F
:1021900080E0312C282E94CF322C92CF892B71F4F1
:1021A000C7010E94140646E050E06DEF72E08BEB31
:1021B00091E0BBD296E0C92ED12C1ACF31100EC0BF
:1021C000C7010E94140647E050E064E073E08BEB27
:1021D00091E0ABD287E0C82ED12C0ACF81E090E00D
:1021E000EC81FD819183808303CFAF92BF92CF9228
:1021F000DF92EF92FF920F931F93CF93DF93EC0147
:102200005B017C0184E7E81A8EEFF80AF701808110
:1022100091810197A9F441E050E06CE671E08BEB0D
:1022200091E083D201E010E0C801DF91CF911F91CE
:102230000F91FF90EF90DF90CF90BF90AF900895F7
:1022400060E177E2CE01A8DE8C01892B81F02AE0E3
:10225000209FC001219F900D11248C010E5F1F4F04
:10226000A80164E771E08BEB91E05FD2DDCF81E004
:1022700090E0F701918380836E01F0E8CF1AFEEFC2
:10228000DF0AF60140815181BE01CE0193950E9483
:10229000351C7E01FCE7EF1AFEEFFF0AF601808194
:1022A0009181F70191838083CE010E941406F7018A
:1022B00080819181F50191838083B6CFCF92DF92A7
:1022C000EF92FF920F931F93CF93DF93EC01FC01EA
:1022D000E857FE4F80819181892B99F041E050E0D1
:1022E0006EE773E08BEB91E020D201E010E0C801D3
:1022F000DF91CF911F910F91FF90EF90DF90CF90E2
:1023000008950AE010E07E0182E7E81A8EEFF80AED
:102310006E01E0E8CE1AEEEFDE0AC701CDD2892BBE
:1023200009F03AC064EF71E080E090E010D5015010
:10233000110999F7FE01E058FE4F008111819E01BD
:1023400047E152E06FE873E08BEB91E0A1D180E1CF
:1023500090E001D67C0166EA70E00E942E1C40E10C
:1023600050E0B701CE010E943E1C8C01E114F10443
:1023700011F0C701F1D5CE010E9414060115110517
:1023800009F4B5CF42E050E06DE973E08BEB91E0EA
:10239000CCD102E010E0ABCFC7018ED2892B09F47B
:1023A000C6CFF60180819181409708F0C0CFC70168
:1023B000EDD1F60120813181A9014F5F5F4F51833B
:1023C00040832C0F3D1FF9018083E6CF8F929F92AF
:1023D000AF92BF92CF92DF92EF92FF920F931F9333
:1023E000CF93DF937C014B015A01FC01EA57FE4F6A
:1023F000808191810497B9F041E050E06CE271E096
:102400008BEB91E092D1C1E0D0E0CE01DF91CF9192
:102410001F910F91FF90EF90DF90CF90BF90AF9002
:102420009F908F9008958AE090E095D56C016BE9BC
:1024300070E00E942E1CB601C7010E94FA07C70176
:102440003DDF892B09F03AC08501940141E252E059
:102450006DE471E08BEB91E01BD1E401A80CB91C99
:10246000870102571E4FAC16BD0621F06991C801C5
:10247000AED1F9CF6AE1C801AAD120E137E247E045
:1024800050E063E970E0C7010E94EE08EC01892B7F
:1024900071F02AE02C9FC0012D9F900D1124EC01BA
:1024A0002396AE0161E671E08BEB91E03ED1C11461
:1024B000D10409F4AACFC6014FD5A7CFC2E0D0E01E
:1024C000F0CFCF92DF92EF92FF920F931F93CF93B3
:1024D000DF93EC017B016A0189011FDC0097B9F0F1
:1024E0002AE0289FE001299FD00D11242196AE01FA
:1024F00063EC73E08BEB91E018D1CE01DF91CF91CB
:102500001F910F91FF90EF90DF90CF900895A6015B
:10251000B701CE015BDF009759F02AE0289FE00168
:10252000299FD00D11242296AE016BEC73E0E2CF0F
:10253000B801CE015ADE8C01CE010115110569F0FA
:102540000E94390A8AE0809FE001819FD00D11240A
:102550002396AE0164ED73E0CDCF0E94390AEC0101
:10256000892B59F22AE02C9FC0012D9F900D112438
:10257000EC012496AE016CED73E0BCCFFC01A081B0
:10258000B18184E991E88D939C93A081B18181E030
:1025900012968C93A081B18113968C930190F08157
:1025A000E02D148290E080E008956430710579F4A4
:1025B000FC0160817181828193810E94E31AFA019A
:1025C000608371838283938390E080E0089581E04B
:1025D00090E00895CF92DF92EF92FF920F931F93B6
:1025E000CF93DF936B01EA017901BC0183EA94E0A8
:1025F0007DD563E171E083EA94E078D54AE050E06C
:10260000B60183EA94E02FD6BE0183EA94E06ED54A
:1026100066E472E083EA94E069D5E7010E0D1F1DC0
:10262000C017D10741F1D880ED2C0D2C000CFF080C
:10263000C7010E94271C892BC9F480E3E81AF1081E
:102640008AE0E816F10490F06BE472E083EA94E02B
:102650004DD54AE050E0688183EA94E020D66BE4EF
:1026600072E083EA94E042D52196DACF6D2D83EAB9
:1026700094E043D5F9CF6DE472E083EA94E0DF9112
:10268000CF911F910F91FF90EF90DF90CF903FC5BA
:10269000CF92DF92EF92FF920F931F93CF93DF932E
:1026A0007B01D42FC52FBC0183EA94E01FD563E1E1
:1026B00071E083EA94E01AD54AE050E0B70183EA7A
:1026C00094E0D1D56D2F7C2F83EA94E00FD566E49A
:1026D00072E083EA94E00AD5ED2EFC2ED0E0C0E053
:1026E000680181E0C81AD108C017D10789F0F70145
:1026F00061917F014AE050E083EA94E0D0D5CC15A7
:10270000DD0520F460E283EA94E0F7D42196ECCF73
:102710006DE472E083EA94E0DF91CF911F910F9115
:10272000FF90EF90DF90CF90F2C4EF92FF920F9363
:102730001F93CF93DF937C018B01EA016FE472E07A
:1027400083EA94E0D3D4B70183EA94E0CFD463E181
:1027500071E083EA94E0CAD44AE050E0B80183EA29
:1027600094E07BD569E572E083EA94E0BFD44AE067
:1027700050E0BE0183EA94E0DF91CF911F910F9169
:10278000FF90EF9070C590E080E00895209198044C
:102790003091990428173907B9F490915604809123
:1027A0005704981789F0E0915604F0E0E85AFB4F7F
:1027B00080812091560430E02F5F3F4F2F733327E5
:1027C0002093560490E008958FEF9FEF0895EF92C5
:1027D000FF920F931F93CF93DF93DC015C96ED90F4
:1027E000FC905D97E114F10479F481E090E0139698
:1027F0009C938E93129790E080E0DF91CF911F9190
:102800000F91FF90EF9008955196ED91FC915297A2
:1028100050968C915097982F90950FB75E962C916B
:102820005E97122F127021FD6095F894208111237C
:1028300019F1282B2083E7012197F1F728E0462F93
:1028400050E0308160FF1AC0382B3083E7012197B8
:10285000F1F7BA0175956795215089F7112381F039
:102860008081892380830FBF5C968D919C91019715
:10287000F1F781E090E0C1CF2923DCCF3923E5CF08
:102880009081892BEFCF089520919804309199047D
:102890002817390771F490915604809157049817BE
:1028A00041F0E0915604F0E0E85AFB4F808190E05F
:1028B00008958FEF9FEF0895209198043091990427
:1028C0002817390761F4809157042091560490E04D
:1028D000805C9F4F821B910960E470E023C690E00A
:1028E00080E00895E0919804F0919904E817F907C1
:1028F00069F4A389B4899C918589809589238C93F7
:10290000109299041092980481E0089580E008954F
:10291000CF93DF93EC018A8D9B8D892BF9F0809109
:102920009804909199048C179D07C1F0009709F0C5
:10293000D9DF8E8D8E7F8E8F1092570410925604A1
:10294000D0939904C0939804EB89FC8980819D8978
:10295000892B808381E0DF91CF91089580E0FBCFC8
:102960001F920F920FB60F9211242F933F934F9304
:102970005F936F937F938F939F93AF93BF93EF93E7
:10298000FF93E0919804F0919904309749F0A6855F
:10299000B7858585968D91FF14C09C918923A1F4FC
:1029A000FF91EF91BF91AF919F918F917F916F9127
:1029B0005F914F913F912F910F900FBE0F901F90FD
:1029C00018959C91892361F7A389B4899C91858985
:1029D000809589238C93868997890197F1F7608D7B
:1029E000718DA685B785558538E020E0CB0101972C
:1029F000F1F7822F90E095958795282F4C914523EC
:102A000009F02068315091F7868D81FD20958091E5
:102A1000570490E001968F73992730915604381728
:102A200099F0A0915704B0E0A85ABB4F2C93809323
:102A30005704828D938D0197F1F7A389B4898C9106
:102A40009589892B8C93ACCF868D8160868FF1CF51
:102A500024E632E0FC013183208344CF1F93CF93DF
:102A6000DF93EC01162F6E8D6695617081E068270B
:102A7000812F43D261E0812F04D2812F90E0FC01AD
:102A8000E857FD4FE491E88BFC01E456FD4FE491DB
:102A9000F0E0EE0FFF1FE654FD4F859194919A8B65
:102AA000898BDF91CF911F9108951F93CF93DF936F
:102AB000EC01162F60E0812FE4D18E8D81FD03C0E3
:102AC00061E0812F1AD21C87812F90E0FC01E8572A
:102AD000FD4FE491ED87FC01E456FD4FE491F0E0F9
:102AE000EE0FFF1FE055FD4F859194919F878E87D4
:102AF000DF91CF911F9108951F93CF93DF93EC0146
:102B0000162F1B821A8288EE93E0A0E0B0E08C833F
:102B10009D83AE83BF8384E692E0998388831F8A76
:102B20001E8A198E188E1B8E1A8E1D8E1C8E8E8DEF
:102B30008E7F20FB81F98E8F642FCE018FDF612F76
:102B4000CE01DF91CF911F91B0CFCF93DF93EC01F6
:102B50009A01AB011B8E1A8E198E188E1F8A1E8A3F
:102B600060E079E08DE390E012D5F901C9010397A7
:102B70002430310510F481E090E09D8F8C8F6C85BE
:102B8000663108F052C0C901969587958431910548
:102B900008F44FC043979F8B8E8BC90105973697DA
:102BA00010F481E090E0998F888FC901880F991FF8
:102BB000280F391F36952795369527952D303105E5
:102BC000D8F12C5031093B8F2A8F9091680084E016
:102BD000683048F021E06E3008F420E081E001C068
:102BE000880F2A95EAF7892B809368009C852DE64B
:102BF00030E0983050F02BE630E09E3030F02CE69C
:102C000030E0963110F030E020E03C8B2B8B292F08
:102C100030E09830A0F481E001C0880F9A95EAF77F
:102C20008D8B8C8D9D8D0197F1F7CE01DF91CF912A
:102C30006FCE81E090E0AFCF21E030E0C4CF9E3096
:102C400040F42850310981E001C0880F2A95EAF745
:102C5000E7CF2E503109F7CF1F920F920FB60F9288
:102C600011242F933F938F939F93AF93BF938091A2
:102C70009B0490919C04A0919D04B0919E0430917E
:102C80009A0423E0230F2D3758F50196A11DB11D9D
:102C900020939A0480939B0490939C04A0939D049A
:102CA000B0939E0480919F049091A004A091A104F0
:102CB000B091A2040196A11DB11D80939F04909331
:102CC000A004A093A104B093A204BF91AF919F91DF
:102CD0008F913F912F910F900FBE0F901F901895DD
:102CE00026E8230F0296A11DB11DD2CF2FB7F8946D
:102CF00060919B0470919C0480919D0490919E042E
:102D00002FBF08953FB7F89480919F049091A0043D
:102D1000A091A104B091A20426B5A89B05C02F3FA5
:102D200019F00196A11DB11D3FBFBA2FA92F982FF1
:102D30008827BC01CD01620F711D811D911D42E0EC
:102D4000660F771F881F991F4A95D1F708958F92B4
:102D50009F92AF92BF92CF92DF92EF92FF926B0160
:102D60007C01D0DF4B015C01C114D104E104F1040A
:102D7000D9F0F0D0C7DF681979098A099B09683E44
:102D800073408105910580F321E0C21AD108E10862
:102D9000F10888EE880E83E0981EA11CB11CC114B6
:102DA000D104E104F10431F7FF90EF90DF90CF9070
:102DB000BF90AF909F908F900895789484B5826073
:102DC00084BD84B5816084BD85B5826085BD85B5CF
:102DD000816085BDEEE6F0E0808181608083E1E87E
:102DE000F0E01082808182608083808181608083B6
:102DF000E0E8F0E0808181608083E1EBF0E08081B9
:102E000084608083E0EBF0E0808181608083EAE78A
:102E1000F0E0808184608083808182608083808113
:102E2000816080838081806880831092C1000895D2
:102E3000833081F028F4813099F08230A9F0089530
:102E40008730A9F08830C9F08430B1F480918000D7
:102E50008F7D03C0809180008F77809380000895DC
:102E600084B58F7784BD089584B58F7DFBCF809125
:102E7000B0008F778093B00008958091B0008F7D6F
:102E8000F9CFCF93DF9390E0FC01E857FD4F2491F9
:102E900084569D4FFC0184918823C9F090E0880FEF
:102EA000991FFC01EC53FD4FA591B491FC01E65430
:102EB000FD4FC591D49161110DC09FB7F8948C91CD
:102EC000209582238C938881282328839FBFDF91BC
:102ED000CF910895623051F49FB7F8943C91822FBE
:102EE000809583238C93E8812E2BEFCF8FB7F894B6
:102EF000EC912E2B2C938FBFEACF1F93CF93DF93B0
:102F0000162F282F30E0F901EC58FD4F8491F9017C
:102F1000E857FD4FD491F901E456FD4FC491CC23FD
:102F200099F0811185DFEC2FF0E0EE0FFF1FE654E2
:102F3000FD4FA591B4918FB7F894EC91111108C091
:102F4000D095DE23DC938FBFDF91CF911F91089541
:102F5000DE2BF8CF089558C3EFC31F920F920FB620
:102F60000F9211242F938F939F93EF93FF93E091F0
:102F7000B304F091B4048081E091B904F091BA04F3
:102F800082FD1BC090818091BC048F5F8F73209164
:102F9000BD04821741F0E091BC04F0E0ED55FB4F19
:102FA000958F8093BC04FF91EF919F918F912F910A
:102FB0000F900FBE0F901F9018958081F4CF1F9235
:102FC0000F920FB60F9211242F933F934F935F935D
:102FD0006F937F938F939F93AF93BF93EF93FF93E1
:102FE00083EA94E0B9D1FF91EF91BF91AF919F91A6
:102FF0008F917F916F915F914F913F912F910F90A2
:103000000FBE0F901F90189583EA94E05BD121E0EA
:10301000892B09F420E0822F0895E3EAF4E013827B
:10302000128288EE93E0A0E0B0E084839583A683CB
:10303000B78389E792E09183808385EC90E0958760
:10304000848784EC90E09787868780EC90E0918B72
:10305000808B81EC90E0938B828B82EC90E0958B5F
:10306000848B86EC90E0978B868B118E128E138E5C
:10307000148E0895AF92BF92CF92DF92EF92FF929B
:103080000F931F93CF93DF936C017B018B01040F90
:10309000151FEB015E01AE18BF08C017D10759F02C
:1030A0006991D601ED91FC910190F081E02DC6016E
:1030B0000995892B79F7C501DF91CF911F910F9168
:1030C000FF90EF90DF90CF90BF90AF900895FB01FD
:1030D00001900020E9F73197AF01461B570BDC0147
:1030E000ED91FC910280F381E02D09946115710549
:1030F00009F0EDCF90E080E00895DC01ED91FC91C6
:103100000190F081E02D099462E772E0E0CF0F9327
:103110001F93CF93DF938C01D0E0C0E06115710560
:1031200011F0D5DFEC01C801EFDF8C0F9D1FDF919F
:10313000CF911F910F9108958F929F92AF92BF925E
:10314000EF92FF920F931F93CF93DF93CDB7DEB72C
:10315000A1970FB6F894DEBF0FBECDBF7C01FA0178
:10316000CB0119A2223008F42AE08E010F5D1F4F17
:10317000822E912CB12CA12CBF01A5019401E5D187
:10318000F901CA016A3004F5605DD8016E938D01C2
:10319000232B242B252B81F790E080E0109719F04A
:1031A000BD01C70194DFA1960FB6F894DEBF0FBE34
:1031B000CDBFDF91CF911F910F91FF90EF90BF9006
:1031C000AF909F908F900895695CDFCFCF92DF9290
:1031D000EF92FF920F931F93CF93DF93EC016A015D
:1031E0007B012115310579F4E881F9810190F081A5
:1031F000E02D642FDF91CF911F910F91FF90EF9001
:10320000DF90CF9009942A303105D9F42AE0F7FEF7
:1032100018C06DE272DF8C0144275527BA014C19A2
:103220005D096E097F092AE0CE0186DF800F911FBC
:10323000DF91CF911F910F91FF90EF90DF90CF9092
:103240000895B701A601CE01DF91CF911F910F9193
:10325000FF90EF90DF90CF906FCF9A01AB01770F87
:10326000660B770BB3CF0F931F93CF93DF93EC01D4
:10327000F4DF8C01CE0148DF800F911FDF91CF91E9
:103280001F910F9108952115310541F4DC01ED9155
:10329000FC910190F081E02D642F09944DCF9A01AB
:1032A000462F50E070E060E0EECF089586DDFDDF50
:1032B0000E948802CFE9D9E10E9493012097E1F3AF
:1032C0003ED0FACFFC01918D228D892F90E0805C59
:1032D0009F4F821B91098F7399270895FC01918D4F
:1032E000828D981731F0828DE80FF11D858D90E069
:1032F00008958FEF9FEF0895FC01918D828D9817AF
:1033000061F0A28DAE0FBF2FB11D5D968C91928D95
:103310009F5F9F73928F90E008958FEF9FEF0895C6
:10332000FC01538D448D252F30E0842F90E0821BCB
:10333000930B541710F0CF9608950197089584E0E9
:1033400098E1892B41F080E090E0892B21F05CDE50
:1033500081110C9400000895FC01A48DA80FB92FD1
:10336000B11DA35ABF4F2C91848D90E001968F73AD
:103370009927848FA689B7892C93A089B1898C91CC
:1033800080648C93938D848D981306C00288F38992
:10339000E02D80818F7D80830895CF93DF93EC01B2
:1033A000888D8823B1F0AA89BB89E889F9898C9135
:1033B00085FD03C0808186FD0CC00FB607FCF7CFEA
:1033C0008C9185FFF2CF808185FFEDCFCE01C4DFE8
:1033D000EACFDF91CF910895EF92FF920F931F9361
:1033E000CF93DF93EC01F62E81E0888F9B8D8C8D3F
:1033F000981316C0E889F989808185FF11C0EE898C
:10340000FF896083E889F98980818064808381E015
:1034100090E0DF91CF911F910F91FF90EF90089571
:103420000B8D10E00F5F1F4F0F731127E02E8C8D57
:103430008E110BC00FB607FCFACFE889F98980819D
:1034400085FFF5CFCE0188DFF2CFEB8DEC0FFD2F9E
:10345000F11DE35AFF4FF0820B8FEA89FB898081CF
:103460008062D4CFCF92DF92EF92FF921F93CF93DF
:10347000DF93EC016A017B01122FE889F98982E070
:103480008083C11481EED806E104F10499F060E074
:1034900079E08DE390E0A701960157D021503109E2
:1034A000410951095695479537952795211580E192
:1034B000380790F0E889F989108260E874E88EE1B5
:1034C00090E0A701960141D02150310941095109ED
:1034D0005695479537952795EC85FD853083EE8584
:1034E000FF852083188EEC89FD891083EA89FB898A
:1034F000808180618083EA89FB8980818860808304
:10350000EA89FB89808180688083EA89FB898081E0
:103510008F7D8083DF91CF911F91FF90EF90DF909F
:10352000CF90089597FB072E16F4009406D077FDF0
:1035300008D050D007FC05D03EF4909581959F4F60
:103540000895709561957F4F0895A1E21A2EAA1BE8
:10355000BB1BFD010DC0AA1FBB1FEE1FFF1FA21743
:10356000B307E407F50720F0A21BB30BE40BF50B40
:10357000661F771F881F991F1A9469F760957095C9
:10358000809590959B01AC01BD01CF010895052E5A
:1035900097FB16F400940FD057FD05D0D6DF07FC3B
:1035A00002D046F408C050954095309521953F4F84
:1035B0004F4F5F4F089590958095709561957F4F1F
:1035C0008F4F9F4F08956927962769277827872768
:1035D00078270895AA1BBB1B51E107C0AA1FBB1F78
:1035E000A617B70710F0A61BB70B881F991F5A958F
:1035F000A9F780959095BC01CD010895EE0FFF1FAE
:103600000590F491E02D09940F931F93CF93DF93CE
:103610008230910510F482E090E0E0914205F09153
:10362000430520E030E0A0E0B0E0309719F14081A0
:1036300051810281138148175907C8F084179507F3
:1036400069F4109731F012960C93129713961C930D
:1036500027C0009342051093430522C02115310570
:1036600019F04217530718F49A01BD01EF01DF0169
:10367000F801DBCF21153105F9F0281B390B243077
:10368000310580F48A819B816115710521F0FB0170
:103690009383828304C09093430580934205FE0187
:1036A000329644C0FE01E20FF31F819391932250A2
:1036B0003109398328833AC0209140053091410572
:1036C000232B41F4209102013091030130934105F5
:1036D0002093400520910001309101012115310511
:1036E00041F42DB73EB74091040150910501241BD0
:1036F000350BE0914005F0914105E217F307A0F486
:103700002E1B3F0B2817390778F0AC014E5F5F4F37
:103710002417350748F04E0F5F1F50934105409323
:1037200040058193919302C0E0E0F0E0CF01DF918A
:10373000CF911F910F910895CF93DF93009709F4D4
:1037400081C0FC01329713821282A0914205B09190
:103750004305109781F420813181820F931F2091BE
:103760004005309141052817390751F5F09341057F
:10377000E093400567C0ED0120E030E0CE17DF07A1
:1037800040F44A815B819E0141155105F1F0EA0147
:10379000F5CFD383C28340815181840F951FC81711
:1037A000D90759F488819981840F951F02969183D6
:1037B00080838A819B81938382832115310529F43B
:1037C000F0934305E09342053DC0E901FB83EA83A2
:1037D00049915991C40FD51FEC17FD0761F4808101
:1037E0009181840F951F0296E901998388838281D4
:1037F00093819B838A83E0E0F0E012968D919C9107
:103800001397009719F0FD01DC01F7CF8D919C9182
:1038100011979D012E5F3F4F820F931F209140050E
:10382000309141052817390769F4309729F410922F
:1038300043051092420502C013821282B0934105E3
:10384000A0934005DF91CF91089585FD34C080623B
:10385000911131C081568A51E0F70895FB01DC01D6
:1038600005900D920020E1F70895FB01DC0102C0F4
:1038700001900D9241505040D8F70895FB01DC01B2
:103880004150504030F08D910190801919F4002082
:10389000B9F7881B990B0895FB01DC01415050409A
:1038A00048F001900D920020C9F701C01D924150CF
:1038B0005040E0F7089599278827089511E0C9E658
:1038C000D1E003C0FE019ADE2196CA36D107D1F7B6
:0438D000F894FFCF9A
:1038D4000000440520002C010000626264612E6334
:1038E4007070003A0047534D20536869656C64203A
:1038F400696E6974001F1C1F1E1F1E1F1F1E1F1EC2
:103904001F44423A2047534D5F53544154453D4769
:10391400534D5F4F46465F53544154450044423A29
:103924002047534D5F53544154453D47534D5F4FDA
:103934004E5F53544154450044423A2047534D5F2F
:1039440053544154453D47534D5F50494E5F535482
:103954004154450044423A2047534D5F5354415427
:10396400453D47534D5F49505F53544154450044CE
:10397400423A2047534D5F53544154453D47534DBC
:103984005F5443505F5354415445002F686F6D6535
:103994002F6A6C722F446F63756D656E74732F623A
:1039A40062642F61726475696E6F2F6C69622F6730
:1039B400736D4172642F67736D5F6172642E6370FF
:1039C4007000534F434B45542042554646455200E0
:1039D400524543565F42554646455200434D445F67
:1039E40042554646455200524543565F4255464667
:1039F400004441544100B004000060090000C012BA
:103A0400000080250000004B00000096000000E14B
:103A1400000000C20100203A205B005C005D00450C
:103A240052524F5220696E200020636F646520005B
:103A340000000000E7133A18C31343145C14C613C0
:103A440044140D0A0000000000EC193A189019CD36
:083A54001962197C196E1900BA
:00000001FF
